{
  "contractName": "AppointmentManager",
  "abi": [
    {
      "inputs": [],
      "stateMutability": "nonpayable",
      "type": "constructor"
    },
    {
      "inputs": [],
      "name": "owner",
      "outputs": [
        {
          "internalType": "address",
          "name": "",
          "type": "address"
        }
      ],
      "stateMutability": "view",
      "type": "function",
      "constant": true
    },
    {
      "inputs": [
        {
          "internalType": "uint256",
          "name": "timestamp",
          "type": "uint256"
        }
      ],
      "name": "addAvailability",
      "outputs": [],
      "stateMutability": "nonpayable",
      "type": "function"
    },
    {
      "inputs": [
        {
          "internalType": "uint256",
          "name": "timestamp",
          "type": "uint256"
        }
      ],
      "name": "removeAvailability",
      "outputs": [],
      "stateMutability": "nonpayable",
      "type": "function"
    },
    {
      "inputs": [
        {
          "internalType": "uint256",
          "name": "start",
          "type": "uint256"
        },
        {
          "internalType": "uint256",
          "name": "end",
          "type": "uint256"
        }
      ],
      "name": "getAvailabilitiesBetween",
      "outputs": [
        {
          "internalType": "uint256[]",
          "name": "",
          "type": "uint256[]"
        }
      ],
      "stateMutability": "view",
      "type": "function",
      "constant": true
    }
  ],
  "bytecode": "0x608060405234801561001057600080fd5b50336000806101000a81548173ffffffffffffffffffffffffffffffffffffffff021916908373ffffffffffffffffffffffffffffffffffffffff160217905550610832806100606000396000f3fe608060405234801561001057600080fd5b506004361061004c5760003560e01c80638da5cb5b146100515780639672195f1461006f578063fc7968e51461009f578063fd15040a146100bb575b600080fd5b6100596100d7565b6040516100669190610521565b60405180910390f35b61008960048036038101906100849190610577565b6100fb565b6040516100969190610675565b60405180910390f35b6100b960048036038101906100b49190610697565b6102db565b005b6100d560048036038101906100d09190610697565b6103d7565b005b60008054906101000a900473ffffffffffffffffffffffffffffffffffffffff1681565b60606000600160003373ffffffffffffffffffffffffffffffffffffffff1673ffffffffffffffffffffffffffffffffffffffff16815260200190815260200160002090506000805b82805490508110156101c15785838281548110610164576101636106c4565b5b90600052602060002001541015801561019a57508483828154811061018c5761018b6106c4565b5b906000526020600020015411155b156101ae5781806101aa90610722565b9250505b80806101b990610722565b915050610144565b5060008167ffffffffffffffff8111156101de576101dd61076a565b5b60405190808252806020026020018201604052801561020c5781602001602082028036833780820191505090505b5090506000805b84805490508110156102cd5787858281548110610233576102326106c4565b5b90600052602060002001541015801561026957508685828154811061025b5761025a6106c4565b5b906000526020600020015411155b156102ba57848181548110610281576102806106c4565b5b906000526020600020015483838151811061029f5761029e6106c4565b5b60200260200101818152505081806102b690610722565b9250505b80806102c590610722565b915050610213565b508194505050505092915050565b6000600160003373ffffffffffffffffffffffffffffffffffffffff1673ffffffffffffffffffffffffffffffffffffffff168152602001908152602001600020905060005b818054905081101561036b5782828281548110610341576103406106c4565b5b9060005260206000200154036103585750506103d4565b808061036390610722565b915050610321565b50600160003373ffffffffffffffffffffffffffffffffffffffff1673ffffffffffffffffffffffffffffffffffffffff168152602001908152602001600020829080600181540180825580915050600190039060005260206000200160009091909190915055505b50565b6000600160003373ffffffffffffffffffffffffffffffffffffffff1673ffffffffffffffffffffffffffffffffffffffff168152602001908152602001600020905060005b81805490508110156104db578282828154811061043d5761043c6106c4565b5b9060005260206000200154036104c857816001838054905061045f9190610799565b815481106104705761046f6106c4565b5b906000526020600020015482828154811061048e5761048d6106c4565b5b9060005260206000200181905550818054806104ad576104ac6107cd565b5b600190038181906000526020600020016000905590556104db565b80806104d390610722565b91505061041d565b505050565b600073ffffffffffffffffffffffffffffffffffffffff82169050919050565b600061050b826104e0565b9050919050565b61051b81610500565b82525050565b60006020820190506105366000830184610512565b92915050565b600080fd5b6000819050919050565b61055481610541565b811461055f57600080fd5b50565b6000813590506105718161054b565b92915050565b6000806040838503121561058e5761058d61053c565b5b600061059c85828601610562565b92505060206105ad85828601610562565b9150509250929050565b600081519050919050565b600082825260208201905092915050565b6000819050602082019050919050565b6105ec81610541565b82525050565b60006105fe83836105e3565b60208301905092915050565b6000602082019050919050565b6000610622826105b7565b61062c81856105c2565b9350610637836105d3565b8060005b8381101561066857815161064f88826105f2565b975061065a8361060a565b92505060018101905061063b565b5085935050505092915050565b6000602082019050818103600083015261068f8184610617565b905092915050565b6000602082840312156106ad576106ac61053c565b5b60006106bb84828501610562565b91505092915050565b7f4e487b7100000000000000000000000000000000000000000000000000000000600052603260045260246000fd5b7f4e487b7100000000000000000000000000000000000000000000000000000000600052601160045260246000fd5b600061072d82610541565b91507fffffffffffffffffffffffffffffffffffffffffffffffffffffffffffffffff820361075f5761075e6106f3565b5b600182019050919050565b7f4e487b7100000000000000000000000000000000000000000000000000000000600052604160045260246000fd5b60006107a482610541565b91506107af83610541565b92508282039050818111156107c7576107c66106f3565b5b92915050565b7f4e487b7100000000000000000000000000000000000000000000000000000000600052603160045260246000fdfea26469706673582212209d565d93ee23ae5608db9ce22198ffde69285bbf0cf241fc7427e13eb9430ef064736f6c63430008130033",
  "immutableReferences": {},
  "source": "// SPDX-License-Identifier: MIT\r\npragma solidity ^0.8.0;\r\n\r\ncontract AppointmentManager {\r\n    address public owner;\r\n\r\n    // mapping(dokter => timestamps)\r\n    mapping(address => uint256[]) private availabilities;\r\n\r\n    constructor() {\r\n        owner = msg.sender;\r\n    }\r\n\r\n    // Ajouter un crneau disponible\r\n    function addAvailability(uint256 timestamp) public {\r\n        // On vite les doublons\r\n        uint256[] storage slots = availabilities[msg.sender];\r\n        for (uint256 i = 0; i < slots.length; i++) {\r\n            if (slots[i] == timestamp) {\r\n                return; // dj ajout\r\n            }\r\n        }\r\n        availabilities[msg.sender].push(timestamp);\r\n    }\r\n\r\n    // Supprimer un crneau\r\n    function removeAvailability(uint256 timestamp) public {\r\n        uint256[] storage slots = availabilities[msg.sender];\r\n        for (uint256 i = 0; i < slots.length; i++) {\r\n            if (slots[i] == timestamp) {\r\n                // remplace l'lment supprim par le dernier\r\n                slots[i] = slots[slots.length - 1];\r\n                slots.pop();\r\n                break;\r\n            }\r\n        }\r\n    }\r\n\r\n    // Rcuprer les crneaux disponibles dans une plage donne\r\n    function getAvailabilitiesBetween(uint256 start, uint256 end) public view returns (uint256[] memory) {\r\n        uint256[] storage all = availabilities[msg.sender];\r\n\r\n        // Compter les lments valides\r\n        uint256 count = 0;\r\n        for (uint256 i = 0; i < all.length; i++) {\r\n            if (all[i] >= start && all[i] <= end) {\r\n                count++;\r\n            }\r\n        }\r\n\r\n        // Remplir le tableau de retour\r\n        uint256[] memory result = new uint256[](count);\r\n        uint256 j = 0;\r\n        for (uint256 i = 0; i < all.length; i++) {\r\n            if (all[i] >= start && all[i] <= end) {\r\n                result[j] = all[i];\r\n                j++;\r\n            }\r\n        }\r\n\r\n        return result;\r\n    }\r\n}\r\n",
  "sourcePath": "C:\\Users\\EliteBook\\BlockHealth\\src\\contracts\\AppointmentManager.sol",
  "compiler": {
    "name": "solc",
    "version": "0.8.19+commit.7dd6d404.Emscripten.clang"
  },
  "schemaVersion": "3.4.16",
  "updatedAt": "2025-05-08T20:41:04.213Z",
  "networkType": "ethereum",
  "devdoc": {
    "kind": "dev",
    "methods": {},
    "version": 1
  },
  "userdoc": {
    "kind": "user",
    "methods": {},
    "version": 1
  }
}