{
  "contractName": "Availability",
  "abi": [
    {
      "anonymous": false,
      "inputs": [
        {
          "indexed": true,
          "internalType": "string",
          "name": "hhNumber",
          "type": "string"
        },
        {
          "indexed": false,
          "internalType": "uint256",
          "name": "index",
          "type": "uint256"
        }
      ],
      "name": "CreneauAjoute",
      "type": "event"
    },
    {
      "anonymous": false,
      "inputs": [
        {
          "indexed": true,
          "internalType": "string",
          "name": "hhNumber",
          "type": "string"
        },
        {
          "indexed": false,
          "internalType": "uint256",
          "name": "index",
          "type": "uint256"
        },
        {
          "indexed": false,
          "internalType": "address",
          "name": "patient",
          "type": "address"
        }
      ],
      "name": "CreneauReserve",
      "type": "event"
    },
    {
      "inputs": [
        {
          "internalType": "string",
          "name": "",
          "type": "string"
        },
        {
          "internalType": "uint256",
          "name": "",
          "type": "uint256"
        }
      ],
      "name": "disponibilites",
      "outputs": [
        {
          "internalType": "uint256",
          "name": "date",
          "type": "uint256"
        },
        {
          "internalType": "uint256",
          "name": "jourSemaine",
          "type": "uint256"
        },
        {
          "internalType": "uint256",
          "name": "debut",
          "type": "uint256"
        },
        {
          "internalType": "uint256",
          "name": "fin",
          "type": "uint256"
        },
        {
          "internalType": "address",
          "name": "patient",
          "type": "address"
        }
      ],
      "stateMutability": "view",
      "type": "function",
      "constant": true
    },
    {
      "inputs": [
        {
          "internalType": "string",
          "name": "",
          "type": "string"
        }
      ],
      "name": "proprietaireCreneaux",
      "outputs": [
        {
          "internalType": "address",
          "name": "",
          "type": "address"
        }
      ],
      "stateMutability": "view",
      "type": "function",
      "constant": true
    },
    {
      "inputs": [
        {
          "internalType": "string",
          "name": "_hhNumber",
          "type": "string"
        },
        {
          "internalType": "uint256",
          "name": "_date",
          "type": "uint256"
        },
        {
          "internalType": "uint256",
          "name": "_jourSemaine",
          "type": "uint256"
        },
        {
          "internalType": "uint256",
          "name": "_debut",
          "type": "uint256"
        },
        {
          "internalType": "uint256",
          "name": "_fin",
          "type": "uint256"
        }
      ],
      "name": "ajouterCreneau",
      "outputs": [],
      "stateMutability": "nonpayable",
      "type": "function"
    },
    {
      "inputs": [
        {
          "internalType": "string",
          "name": "_hhNumber",
          "type": "string"
        }
      ],
      "name": "getDisponibilites",
      "outputs": [
        {
          "components": [
            {
              "internalType": "uint256",
              "name": "date",
              "type": "uint256"
            },
            {
              "internalType": "uint256",
              "name": "jourSemaine",
              "type": "uint256"
            },
            {
              "internalType": "uint256",
              "name": "debut",
              "type": "uint256"
            },
            {
              "internalType": "uint256",
              "name": "fin",
              "type": "uint256"
            },
            {
              "internalType": "address",
              "name": "patient",
              "type": "address"
            }
          ],
          "internalType": "struct Availability.Creneau[]",
          "name": "",
          "type": "tuple[]"
        }
      ],
      "stateMutability": "view",
      "type": "function",
      "constant": true
    },
    {
      "inputs": [
        {
          "internalType": "string",
          "name": "_hhNumber",
          "type": "string"
        },
        {
          "internalType": "uint256",
          "name": "_index",
          "type": "uint256"
        }
      ],
      "name": "reserverCreneau",
      "outputs": [],
      "stateMutability": "nonpayable",
      "type": "function"
    }
  ],
  "bytecode": "0x608060405234801561001057600080fd5b5061114f806100206000396000f3fe608060405234801561001057600080fd5b50600436106100575760003560e01c80632abdf0d81461005c578063a9e43c2c1461008c578063b3361360146100a8578063c8f1213b146100dc578063fe7113b6146100f8575b600080fd5b61007660048036038101906100719190610995565b610128565b6040516100839190610b4f565b60405180910390f35b6100a660048036038101906100a19190610b9d565b610223565b005b6100c260048036038101906100bd9190610c34565b610563565b6040516100d3959493929190610cae565b60405180910390f35b6100f660048036038101906100f19190610c34565b6105ec565b005b610112600480360381019061010d9190610995565b6107f2565b60405161011f9190610d01565b60405180910390f35b606060008260405161013a9190610d8d565b9081526020016040518091039020805480602002602001604051908101604052809291908181526020016000905b8282101561021857838290600052602060002090600502016040518060a0016040529081600082015481526020016001820154815260200160028201548152602001600382015481526020016004820160009054906101000a900473ffffffffffffffffffffffffffffffffffffffff1673ffffffffffffffffffffffffffffffffffffffff1673ffffffffffffffffffffffffffffffffffffffff168152505081526020019060010190610168565b505050509050919050565b600080866040516102349190610d8d565b908152602001604051809103902080549050036102a9573360018660405161025c9190610d8d565b908152602001604051809103902060006101000a81548173ffffffffffffffffffffffffffffffffffffffff021916908373ffffffffffffffffffffffffffffffffffffffff1602179055505b3373ffffffffffffffffffffffffffffffffffffffff166001866040516102d09190610d8d565b908152602001604051809103902060009054906101000a900473ffffffffffffffffffffffffffffffffffffffff1673ffffffffffffffffffffffffffffffffffffffff1614610355576040517f08c379a000000000000000000000000000000000000000000000000000000000815260040161034c90610e27565b60405180910390fd5b808210610397576040517f08c379a000000000000000000000000000000000000000000000000000000000815260040161038e90610eb9565b60405180910390fd5b8184111580156103a75750808411155b6103e6576040517f08c379a00000000000000000000000000000000000000000000000000000000081526004016103dd90610f4b565b60405180910390fd5b60006040518060a00160405280868152602001858152602001848152602001838152602001600073ffffffffffffffffffffffffffffffffffffffff1681525090506000866040516104389190610d8d565b90815260200160405180910390208190806001815401808255809150506001900390600052602060002090600502016000909190919091506000820151816000015560208201518160010155604082015181600201556060820151816003015560808201518160040160006101000a81548173ffffffffffffffffffffffffffffffffffffffff021916908373ffffffffffffffffffffffffffffffffffffffff1602179055505050856040516104ef9190610d8d565b60405180910390207f3e7b96e06eef5aba18ca5049ace4ab72930e18313cd086bf9b5a80e95ad2248d600160008960405161052a9190610d8d565b9081526020016040518091039020805490506105469190610f9a565b6040516105539190610fce565b60405180910390a2505050505050565b600082805160208101820180518482526020830160208501208183528095505050505050818154811061059557600080fd5b9060005260206000209060050201600091509150508060000154908060010154908060020154908060030154908060040160009054906101000a900473ffffffffffffffffffffffffffffffffffffffff16905085565b6000826040516105fc9190610d8d565b908152602001604051809103902080549050811061064f576040517f08c379a000000000000000000000000000000000000000000000000000000000815260040161064690611035565b60405180910390fd5b600073ffffffffffffffffffffffffffffffffffffffff166000836040516106779190610d8d565b9081526020016040518091039020828154811061069757610696611055565b5b906000526020600020906005020160040160009054906101000a900473ffffffffffffffffffffffffffffffffffffffff1673ffffffffffffffffffffffffffffffffffffffff161461071f576040517f08c379a0000000000000000000000000000000000000000000000000000000008152600401610716906110d0565b60405180910390fd5b336000836040516107309190610d8d565b908152602001604051809103902082815481106107505761074f611055565b5b906000526020600020906005020160040160006101000a81548173ffffffffffffffffffffffffffffffffffffffff021916908373ffffffffffffffffffffffffffffffffffffffff160217905550816040516107ad9190610d8d565b60405180910390207f05024f1b4120bb7271d31fb3f21f52b8ba7b419ea09ae44d84a93419a6ba9b0782336040516107e69291906110f0565b60405180910390a25050565b6001818051602081018201805184825260208301602085012081835280955050505050506000915054906101000a900473ffffffffffffffffffffffffffffffffffffffff1681565b6000604051905090565b600080fd5b600080fd5b600080fd5b600080fd5b6000601f19601f8301169050919050565b7f4e487b7100000000000000000000000000000000000000000000000000000000600052604160045260246000fd5b6108a282610859565b810181811067ffffffffffffffff821117156108c1576108c061086a565b5b80604052505050565b60006108d461083b565b90506108e08282610899565b919050565b600067ffffffffffffffff821115610900576108ff61086a565b5b61090982610859565b9050602081019050919050565b82818337600083830152505050565b6000610938610933846108e5565b6108ca565b90508281526020810184848401111561095457610953610854565b5b61095f848285610916565b509392505050565b600082601f83011261097c5761097b61084f565b5b813561098c848260208601610925565b91505092915050565b6000602082840312156109ab576109aa610845565b5b600082013567ffffffffffffffff8111156109c9576109c861084a565b5b6109d584828501610967565b91505092915050565b600081519050919050565b600082825260208201905092915050565b6000819050602082019050919050565b6000819050919050565b610a1d81610a0a565b82525050565b600073ffffffffffffffffffffffffffffffffffffffff82169050919050565b6000610a4e82610a23565b9050919050565b610a5e81610a43565b82525050565b60a082016000820151610a7a6000850182610a14565b506020820151610a8d6020850182610a14565b506040820151610aa06040850182610a14565b506060820151610ab36060850182610a14565b506080820151610ac66080850182610a55565b50505050565b6000610ad88383610a64565b60a08301905092915050565b6000602082019050919050565b6000610afc826109de565b610b0681856109e9565b9350610b11836109fa565b8060005b83811015610b42578151610b298882610acc565b9750610b3483610ae4565b925050600181019050610b15565b5085935050505092915050565b60006020820190508181036000830152610b698184610af1565b905092915050565b610b7a81610a0a565b8114610b8557600080fd5b50565b600081359050610b9781610b71565b92915050565b600080600080600060a08688031215610bb957610bb8610845565b5b600086013567ffffffffffffffff811115610bd757610bd661084a565b5b610be388828901610967565b9550506020610bf488828901610b88565b9450506040610c0588828901610b88565b9350506060610c1688828901610b88565b9250506080610c2788828901610b88565b9150509295509295909350565b60008060408385031215610c4b57610c4a610845565b5b600083013567ffffffffffffffff811115610c6957610c6861084a565b5b610c7585828601610967565b9250506020610c8685828601610b88565b9150509250929050565b610c9981610a0a565b82525050565b610ca881610a43565b82525050565b600060a082019050610cc36000830188610c90565b610cd06020830187610c90565b610cdd6040830186610c90565b610cea6060830185610c90565b610cf76080830184610c9f565b9695505050505050565b6000602082019050610d166000830184610c9f565b92915050565b600081519050919050565b600081905092915050565b60005b83811015610d50578082015181840152602081019050610d35565b60008484015250505050565b6000610d6782610d1c565b610d718185610d27565b9350610d81818560208601610d32565b80840191505092915050565b6000610d998284610d5c565b915081905092915050565b600082825260208201905092915050565b7f5365756c206c652070726f707269657461697265207065757420616a6f75746560008201527f7220646573206372656e65617578000000000000000000000000000000000000602082015250565b6000610e11602e83610da4565b9150610e1c82610db5565b604082019050919050565b60006020820190508181036000830152610e4081610e04565b9050919050565b7f4c2768657572652064652066696e20646f69742065747265206170726573206c60008201527f2768657572652064652064656275740000000000000000000000000000000000602082015250565b6000610ea3602f83610da4565b9150610eae82610e47565b604082019050919050565b60006020820190508181036000830152610ed281610e96565b9050919050565b7f4c61206461746520646f697420636f72726573706f6e6472652061757820637260008201527f656e656175780000000000000000000000000000000000000000000000000000602082015250565b6000610f35602683610da4565b9150610f4082610ed9565b604082019050919050565b60006020820190508181036000830152610f6481610f28565b9050919050565b7f4e487b7100000000000000000000000000000000000000000000000000000000600052601160045260246000fd5b6000610fa582610a0a565b9150610fb083610a0a565b9250828203905081811115610fc857610fc7610f6b565b5b92915050565b6000602082019050610fe36000830184610c90565b92915050565b7f496e64657820696e76616c696465000000000000000000000000000000000000600082015250565b600061101f600e83610da4565b915061102a82610fe9565b602082019050919050565b6000602082019050818103600083015261104e81611012565b9050919050565b7f4e487b7100000000000000000000000000000000000000000000000000000000600052603260045260246000fd5b7f44656a6120726573657276650000000000000000000000000000000000000000600082015250565b60006110ba600c83610da4565b91506110c582611084565b602082019050919050565b600060208201905081810360008301526110e9816110ad565b9050919050565b60006040820190506111056000830185610c90565b6111126020830184610c9f565b939250505056fea2646970667358221220dbcb3851a6267c13f960955ce5c57b4c341f3d0d5457e9fa90a4286458540af064736f6c63430008130033",
  "immutableReferences": {},
  "source": "// SPDX-License-Identifier: MIT\r\npragma solidity ^0.8.19;\r\n\r\ncontract Availability {\r\n    struct Creneau {\r\n        uint date;       // Timestamp de la date (sans l'heure)\r\n        uint jourSemaine; // 0 = dimanche, 1 = lundi, ...\r\n        uint debut;      // Timestamp complet (date + heure dbut)\r\n        uint fin;        // Timestamp complet (date + heure fin)\r\n        address patient; // address(0) si non rserv\r\n    }\r\n\r\n    mapping(string => Creneau[]) public disponibilites;\r\n    mapping(string => address) public proprietaireCreneaux;\r\n\r\n    event CreneauAjoute(string indexed hhNumber, uint index);\r\n    event CreneauReserve(string indexed hhNumber, uint index, address patient);\r\n\r\n    function ajouterCreneau(\r\n        string memory _hhNumber,\r\n        uint _date,       // Date seule (timestamp  minuit)\r\n        uint _jourSemaine,\r\n        uint _debut,      // Heure dbut (timestamp complet)\r\n        uint _fin         // Heure fin (timestamp complet)\r\n    ) public {\r\n        if(disponibilites[_hhNumber].length == 0) {\r\n            proprietaireCreneaux[_hhNumber] = msg.sender;\r\n        }\r\n        \r\n        require(\r\n            proprietaireCreneaux[_hhNumber] == msg.sender,\r\n            \"Seul le proprietaire peut ajouter des creneaux\"\r\n        );\r\n        \r\n        require(_debut < _fin, \"L'heure de fin doit etre apres l'heure de debut\");\r\n        require(\r\n            _date <= _debut && _date <= _fin,\r\n            \"La date doit correspondre aux creneaux\"\r\n        );\r\n\r\n        Creneau memory nouveauCreneau = Creneau(\r\n            _date,\r\n            _jourSemaine,\r\n            _debut,\r\n            _fin,\r\n            address(0)\r\n        );\r\n        \r\n        disponibilites[_hhNumber].push(nouveauCreneau);\r\n        emit CreneauAjoute(_hhNumber, disponibilites[_hhNumber].length - 1);\r\n    }\r\n\r\n    function getDisponibilites(string memory _hhNumber) public view returns (Creneau[] memory) {\r\n        return disponibilites[_hhNumber];\r\n    }\r\n\r\n    function reserverCreneau(string memory _hhNumber, uint _index) public {\r\n        require(_index < disponibilites[_hhNumber].length, \"Index invalide\");\r\n        require(\r\n            disponibilites[_hhNumber][_index].patient == address(0),\r\n            \"Deja reserve\"\r\n        );\r\n        \r\n        disponibilites[_hhNumber][_index].patient = msg.sender;\r\n        emit CreneauReserve(_hhNumber, _index, msg.sender);\r\n    }\r\n}",
  "sourcePath": "C:\\Users\\EliteBook\\BlockHealth\\src\\contracts\\availability.sol",
  "compiler": {
    "name": "solc",
    "version": "0.8.19+commit.7dd6d404.Emscripten.clang"
  },
  "schemaVersion": "3.4.16",
  "updatedAt": "2025-05-07T19:28:56.389Z",
  "networkType": "ethereum",
  "devdoc": {
    "kind": "dev",
    "methods": {},
    "version": 1
  },
  "userdoc": {
    "kind": "user",
    "methods": {},
    "version": 1
  }
}