{
  "contractName": "Availability",
  "abi": [
    {
      "anonymous": false,
      "inputs": [
        {
          "indexed": true,
          "internalType": "string",
          "name": "hhNumber",
          "type": "string"
        },
        {
          "indexed": false,
          "internalType": "uint256",
          "name": "index",
          "type": "uint256"
        }
      ],
      "name": "CreneauAjoute",
      "type": "event"
    },
    {
      "anonymous": false,
      "inputs": [
        {
          "indexed": true,
          "internalType": "string",
          "name": "hhNumber",
          "type": "string"
        },
        {
          "indexed": false,
          "internalType": "uint256",
          "name": "index",
          "type": "uint256"
        },
        {
          "indexed": false,
          "internalType": "address",
          "name": "patient",
          "type": "address"
        }
      ],
      "name": "CreneauReserve",
      "type": "event"
    },
    {
      "inputs": [
        {
          "internalType": "string",
          "name": "",
          "type": "string"
        },
        {
          "internalType": "uint256",
          "name": "",
          "type": "uint256"
        }
      ],
      "name": "disponibilites",
      "outputs": [
        {
          "internalType": "uint256",
          "name": "date",
          "type": "uint256"
        },
        {
          "internalType": "uint256",
          "name": "jourSemaine",
          "type": "uint256"
        },
        {
          "internalType": "uint256",
          "name": "debut",
          "type": "uint256"
        },
        {
          "internalType": "uint256",
          "name": "fin",
          "type": "uint256"
        },
        {
          "internalType": "address",
          "name": "patient",
          "type": "address"
        }
      ],
      "stateMutability": "view",
      "type": "function",
      "constant": true
    },
    {
      "inputs": [
        {
          "internalType": "string",
          "name": "",
          "type": "string"
        }
      ],
      "name": "proprietaireCreneaux",
      "outputs": [
        {
          "internalType": "address",
          "name": "",
          "type": "address"
        }
      ],
      "stateMutability": "view",
      "type": "function",
      "constant": true
    },
    {
      "inputs": [
        {
          "internalType": "string",
          "name": "_hhNumber",
          "type": "string"
        },
        {
          "internalType": "uint256",
          "name": "_date",
          "type": "uint256"
        },
        {
          "internalType": "uint256",
          "name": "_jourSemaine",
          "type": "uint256"
        },
        {
          "internalType": "uint256",
          "name": "_debut",
          "type": "uint256"
        },
        {
          "internalType": "uint256",
          "name": "_fin",
          "type": "uint256"
        }
      ],
      "name": "ajouterCreneau",
      "outputs": [],
      "stateMutability": "nonpayable",
      "type": "function"
    },
    {
      "inputs": [
        {
          "internalType": "string",
          "name": "_hhNumber",
          "type": "string"
        }
      ],
      "name": "getDisponibilites",
      "outputs": [
        {
          "components": [
            {
              "internalType": "uint256",
              "name": "date",
              "type": "uint256"
            },
            {
              "internalType": "uint256",
              "name": "jourSemaine",
              "type": "uint256"
            },
            {
              "internalType": "uint256",
              "name": "debut",
              "type": "uint256"
            },
            {
              "internalType": "uint256",
              "name": "fin",
              "type": "uint256"
            },
            {
              "internalType": "address",
              "name": "patient",
              "type": "address"
            }
          ],
          "internalType": "struct Availability.Creneau[]",
          "name": "",
          "type": "tuple[]"
        }
      ],
      "stateMutability": "view",
      "type": "function",
      "constant": true
    }
  ],
  "bytecode": "0x608060405234801561001057600080fd5b50610df2806100206000396000f3fe608060405234801561001057600080fd5b506004361061004c5760003560e01c80632abdf0d814610051578063a9e43c2c14610081578063b33613601461009d578063fe7113b6146100d1575b600080fd5b61006b60048036038101906100669190610768565b610101565b6040516100789190610922565b60405180910390f35b61009b60048036038101906100969190610970565b6101fc565b005b6100b760048036038101906100b29190610a07565b61053c565b6040516100c8959493929190610a81565b60405180910390f35b6100eb60048036038101906100e69190610768565b6105c5565b6040516100f89190610ad4565b60405180910390f35b60606000826040516101139190610b60565b9081526020016040518091039020805480602002602001604051908101604052809291908181526020016000905b828210156101f157838290600052602060002090600502016040518060a0016040529081600082015481526020016001820154815260200160028201548152602001600382015481526020016004820160009054906101000a900473ffffffffffffffffffffffffffffffffffffffff1673ffffffffffffffffffffffffffffffffffffffff1673ffffffffffffffffffffffffffffffffffffffff168152505081526020019060010190610141565b505050509050919050565b6000808660405161020d9190610b60565b9081526020016040518091039020805490500361028257336001866040516102359190610b60565b908152602001604051809103902060006101000a81548173ffffffffffffffffffffffffffffffffffffffff021916908373ffffffffffffffffffffffffffffffffffffffff1602179055505b3373ffffffffffffffffffffffffffffffffffffffff166001866040516102a99190610b60565b908152602001604051809103902060009054906101000a900473ffffffffffffffffffffffffffffffffffffffff1673ffffffffffffffffffffffffffffffffffffffff161461032e576040517f08c379a000000000000000000000000000000000000000000000000000000000815260040161032590610bfa565b60405180910390fd5b808210610370576040517f08c379a000000000000000000000000000000000000000000000000000000000815260040161036790610c8c565b60405180910390fd5b8184111580156103805750808411155b6103bf576040517f08c379a00000000000000000000000000000000000000000000000000000000081526004016103b690610d1e565b60405180910390fd5b60006040518060a00160405280868152602001858152602001848152602001838152602001600073ffffffffffffffffffffffffffffffffffffffff1681525090506000866040516104119190610b60565b90815260200160405180910390208190806001815401808255809150506001900390600052602060002090600502016000909190919091506000820151816000015560208201518160010155604082015181600201556060820151816003015560808201518160040160006101000a81548173ffffffffffffffffffffffffffffffffffffffff021916908373ffffffffffffffffffffffffffffffffffffffff1602179055505050856040516104c89190610b60565b60405180910390207f3e7b96e06eef5aba18ca5049ace4ab72930e18313cd086bf9b5a80e95ad2248d60016000896040516105039190610b60565b90815260200160405180910390208054905061051f9190610d6d565b60405161052c9190610da1565b60405180910390a2505050505050565b600082805160208101820180518482526020830160208501208183528095505050505050818154811061056e57600080fd5b9060005260206000209060050201600091509150508060000154908060010154908060020154908060030154908060040160009054906101000a900473ffffffffffffffffffffffffffffffffffffffff16905085565b6001818051602081018201805184825260208301602085012081835280955050505050506000915054906101000a900473ffffffffffffffffffffffffffffffffffffffff1681565b6000604051905090565b600080fd5b600080fd5b600080fd5b600080fd5b6000601f19601f8301169050919050565b7f4e487b7100000000000000000000000000000000000000000000000000000000600052604160045260246000fd5b6106758261062c565b810181811067ffffffffffffffff821117156106945761069361063d565b5b80604052505050565b60006106a761060e565b90506106b3828261066c565b919050565b600067ffffffffffffffff8211156106d3576106d261063d565b5b6106dc8261062c565b9050602081019050919050565b82818337600083830152505050565b600061070b610706846106b8565b61069d565b90508281526020810184848401111561072757610726610627565b5b6107328482856106e9565b509392505050565b600082601f83011261074f5761074e610622565b5b813561075f8482602086016106f8565b91505092915050565b60006020828403121561077e5761077d610618565b5b600082013567ffffffffffffffff81111561079c5761079b61061d565b5b6107a88482850161073a565b91505092915050565b600081519050919050565b600082825260208201905092915050565b6000819050602082019050919050565b6000819050919050565b6107f0816107dd565b82525050565b600073ffffffffffffffffffffffffffffffffffffffff82169050919050565b6000610821826107f6565b9050919050565b61083181610816565b82525050565b60a08201600082015161084d60008501826107e7565b50602082015161086060208501826107e7565b50604082015161087360408501826107e7565b50606082015161088660608501826107e7565b5060808201516108996080850182610828565b50505050565b60006108ab8383610837565b60a08301905092915050565b6000602082019050919050565b60006108cf826107b1565b6108d981856107bc565b93506108e4836107cd565b8060005b838110156109155781516108fc888261089f565b9750610907836108b7565b9250506001810190506108e8565b5085935050505092915050565b6000602082019050818103600083015261093c81846108c4565b905092915050565b61094d816107dd565b811461095857600080fd5b50565b60008135905061096a81610944565b92915050565b600080600080600060a0868803121561098c5761098b610618565b5b600086013567ffffffffffffffff8111156109aa576109a961061d565b5b6109b68882890161073a565b95505060206109c78882890161095b565b94505060406109d88882890161095b565b93505060606109e98882890161095b565b92505060806109fa8882890161095b565b9150509295509295909350565b60008060408385031215610a1e57610a1d610618565b5b600083013567ffffffffffffffff811115610a3c57610a3b61061d565b5b610a488582860161073a565b9250506020610a598582860161095b565b9150509250929050565b610a6c816107dd565b82525050565b610a7b81610816565b82525050565b600060a082019050610a966000830188610a63565b610aa36020830187610a63565b610ab06040830186610a63565b610abd6060830185610a63565b610aca6080830184610a72565b9695505050505050565b6000602082019050610ae96000830184610a72565b92915050565b600081519050919050565b600081905092915050565b60005b83811015610b23578082015181840152602081019050610b08565b60008484015250505050565b6000610b3a82610aef565b610b448185610afa565b9350610b54818560208601610b05565b80840191505092915050565b6000610b6c8284610b2f565b915081905092915050565b600082825260208201905092915050565b7f5365756c206c652070726f707269657461697265207065757420616a6f75746560008201527f7220646573206372656e65617578000000000000000000000000000000000000602082015250565b6000610be4602e83610b77565b9150610bef82610b88565b604082019050919050565b60006020820190508181036000830152610c1381610bd7565b9050919050565b7f4c2768657572652064652066696e20646f69742065747265206170726573206c60008201527f2768657572652064652064656275740000000000000000000000000000000000602082015250565b6000610c76602f83610b77565b9150610c8182610c1a565b604082019050919050565b60006020820190508181036000830152610ca581610c69565b9050919050565b7f4c61206461746520646f697420636f72726573706f6e6472652061757820637260008201527f656e656175780000000000000000000000000000000000000000000000000000602082015250565b6000610d08602683610b77565b9150610d1382610cac565b604082019050919050565b60006020820190508181036000830152610d3781610cfb565b9050919050565b7f4e487b7100000000000000000000000000000000000000000000000000000000600052601160045260246000fd5b6000610d78826107dd565b9150610d83836107dd565b9250828203905081811115610d9b57610d9a610d3e565b5b92915050565b6000602082019050610db66000830184610a63565b9291505056fea264697066735822122092618cbf0cffafcd35d6292b8c31cb74a5d0f164d73e0049ad4b1fbddd3e352064736f6c63430008130033",
  "immutableReferences": {},
  "source": "// SPDX-License-Identifier: MIT\r\npragma solidity ^0.8.19;\r\n\r\ncontract Availability {\r\n    struct Creneau {\r\n        uint date;       // Timestamp de la date (sans l'heure)\r\n        uint jourSemaine; // 0 = dimanche, 1 = lundi, ...\r\n        uint debut;      // Timestamp complet (date + heure dbut)\r\n        uint fin;        // Timestamp complet (date + heure fin)\r\n        address patient; // address(0) si non rserv\r\n    }\r\n\r\n    mapping(string => Creneau[]) public disponibilites;\r\n    mapping(string => address) public proprietaireCreneaux;\r\n\r\n    event CreneauAjoute(string indexed hhNumber, uint index);\r\n    event CreneauReserve(string indexed hhNumber, uint index, address patient);\r\n\r\n    function ajouterCreneau(\r\n        string memory _hhNumber,\r\n        uint _date,       // Date seule (timestamp  minuit)\r\n        uint _jourSemaine,\r\n        uint _debut,      // Heure dbut (timestamp complet)\r\n        uint _fin         // Heure fin (timestamp complet)\r\n    ) public {\r\n        if(disponibilites[_hhNumber].length == 0) {\r\n            proprietaireCreneaux[_hhNumber] = msg.sender;\r\n        }\r\n        \r\n        require(\r\n            proprietaireCreneaux[_hhNumber] == msg.sender,\r\n            \"Seul le proprietaire peut ajouter des creneaux\"\r\n        );\r\n        \r\n        require(_debut < _fin, \"L'heure de fin doit etre apres l'heure de debut\");\r\n        require(\r\n            _date <= _debut && _date <= _fin,\r\n            \"La date doit correspondre aux creneaux\"\r\n        );\r\n\r\n        Creneau memory nouveauCreneau = Creneau(\r\n            _date,\r\n            _jourSemaine,\r\n            _debut,\r\n            _fin,\r\n            address(0)\r\n        );\r\n        \r\n        disponibilites[_hhNumber].push(nouveauCreneau);\r\n        emit CreneauAjoute(_hhNumber, disponibilites[_hhNumber].length - 1);\r\n    }\r\n\r\n    function getDisponibilites(string memory _hhNumber) public view returns (Creneau[] memory) {\r\n        return disponibilites[_hhNumber];\r\n    }\r\n\r\n   \r\n  \r\n}",
  "sourcePath": "C:\\Users\\EliteBook\\BlockHealth\\src\\contracts\\availability.sol",
  "compiler": {
    "name": "solc",
    "version": "0.8.19+commit.7dd6d404.Emscripten.clang"
  },
  "schemaVersion": "3.4.16",
  "updatedAt": "2025-05-08T20:41:04.963Z",
  "networkType": "ethereum",
  "devdoc": {
    "kind": "dev",
    "methods": {},
    "version": 1
  },
  "userdoc": {
    "kind": "user",
    "methods": {},
    "version": 1
  }
}