{
  "contractName": "Availability",
  "abi": [
    {
      "inputs": [
        {
          "internalType": "address",
          "name": "_doctorRegistrationAddress",
          "type": "address"
        }
      ],
      "stateMutability": "nonpayable",
      "type": "constructor"
    },
    {
      "anonymous": false,
      "inputs": [
        {
          "indexed": true,
          "internalType": "string",
          "name": "specialization",
          "type": "string"
        },
        {
          "indexed": false,
          "internalType": "uint256",
          "name": "index",
          "type": "uint256"
        }
      ],
      "name": "CreneauAjoute",
      "type": "event"
    },
    {
      "anonymous": false,
      "inputs": [
        {
          "indexed": true,
          "internalType": "string",
          "name": "specialization",
          "type": "string"
        },
        {
          "indexed": false,
          "internalType": "uint256",
          "name": "index",
          "type": "uint256"
        },
        {
          "indexed": false,
          "internalType": "address",
          "name": "patient",
          "type": "address"
        },
        {
          "indexed": false,
          "internalType": "string",
          "name": "patientHhNumber",
          "type": "string"
        }
      ],
      "name": "CreneauReserve",
      "type": "event"
    },
    {
      "anonymous": false,
      "inputs": [
        {
          "indexed": true,
          "internalType": "string",
          "name": "specialization",
          "type": "string"
        },
        {
          "indexed": false,
          "internalType": "uint256",
          "name": "timestampDebut",
          "type": "uint256"
        },
        {
          "indexed": false,
          "internalType": "string",
          "name": "patientHhNumber",
          "type": "string"
        }
      ],
      "name": "ReservationCancelled",
      "type": "event"
    },
    {
      "anonymous": false,
      "inputs": [
        {
          "indexed": true,
          "internalType": "string",
          "name": "specialization",
          "type": "string"
        },
        {
          "indexed": false,
          "internalType": "uint256",
          "name": "timestampDebut",
          "type": "uint256"
        },
        {
          "indexed": false,
          "internalType": "string",
          "name": "patientHhNumber",
          "type": "string"
        }
      ],
      "name": "ReservationConfirmed",
      "type": "event"
    },
    {
      "inputs": [
        {
          "internalType": "string",
          "name": "",
          "type": "string"
        },
        {
          "internalType": "uint256",
          "name": "",
          "type": "uint256"
        }
      ],
      "name": "disponibilites",
      "outputs": [
        {
          "internalType": "uint256",
          "name": "date",
          "type": "uint256"
        },
        {
          "internalType": "uint256",
          "name": "jourSemaine",
          "type": "uint256"
        },
        {
          "internalType": "uint256",
          "name": "debut",
          "type": "uint256"
        },
        {
          "internalType": "uint256",
          "name": "fin",
          "type": "uint256"
        },
        {
          "internalType": "uint256",
          "name": "dureeConsultation",
          "type": "uint256"
        }
      ],
      "stateMutability": "view",
      "type": "function",
      "constant": true
    },
    {
      "inputs": [
        {
          "internalType": "bytes32",
          "name": "",
          "type": "bytes32"
        }
      ],
      "name": "isSlotTaken",
      "outputs": [
        {
          "internalType": "bool",
          "name": "",
          "type": "bool"
        }
      ],
      "stateMutability": "view",
      "type": "function",
      "constant": true
    },
    {
      "inputs": [
        {
          "internalType": "bytes32",
          "name": "",
          "type": "bytes32"
        }
      ],
      "name": "slotPatient",
      "outputs": [
        {
          "internalType": "address",
          "name": "",
          "type": "address"
        }
      ],
      "stateMutability": "view",
      "type": "function",
      "constant": true
    },
    {
      "inputs": [
        {
          "internalType": "bytes32",
          "name": "",
          "type": "bytes32"
        }
      ],
      "name": "slotPatientHhNumber",
      "outputs": [
        {
          "internalType": "string",
          "name": "",
          "type": "string"
        }
      ],
      "stateMutability": "view",
      "type": "function",
      "constant": true
    },
    {
      "inputs": [
        {
          "internalType": "bytes32",
          "name": "",
          "type": "bytes32"
        }
      ],
      "name": "slotStatus",
      "outputs": [
        {
          "internalType": "enum Availability.ReservationStatus",
          "name": "",
          "type": "uint8"
        }
      ],
      "stateMutability": "view",
      "type": "function",
      "constant": true
    },
    {
      "inputs": [
        {
          "internalType": "string",
          "name": "specialization",
          "type": "string"
        },
        {
          "internalType": "uint256",
          "name": "_date",
          "type": "uint256"
        },
        {
          "internalType": "uint256",
          "name": "_jourSemaine",
          "type": "uint256"
        },
        {
          "internalType": "uint256",
          "name": "_debut",
          "type": "uint256"
        },
        {
          "internalType": "uint256",
          "name": "_fin",
          "type": "uint256"
        },
        {
          "internalType": "uint256",
          "name": "_dureeConsultation",
          "type": "uint256"
        }
      ],
      "name": "ajouterCreneau",
      "outputs": [],
      "stateMutability": "nonpayable",
      "type": "function"
    },
    {
      "inputs": [
        {
          "internalType": "string",
          "name": "specialization",
          "type": "string"
        }
      ],
      "name": "getDisponibilites",
      "outputs": [
        {
          "components": [
            {
              "internalType": "uint256",
              "name": "date",
              "type": "uint256"
            },
            {
              "internalType": "uint256",
              "name": "jourSemaine",
              "type": "uint256"
            },
            {
              "internalType": "uint256",
              "name": "debut",
              "type": "uint256"
            },
            {
              "internalType": "uint256",
              "name": "fin",
              "type": "uint256"
            },
            {
              "internalType": "uint256",
              "name": "dureeConsultation",
              "type": "uint256"
            }
          ],
          "internalType": "struct Availability.Creneau[]",
          "name": "",
          "type": "tuple[]"
        }
      ],
      "stateMutability": "view",
      "type": "function",
      "constant": true
    },
    {
      "inputs": [
        {
          "internalType": "string",
          "name": "specialization",
          "type": "string"
        },
        {
          "internalType": "uint256",
          "name": "timestampDebut",
          "type": "uint256"
        },
        {
          "internalType": "string",
          "name": "patientHhNumber",
          "type": "string"
        }
      ],
      "name": "reserverCreneau",
      "outputs": [],
      "stateMutability": "nonpayable",
      "type": "function"
    },
    {
      "inputs": [
        {
          "internalType": "string",
          "name": "specialization",
          "type": "string"
        },
        {
          "internalType": "uint256",
          "name": "timestampDebut",
          "type": "uint256"
        }
      ],
      "name": "confirmReservation",
      "outputs": [],
      "stateMutability": "nonpayable",
      "type": "function"
    },
    {
      "inputs": [
        {
          "internalType": "string",
          "name": "specialization",
          "type": "string"
        },
        {
          "internalType": "uint256",
          "name": "timestampDebut",
          "type": "uint256"
        }
      ],
      "name": "cancelReservation",
      "outputs": [],
      "stateMutability": "nonpayable",
      "type": "function"
    },
    {
      "inputs": [
        {
          "internalType": "string",
          "name": "specialization",
          "type": "string"
        },
        {
          "internalType": "uint256",
          "name": "timestampDebut",
          "type": "uint256"
        }
      ],
      "name": "isCreneauReserve",
      "outputs": [
        {
          "internalType": "bool",
          "name": "",
          "type": "bool"
        }
      ],
      "stateMutability": "view",
      "type": "function",
      "constant": true
    },
    {
      "inputs": [
        {
          "internalType": "string",
          "name": "specialization",
          "type": "string"
        }
      ],
      "name": "getReservations",
      "outputs": [
        {
          "components": [
            {
              "internalType": "uint256",
              "name": "creneauIndex",
              "type": "uint256"
            },
            {
              "internalType": "uint256",
              "name": "timestampDebut",
              "type": "uint256"
            },
            {
              "internalType": "address",
              "name": "patient",
              "type": "address"
            },
            {
              "internalType": "string",
              "name": "patientHhNumber",
              "type": "string"
            },
            {
              "internalType": "enum Availability.ReservationStatus",
              "name": "status",
              "type": "uint8"
            }
          ],
          "internalType": "struct Availability.Reservation[]",
          "name": "",
          "type": "tuple[]"
        }
      ],
      "stateMutability": "view",
      "type": "function",
      "constant": true
    },
    {
      "inputs": [
        {
          "internalType": "string",
          "name": "specialization",
          "type": "string"
        }
      ],
      "name": "resetDisponibilites",
      "outputs": [],
      "stateMutability": "nonpayable",
      "type": "function"
    }
  ],
  "bytecode": "0x60806040523480156200001157600080fd5b50604051620030eb380380620030eb8339818101604052810190620000379190620000e9565b80600560006101000a81548173ffffffffffffffffffffffffffffffffffffffff021916908373ffffffffffffffffffffffffffffffffffffffff160217905550506200011b565b600080fd5b600073ffffffffffffffffffffffffffffffffffffffff82169050919050565b6000620000b18262000084565b9050919050565b620000c381620000a4565b8114620000cf57600080fd5b50565b600081519050620000e381620000b8565b92915050565b6000602082840312156200010257620001016200007f565b5b60006200011284828501620000d2565b91505092915050565b612fc0806200012b6000396000f3fe608060405234801561001057600080fd5b50600436106100cf5760003560e01c80637d19116a1161008c578063c7c4c3c111610066578063c7c4c3c11461024c578063cfbb9afa14610268578063e90ca74514610298578063fdfc230f146102c8576100cf565b80637d19116a146101cc578063b3361360146101fc578063bd92ad1514610230576100cf565b806322f8c895146100d45780632abdf0d8146101045780632c52f03e1461013457806349e2ed36146101505780636a6bb8d41461018057806378d462361461019c575b600080fd5b6100ee60048036038101906100e99190611b63565b6102e4565b6040516100fb9190611bab565b60405180910390f35b61011e60048036038101906101199190611d0c565b610304565b60405161012b9190611e85565b60405180910390f35b61014e60048036038101906101499190611ed3565b6103b3565b005b61016a60048036038101906101659190611b63565b610646565b6040516101779190611f70565b60405180910390f35b61019a60048036038101906101959190611ed3565b610679565b005b6101b660048036038101906101b19190611b63565b61090c565b6040516101c39190612002565b60405180910390f35b6101e660048036038101906101e19190611d0c565b61092c565b6040516101f391906121f2565b60405180910390f35b61021660048036038101906102119190611ed3565b610e6b565b604051610227959493929190612223565b60405180910390f35b61024a60048036038101906102459190612276565b610ed4565b005b61026660048036038101906102619190611d0c565b6111ed565b005b610282600480360381019061027d9190611b63565b6114ad565b60405161028f919061234b565b60405180910390f35b6102b260048036038101906102ad9190611ed3565b61154d565b6040516102bf9190611bab565b60405180910390f35b6102e260048036038101906102dd919061236d565b6115a5565b005b60016020528060005260406000206000915054906101000a900460ff1681565b60606000826040516103169190612452565b9081526020016040518091039020805480602002602001604051908101604052809291908181526020016000905b828210156103a857838290600052602060002090600502016040518060a00160405290816000820154815260200160018201548152602001600282015481526020016003820154815260200160048201548152505081526020019060010190610344565b505050509050919050565b600560009054906101000a900473ffffffffffffffffffffffffffffffffffffffff1673ffffffffffffffffffffffffffffffffffffffff1663c4029c6533846040518363ffffffff1660e01b8152600401610410929190612469565b602060405180830381865afa15801561042d573d6000803e3d6000fd5b505050506040513d601f19601f8201168201806040525081019061045191906124c5565b610490576040517f08c379a000000000000000000000000000000000000000000000000000000000815260040161048790612564565b60405180910390fd5b600082826040516020016104a59291906125a5565b6040516020818303038152906040528051906020012090506001600082815260200190815260200160002060009054906101000a900460ff1661051d576040517f08c379a000000000000000000000000000000000000000000000000000000000815260040161051490612619565b60405180910390fd5b6000600281111561053157610530611f8b565b5b6004600083815260200190815260200160002060009054906101000a900460ff16600281111561056457610563611f8b565b5b146105a4576040517f08c379a000000000000000000000000000000000000000000000000000000000815260040161059b90612685565b60405180910390fd5b60026004600083815260200190815260200160002060006101000a81548160ff021916908360028111156105db576105da611f8b565b5b0217905550826040516105ee9190612452565b60405180910390207f4c92edb0cbfb645f52339414f70c5392e1687e82b6ac9da7e37c3235d790342d836003600085815260200190815260200160002060405161063992919061279e565b60405180910390a2505050565b60026020528060005260406000206000915054906101000a900473ffffffffffffffffffffffffffffffffffffffff1681565b600560009054906101000a900473ffffffffffffffffffffffffffffffffffffffff1673ffffffffffffffffffffffffffffffffffffffff1663c4029c6533846040518363ffffffff1660e01b81526004016106d6929190612469565b602060405180830381865afa1580156106f3573d6000803e3d6000fd5b505050506040513d601f19601f8201168201806040525081019061071791906124c5565b610756576040517f08c379a000000000000000000000000000000000000000000000000000000000815260040161074d90612564565b60405180910390fd5b6000828260405160200161076b9291906125a5565b6040516020818303038152906040528051906020012090506001600082815260200190815260200160002060009054906101000a900460ff166107e3576040517f08c379a00000000000000000000000000000000000000000000000000000000081526004016107da90612619565b60405180910390fd5b600060028111156107f7576107f6611f8b565b5b6004600083815260200190815260200160002060009054906101000a900460ff16600281111561082a57610829611f8b565b5b1461086a576040517f08c379a000000000000000000000000000000000000000000000000000000000815260040161086190612685565b60405180910390fd5b60016004600083815260200190815260200160002060006101000a81548160ff021916908360028111156108a1576108a0611f8b565b5b0217905550826040516108b49190612452565b60405180910390207fe2904e57b4b0593236946bfc6121ebaf388d83fefb258a5f0e5b74bd867668d683600360008581526020019081526020016000206040516108ff92919061279e565b60405180910390a2505050565b60046020528060005260406000206000915054906101000a900460ff1681565b6060600560009054906101000a900473ffffffffffffffffffffffffffffffffffffffff1673ffffffffffffffffffffffffffffffffffffffff1663c4029c6533846040518363ffffffff1660e01b815260040161098b929190612469565b602060405180830381865afa1580156109a8573d6000803e3d6000fd5b505050506040513d601f19601f820116820180604052508101906109cc91906124c5565b610a0b576040517f08c379a0000000000000000000000000000000000000000000000000000000008152600401610a0290612564565b60405180910390fd5b6000805b600084604051610a1f9190612452565b908152602001604051809103902080549050811015610b5b5760008085604051610a499190612452565b90815260200160405180910390208281548110610a6957610a686127ce565b5b90600052602060002090600502016040518060a00160405290816000820154815260200160018201548152602001600282015481526020016003820154815260200160048201548152505090506000816040015190505b8160600151811015610b465760008682604051602001610ae19291906125a5565b6040516020818303038152906040528051906020012090506001600082815260200190815260200160002060009054906101000a900460ff1615610b2e578480610b2a9061282c565b9550505b50816080015181610b3f9190612874565b9050610ac0565b50508080610b539061282c565b915050610a0f565b5060008167ffffffffffffffff811115610b7857610b77611be1565b5b604051908082528060200260200182016040528015610bb157816020015b610b9e611a02565b815260200190600190039081610b965790505b5090506000805b600086604051610bc89190612452565b908152602001604051809103902080549050811015610e5f5760008087604051610bf29190612452565b90815260200160405180910390208281548110610c1257610c116127ce565b5b90600052602060002090600502016040518060a00160405290816000820154815260200160018201548152602001600282015481526020016003820154815260200160048201548152505090506000816040015190505b8160600151811015610e4a5760008882604051602001610c8a9291906125a5565b6040516020818303038152906040528051906020012090506001600082815260200190815260200160002060009054906101000a900460ff1615610e32576040518060a001604052808581526020018381526020016002600084815260200190815260200160002060009054906101000a900473ffffffffffffffffffffffffffffffffffffffff1673ffffffffffffffffffffffffffffffffffffffff168152602001600360008481526020019081526020016000208054610d4c906126d4565b80601f0160208091040260200160405190810160405280929190818152602001828054610d78906126d4565b8015610dc55780601f10610d9a57610100808354040283529160200191610dc5565b820191906000526020600020905b815481529060010190602001808311610da857829003601f168201915b505050505081526020016004600084815260200190815260200160002060009054906101000a900460ff166002811115610e0257610e01611f8b565b5b815250868681518110610e1857610e176127ce565b5b60200260200101819052508480610e2e9061282c565b9550505b50816080015181610e439190612874565b9050610c69565b50508080610e579061282c565b915050610bb8565b50819350505050919050565b6000828051602081018201805184825260208301602085012081835280955050505050508181548110610e9d57600080fd5b9060005260206000209060050201600091509150508060000154908060010154908060020154908060030154908060040154905085565b60008080600090505b600086604051610eed9190612452565b908152602001604051809103902080549050811015610feb5760008087604051610f179190612452565b90815260200160405180910390208281548110610f3757610f366127ce565b5b90600052602060002090600502016040518060a001604052908160008201548152602001600182015481526020016002820154815260200160038201548152602001600482015481525050905080604001518610158015610f9b5750806060015186105b8015610fc5575060008160800151826040015188610fb991906128a8565b610fc3919061290b565b145b15610fd7576001935081925050610feb565b508080610fe39061282c565b915050610edd565b508161102c576040517f08c379a000000000000000000000000000000000000000000000000000000000815260040161102390612988565b60405180910390fd5b600085856040516020016110419291906125a5565b6040516020818303038152906040528051906020012090506001600082815260200190815260200160002060009054906101000a900460ff16156110ba576040517f08c379a00000000000000000000000000000000000000000000000000000000081526004016110b1906129f4565b60405180910390fd5b600180600083815260200190815260200160002060006101000a81548160ff021916908315150217905550336002600083815260200190815260200160002060006101000a81548173ffffffffffffffffffffffffffffffffffffffff021916908373ffffffffffffffffffffffffffffffffffffffff160217905550836003600083815260200190815260200160002090816111579190612bab565b5060006004600083815260200190815260200160002060006101000a81548160ff0219169083600281111561118f5761118e611f8b565b5b0217905550856040516111a29190612452565b60405180910390207f070da3be8c6bf94b5392641af26cff580b3b73099de8eada560e40a78df988f58333876040516111dd93929190612c7d565b60405180910390a2505050505050565b600560009054906101000a900473ffffffffffffffffffffffffffffffffffffffff1673ffffffffffffffffffffffffffffffffffffffff1663c4029c6533836040518363ffffffff1660e01b815260040161124a929190612469565b602060405180830381865afa158015611267573d6000803e3d6000fd5b505050506040513d601f19601f8201168201806040525081019061128b91906124c5565b6112ca576040517f08c379a00000000000000000000000000000000000000000000000000000000081526004016112c190612564565b60405180910390fd5b60005b6000826040516112dd9190612452565b90815260200160405180910390208054905081101561147f57600080836040516113079190612452565b90815260200160405180910390208281548110611327576113266127ce565b5b90600052602060002090600502016040518060a00160405290816000820154815260200160018201548152602001600282015481526020016003820154815260200160048201548152505090506000816040015190505b816060015181101561146a576000848260405160200161139f9291906125a5565b6040516020818303038152906040528051906020012090506001600082815260200190815260200160002060006101000a81549060ff02191690556002600082815260200190815260200160002060006101000a81549073ffffffffffffffffffffffffffffffffffffffff021916905560036000828152602001908152602001600020600061142f9190611a59565b6004600082815260200190815260200160002060006101000a81549060ff0219169055508160800151816114639190612874565b905061137e565b505080806114779061282c565b9150506112cd565b506000816040516114909190612452565b908152602001604051809103902060006114aa9190611a99565b50565b600360205280600052604060002060009150905080546114cc906126d4565b80601f01602080910402602001604051908101604052809291908181526020018280546114f8906126d4565b80156115455780601f1061151a57610100808354040283529160200191611545565b820191906000526020600020905b81548152906001019060200180831161152857829003601f168201915b505050505081565b60008083836040516020016115639291906125a5565b6040516020818303038152906040528051906020012090506001600082815260200190815260200160002060009054906101000a900460ff1691505092915050565b600560009054906101000a900473ffffffffffffffffffffffffffffffffffffffff1673ffffffffffffffffffffffffffffffffffffffff1663c4029c6533886040518363ffffffff1660e01b8152600401611602929190612469565b602060405180830381865afa15801561161f573d6000803e3d6000fd5b505050506040513d601f19601f8201168201806040525081019061164391906124c5565b611682576040517f08c379a000000000000000000000000000000000000000000000000000000000815260040161167990612564565b60405180910390fd5b8183106116c4576040517f08c379a00000000000000000000000000000000000000000000000000000000081526004016116bb90612d2d565b60405180910390fd5b8483101580156116e2575062015180856116de9190612874565b8211155b611721576040517f08c379a000000000000000000000000000000000000000000000000000000000815260040161171890612dbf565b60405180910390fd5b60008111611764576040517f08c379a000000000000000000000000000000000000000000000000000000000815260040161175b90612e2b565b60405180910390fd5b61a8c0838361177391906128a8565b11156117b4576040517f08c379a00000000000000000000000000000000000000000000000000000000081526004016117ab90612ebd565b60405180910390fd5b60005b6000876040516117c79190612452565b9081526020016040518091039020805490508110156118d757600080886040516117f19190612452565b90815260200160405180910390208281548110611811576118106127ce565b5b90600052602060002090600502016040518060a00160405290816000820154815260200160018201548152602001600282015481526020016003820154815260200160048201548152505090508681600001511415806118845750806040015184111580611883575080606001518510155b5b6118c3576040517f08c379a00000000000000000000000000000000000000000000000000000000081526004016118ba90612f4f565b60405180910390fd5b5080806118cf9061282c565b9150506117b7565b5060006040518060a001604052808781526020018681526020018581526020018481526020018381525090506000876040516119139190612452565b9081526020016040518091039020819080600181540180825580915050600190039060005260206000209060050201600090919091909150600082015181600001556020820151816001015560408201518160020155606082015181600301556080820151816004015550508660405161198d9190612452565b60405180910390207f3e7b96e06eef5aba18ca5049ace4ab72930e18313cd086bf9b5a80e95ad2248d600160008a6040516119c89190612452565b9081526020016040518091039020805490506119e491906128a8565b6040516119f19190612f6f565b60405180910390a250505050505050565b6040518060a001604052806000815260200160008152602001600073ffffffffffffffffffffffffffffffffffffffff1681526020016060815260200160006002811115611a5357611a52611f8b565b5b81525090565b508054611a65906126d4565b6000825580601f10611a775750611a96565b601f016020900490600052602060002090810190611a959190611abd565b5b50565b5080546000825560050290600052602060002090810190611aba9190611ada565b50565b5b80821115611ad6576000816000905550600101611abe565b5090565b5b80821115611b1557600080820160009055600182016000905560028201600090556003820160009055600482016000905550600501611adb565b5090565b6000604051905090565b600080fd5b600080fd5b6000819050919050565b611b4081611b2d565b8114611b4b57600080fd5b50565b600081359050611b5d81611b37565b92915050565b600060208284031215611b7957611b78611b23565b5b6000611b8784828501611b4e565b91505092915050565b60008115159050919050565b611ba581611b90565b82525050565b6000602082019050611bc06000830184611b9c565b92915050565b600080fd5b600080fd5b6000601f19601f8301169050919050565b7f4e487b7100000000000000000000000000000000000000000000000000000000600052604160045260246000fd5b611c1982611bd0565b810181811067ffffffffffffffff82111715611c3857611c37611be1565b5b80604052505050565b6000611c4b611b19565b9050611c578282611c10565b919050565b600067ffffffffffffffff821115611c7757611c76611be1565b5b611c8082611bd0565b9050602081019050919050565b82818337600083830152505050565b6000611caf611caa84611c5c565b611c41565b905082815260208101848484011115611ccb57611cca611bcb565b5b611cd6848285611c8d565b509392505050565b600082601f830112611cf357611cf2611bc6565b5b8135611d03848260208601611c9c565b91505092915050565b600060208284031215611d2257611d21611b23565b5b600082013567ffffffffffffffff811115611d4057611d3f611b28565b5b611d4c84828501611cde565b91505092915050565b600081519050919050565b600082825260208201905092915050565b6000819050602082019050919050565b6000819050919050565b611d9481611d81565b82525050565b60a082016000820151611db06000850182611d8b565b506020820151611dc36020850182611d8b565b506040820151611dd66040850182611d8b565b506060820151611de96060850182611d8b565b506080820151611dfc6080850182611d8b565b50505050565b6000611e0e8383611d9a565b60a08301905092915050565b6000602082019050919050565b6000611e3282611d55565b611e3c8185611d60565b9350611e4783611d71565b8060005b83811015611e78578151611e5f8882611e02565b9750611e6a83611e1a565b925050600181019050611e4b565b5085935050505092915050565b60006020820190508181036000830152611e9f8184611e27565b905092915050565b611eb081611d81565b8114611ebb57600080fd5b50565b600081359050611ecd81611ea7565b92915050565b60008060408385031215611eea57611ee9611b23565b5b600083013567ffffffffffffffff811115611f0857611f07611b28565b5b611f1485828601611cde565b9250506020611f2585828601611ebe565b9150509250929050565b600073ffffffffffffffffffffffffffffffffffffffff82169050919050565b6000611f5a82611f2f565b9050919050565b611f6a81611f4f565b82525050565b6000602082019050611f856000830184611f61565b92915050565b7f4e487b7100000000000000000000000000000000000000000000000000000000600052602160045260246000fd5b60038110611fcb57611fca611f8b565b5b50565b6000819050611fdc82611fba565b919050565b6000611fec82611fce565b9050919050565b611ffc81611fe1565b82525050565b60006020820190506120176000830184611ff3565b92915050565b600081519050919050565b600082825260208201905092915050565b6000819050602082019050919050565b61205281611f4f565b82525050565b600081519050919050565b600082825260208201905092915050565b60005b83811015612092578082015181840152602081019050612077565b60008484015250505050565b60006120a982612058565b6120b38185612063565b93506120c3818560208601612074565b6120cc81611bd0565b840191505092915050565b6120e081611fe1565b82525050565b600060a0830160008301516120fe6000860182611d8b565b5060208301516121116020860182611d8b565b5060408301516121246040860182612049565b506060830151848203606086015261213c828261209e565b915050608083015161215160808601826120d7565b508091505092915050565b600061216883836120e6565b905092915050565b6000602082019050919050565b60006121888261201d565b6121928185612028565b9350836020820285016121a485612039565b8060005b858110156121e057848403895281516121c1858261215c565b94506121cc83612170565b925060208a019950506001810190506121a8565b50829750879550505050505092915050565b6000602082019050818103600083015261220c818461217d565b905092915050565b61221d81611d81565b82525050565b600060a0820190506122386000830188612214565b6122456020830187612214565b6122526040830186612214565b61225f6060830185612214565b61226c6080830184612214565b9695505050505050565b60008060006060848603121561228f5761228e611b23565b5b600084013567ffffffffffffffff8111156122ad576122ac611b28565b5b6122b986828701611cde565b93505060206122ca86828701611ebe565b925050604084013567ffffffffffffffff8111156122eb576122ea611b28565b5b6122f786828701611cde565b9150509250925092565b600082825260208201905092915050565b600061231d82612058565b6123278185612301565b9350612337818560208601612074565b61234081611bd0565b840191505092915050565b600060208201905081810360008301526123658184612312565b905092915050565b60008060008060008060c0878903121561238a57612389611b23565b5b600087013567ffffffffffffffff8111156123a8576123a7611b28565b5b6123b489828a01611cde565b96505060206123c589828a01611ebe565b95505060406123d689828a01611ebe565b94505060606123e789828a01611ebe565b93505060806123f889828a01611ebe565b92505060a061240989828a01611ebe565b9150509295509295509295565b600081905092915050565b600061242c82612058565b6124368185612416565b9350612446818560208601612074565b80840191505092915050565b600061245e8284612421565b915081905092915050565b600060408201905061247e6000830185611f61565b81810360208301526124908184612312565b90509392505050565b6124a281611b90565b81146124ad57600080fd5b50565b6000815190506124bf81612499565b92915050565b6000602082840312156124db576124da611b23565b5b60006124e9848285016124b0565b91505092915050565b7f566f7573206e276574657320706173206175746f7269736520706f757220636560008201527f747465207370656369616c697465000000000000000000000000000000000000602082015250565b600061254e602e83612301565b9150612559826124f2565b604082019050919050565b6000602082019050818103600083015261257d81612541565b9050919050565b6000819050919050565b61259f61259a82611d81565b612584565b82525050565b60006125b18285612421565b91506125bd828461258e565b6020820191508190509392505050565b7f5265736572766174696f6e20696e6578697374616e7465000000000000000000600082015250565b6000612603601783612301565b915061260e826125cd565b602082019050919050565b60006020820190508181036000830152612632816125f6565b9050919050565b7f5265736572766174696f6e2064656a6120747261697465650000000000000000600082015250565b600061266f601883612301565b915061267a82612639565b602082019050919050565b6000602082019050818103600083015261269e81612662565b9050919050565b7f4e487b7100000000000000000000000000000000000000000000000000000000600052602260045260246000fd5b600060028204905060018216806126ec57607f821691505b6020821081036126ff576126fe6126a5565b5b50919050565b60008190508160005260206000209050919050565b60008154612727816126d4565b6127318186612301565b9450600182166000811461274c576001811461276257612795565b60ff198316865281151560200286019350612795565b61276b85612705565b60005b8381101561278d5781548189015260018201915060208101905061276e565b808801955050505b50505092915050565b60006040820190506127b36000830185612214565b81810360208301526127c5818461271a565b90509392505050565b7f4e487b7100000000000000000000000000000000000000000000000000000000600052603260045260246000fd5b7f4e487b7100000000000000000000000000000000000000000000000000000000600052601160045260246000fd5b600061283782611d81565b91507fffffffffffffffffffffffffffffffffffffffffffffffffffffffffffffffff8203612869576128686127fd565b5b600182019050919050565b600061287f82611d81565b915061288a83611d81565b92508282019050808211156128a2576128a16127fd565b5b92915050565b60006128b382611d81565b91506128be83611d81565b92508282039050818111156128d6576128d56127fd565b5b92915050565b7f4e487b7100000000000000000000000000000000000000000000000000000000600052601260045260246000fd5b600061291682611d81565b915061292183611d81565b925082612931576129306128dc565b5b828206905092915050565b7f4372656e65617520696e76616c69646500000000000000000000000000000000600082015250565b6000612972601083612301565b915061297d8261293c565b602082019050919050565b600060208201905081810360008301526129a181612965565b9050919050565b7f4365206372656e656175206573742064656a6120726573657276650000000000600082015250565b60006129de601b83612301565b91506129e9826129a8565b602082019050919050565b60006020820190508181036000830152612a0d816129d1565b9050919050565b60006020601f8301049050919050565b600082821b905092915050565b600060088302612a617fffffffffffffffffffffffffffffffffffffffffffffffffffffffffffffffff82612a24565b612a6b8683612a24565b95508019841693508086168417925050509392505050565b6000819050919050565b6000612aa8612aa3612a9e84611d81565b612a83565b611d81565b9050919050565b6000819050919050565b612ac283612a8d565b612ad6612ace82612aaf565b848454612a31565b825550505050565b600090565b612aeb612ade565b612af6818484612ab9565b505050565b5b81811015612b1a57612b0f600082612ae3565b600181019050612afc565b5050565b601f821115612b5f57612b3081612705565b612b3984612a14565b81016020851015612b48578190505b612b5c612b5485612a14565b830182612afb565b50505b505050565b600082821c905092915050565b6000612b8260001984600802612b64565b1980831691505092915050565b6000612b9b8383612b71565b9150826002028217905092915050565b612bb482612058565b67ffffffffffffffff811115612bcd57612bcc611be1565b5b612bd782546126d4565b612be2828285612b1e565b600060209050601f831160018114612c155760008415612c03578287015190505b612c0d8582612b8f565b865550612c75565b601f198416612c2386612705565b60005b82811015612c4b57848901518255600182019150602085019450602081019050612c26565b86831015612c685784890151612c64601f891682612b71565b8355505b6001600288020188555050505b505050505050565b6000606082019050612c926000830186612214565b612c9f6020830185611f61565b8181036040830152612cb18184612312565b9050949350505050565b7f4c2768657572652064652066696e20646f69742065747265206170726573206c60008201527f2768657572652064652064656275740000000000000000000000000000000000602082015250565b6000612d17602f83612301565b9150612d2282612cbb565b604082019050919050565b60006020820190508181036000830152612d4681612d0a565b9050919050565b7f4c6573206372656e6561757820646f6976656e7420657472652064616e73206c60008201527f61206d656d65206a6f75726e6565000000000000000000000000000000000000602082015250565b6000612da9602e83612301565b9150612db482612d4d565b604082019050919050565b60006020820190508181036000830152612dd881612d9c565b9050919050565b7f447572656520646520636f6e73756c746174696f6e20696e76616c6964650000600082015250565b6000612e15601e83612301565b9150612e2082612ddf565b602082019050919050565b60006020820190508181036000830152612e4481612e08565b9050919050565b7f4372656e6561752074726f70206c6f6e6720286d61782031322068657572657360008201527f2900000000000000000000000000000000000000000000000000000000000000602082015250565b6000612ea7602183612301565b9150612eb282612e4b565b604082019050919050565b60006020820190508181036000830152612ed681612e9a565b9050919050565b7f4368657661756368656d656e74206465206372656e6561757820706f7572206360008201527f6574746520646174650000000000000000000000000000000000000000000000602082015250565b6000612f39602983612301565b9150612f4482612edd565b604082019050919050565b60006020820190508181036000830152612f6881612f2c565b9050919050565b6000602082019050612f846000830184612214565b9291505056fea2646970667358221220fd2cd53c9970cba2d993e7f28195c7afed13bd8b00e800365f346b6bcecb8f8364736f6c63430008130033",
  "immutableReferences": {},
  "source": "/*pragma solidity ^0.8.19;\r\n\r\ncontract Availability {\r\n    struct Creneau {\r\n        uint date;       // Timestamp de la date (sans l'heure)\r\n        uint jourSemaine; // 0 = dimanche, 1 = lundi, ...\r\n        uint debut;      // Timestamp complet (date + heure dbut)\r\n        uint fin;        // Timestamp complet (date + heure fin)\r\n        address patient; // address(0) si non rserv\r\n    }\r\n\r\n    mapping(uint => Creneau[]) public disponibilites;\r\n    mapping(uint => address) public proprietaireCreneaux;\r\n\r\n    // On change ici le type de cl du mapping pour un `bytes32`\r\n    mapping(bytes32 => bool) public isSlotTaken;\r\n\r\n    event CreneauAjoute(uint indexed hhNumber, uint index);\r\n    event CreneauReserve(uint indexed hhNumber, uint index, address patient);\r\n\r\n    function ajouterCreneau(\r\n        uint hhNumber,\r\n        uint _date,       // Date seule (timestamp  minuit)\r\n        uint _jourSemaine,\r\n        uint _debut,      // Heure dbut (timestamp complet)\r\n        uint _fin         // Heure fin (timestamp complet)\r\n    ) public {\r\n        if (disponibilites[hhNumber].length == 0) {\r\n            proprietaireCreneaux[hhNumber] = msg.sender;\r\n        }\r\n\r\n        require(\r\n            proprietaireCreneaux[hhNumber] == msg.sender,\r\n            \"Seul le proprietaire peut ajouter des creneaux\"\r\n        );\r\n\r\n        require(_debut < _fin, \"L'heure de fin doit etre apres l'heure de debut\");\r\n        require(\r\n            _date <= _debut && _date <= _fin,\r\n            \"La date doit correspondre aux creneaux\"\r\n        );\r\n\r\n        Creneau memory nouveauCreneau = Creneau(\r\n            _date,\r\n            _jourSemaine,\r\n            _debut,\r\n            _fin,\r\n            address(0)\r\n        );\r\n\r\n        disponibilites[hhNumber].push(nouveauCreneau);\r\n        emit CreneauAjoute(hhNumber, disponibilites[hhNumber].length - 1);\r\n    }\r\n\r\n    function getDisponibilites(uint hhNumber) public view returns (Creneau[] memory) {\r\n        return disponibilites[hhNumber];\r\n    }\r\nevent DebugSlotKey(bytes32 key, uint timestamp, uint hhNumber);\r\n\r\n     function reserverCreneau(uint hhNumber, uint timestampDebut) public {\r\n    bytes32 key = keccak256(abi.encodePacked(hhNumber, timestampDebut));\r\n    require(!isSlotTaken[key], \"Ce crenau est deja resrver \");\r\n    isSlotTaken[key] = true;\r\n    // ventuellement : store patient info, emit event, etc.\r\n} \r\n\r\n    function isCreneauReserve(uint hhNumber, uint timestampDebut) public view returns (bool) {\r\n        bytes32 slotKey = keccak256(abi.encodePacked(hhNumber, timestampDebut));\r\n        return isSlotTaken[slotKey];\r\n    }\r\n\r\n   function getReservationsByDateFlat(uint hhNumber, uint date) public view returns (\r\n    uint[] memory dates,\r\n    uint[] memory debuts,\r\n    uint[] memory fins,\r\n    string[] memory status\r\n) {\r\n    Creneau[] memory all = disponibilites[hhNumber];\r\n    uint count = 0;\r\n\r\n    for (uint i = 0; i < all.length; i++) {\r\n        if (all[i].date == date && all[i].patient != address(0)) {\r\n            count++;\r\n        }\r\n    }\r\n\r\n    dates = new uint[](count);\r\n    debuts = new uint[](count);\r\n    fins = new uint[](count);\r\n    status = new string[](count);\r\n\r\n    uint index = 0;\r\n    for (uint i = 0; i < all.length; i++) {\r\n        if (all[i].date == date && all[i].patient != address(0)) {\r\n            dates[index] = all[i].date;\r\n            debuts[index] = all[i].debut;\r\n            fins[index] = all[i].fin;\r\n            status[index] = \"OK\"; // Indique simplement que le crneau est rserv\r\n            index++;\r\n        }\r\n    }\r\n\r\n    return (dates, debuts, fins, status);\r\n}\r\n\r\n}\r\n*/\r\n/*\r\npragma solidity ^0.8.19;\r\n\r\ncontract Availability {\r\n    struct Creneau {\r\n        uint date;           // Timestamp de la date (sans l'heure)\r\n        uint jourSemaine;    // 0 = dimanche, 1 = lundi, ...\r\n        uint debut;          // Timestamp complet (date + heure dbut)\r\n        uint fin;            // Timestamp complet (date + heure fin)\r\n        uint dureeConsultation; // Dure d'une consultation (en secondes, ex: 900 pour 15 min)\r\n        address patient;     // address(0) si non rserv\r\n    }\r\n    struct Reservation {\r\n    uint creneauIndex;\r\n    uint timestampDebut;\r\n    address patient;\r\n}\r\n\r\n\r\n    mapping(uint => Creneau[]) public disponibilites;\r\n    mapping(uint => address) public proprietaireCreneaux;\r\n    mapping(bytes32 => bool) public isSlotTaken;\r\n\r\n    event CreneauAjoute(uint indexed hhNumber, uint index);\r\n    event CreneauReserve(uint indexed hhNumber, uint index, address patient);\r\n\r\n    function ajouterCreneau(\r\n        uint hhNumber,\r\n        uint _date,\r\n        uint _jourSemaine,\r\n        uint _debut,\r\n        uint _fin,\r\n        uint _dureeConsultation // Nouveau paramtre\r\n    ) public {\r\n        if (disponibilites[hhNumber].length == 0) {\r\n            proprietaireCreneaux[hhNumber] = msg.sender;\r\n        }\r\n        require(\r\n            proprietaireCreneaux[hhNumber] == msg.sender,\r\n            \"Seul le proprietaire peut ajouter des creneaux\"\r\n        );\r\n        require(_debut < _fin, \"L'heure de fin doit etre apres l'heure de debut\");\r\n        require(\r\n            _date <= _debut && _date <= _fin,\r\n            \"La date doit correspondre aux creneaux\"\r\n        );\r\n        require(_dureeConsultation > 0, \"Dure de consultation invalide\");\r\n\r\n        Creneau memory nouveauCreneau = Creneau(\r\n            _date,\r\n            _jourSemaine,\r\n            _debut,\r\n            _fin,\r\n            _dureeConsultation,\r\n            address(0)\r\n        );\r\n\r\n        disponibilites[hhNumber].push(nouveauCreneau);\r\n        emit CreneauAjoute(hhNumber, disponibilites[hhNumber].length - 1);\r\n    }\r\n\r\n    function getDisponibilites(uint hhNumber) public view returns (Creneau[] memory) {\r\n        return disponibilites[hhNumber];\r\n    }\r\n   \r\n\r\n   // Ajouter un nouveau mapping pour stocker l'adresse du patient\r\nmapping(bytes32 => address) public slotPatient;\r\n\r\nfunction reserverCreneau(uint hhNumber, uint timestampDebut) public {\r\n    bool found = false;\r\n    uint creneauIndex;\r\n    for (uint i = 0; i < disponibilites[hhNumber].length; i++) {\r\n        Creneau memory creneau = disponibilites[hhNumber][i];\r\n        if (\r\n            timestampDebut >= creneau.debut &&\r\n            timestampDebut < creneau.fin &&\r\n            (timestampDebut - creneau.debut) % creneau.dureeConsultation == 0\r\n        ) {\r\n            found = true;\r\n            creneauIndex = i;\r\n            break;\r\n        }\r\n    }\r\n    require(found, \"Crneau invalide\");\r\n\r\n    bytes32 key = keccak256(abi.encodePacked(hhNumber, timestampDebut));\r\n    require(!isSlotTaken[key], \"Ce crneau est dj rserv\");\r\n\r\n    isSlotTaken[key] = true;\r\n    slotPatient[key] = msg.sender; // Stocker l'adresse du patient\r\n    emit CreneauReserve(hhNumber, creneauIndex, msg.sender);\r\n}\r\n  function isCreneauReserve(uint hhNumber, uint timestampDebut) public view returns (bool) {\r\n        bytes32 slotKey = keccak256(abi.encodePacked(hhNumber, timestampDebut));\r\n        return isSlotTaken[slotKey];\r\n    }\r\n// Mettre  jour getReservations pour utiliser slotPatient\r\nfunction getReservations(uint hhNumber) public view returns (Reservation[] memory) {\r\n    require(\r\n        proprietaireCreneaux[hhNumber] == msg.sender,\r\n        \"Seul le proprietaire peut voir les rservations\"\r\n    );\r\n\r\n    uint reservationCount = 0;\r\n    for (uint i = 0; i < disponibilites[hhNumber].length; i++) {\r\n        Creneau memory creneau = disponibilites[hhNumber][i];\r\n        for (\r\n            uint t = creneau.debut;\r\n            t < creneau.fin;\r\n            t += creneau.dureeConsultation\r\n        ) {\r\n            bytes32 key = keccak256(abi.encodePacked(hhNumber, t));\r\n            if (isSlotTaken[key]) {\r\n                reservationCount++;\r\n            }\r\n        }\r\n    }\r\n\r\n    Reservation[] memory reservations = new Reservation[](reservationCount);\r\n    uint index = 0;\r\n    for (uint i = 0; i < disponibilites[hhNumber].length; i++) {\r\n        Creneau memory creneau = disponibilites[hhNumber][i];\r\n        for (\r\n            uint t = creneau.debut;\r\n            t < creneau.fin;\r\n            t += creneau.dureeConsultation\r\n        ) {\r\n            bytes32 key = keccak256(abi.encodePacked(hhNumber, t));\r\n            if (isSlotTaken[key]) {\r\n                reservations[index] = Reservation({\r\n                    creneauIndex: i,\r\n                    timestampDebut: t,\r\n                    patient: slotPatient[key] // Utiliser l'adresse stocke\r\n                });\r\n                index++;\r\n            }\r\n        }\r\n    }\r\n\r\n    return reservations;\r\n}\r\n   \r\n}*/\r\n\r\n// SPDX-License-Identifier: MIT\r\npragma solidity ^0.8.19;\r\n\r\ninterface IDoctorRegistration {\r\n    function isDoctorInSpecialization(address doctorAddress, string memory specialization) external view returns (bool);\r\n    function getDoctorDetails(string memory _hhNumber) external view returns (\r\n        address _walletAddress,\r\n        string memory _doctorName,\r\n        string memory _hospitalName,\r\n        string memory _dateOfBirth,\r\n        string memory _gender,\r\n        string memory _email,\r\n        string memory _specialization,\r\n        string memory _department,\r\n        string memory _designation,\r\n        string memory _workExperience\r\n    );\r\n}\r\n\r\ncontract Availability {\r\n    enum ReservationStatus { PENDING, CONFIRMED, CANCELLED } // Nouveau champ pour le statut\r\n\r\n    struct Creneau {\r\n        uint date;\r\n        uint jourSemaine;\r\n        uint debut;\r\n        uint fin;\r\n        uint dureeConsultation;\r\n    }\r\n\r\n    struct Reservation {\r\n        uint creneauIndex;\r\n        uint timestampDebut;\r\n        address patient;\r\n        string patientHhNumber;\r\n        ReservationStatus status; // Nouveau champ\r\n    }\r\n\r\n    mapping(string => Creneau[]) public disponibilites;\r\n    mapping(bytes32 => bool) public isSlotTaken;\r\n    mapping(bytes32 => address) public slotPatient;\r\n    mapping(bytes32 => string) public slotPatientHhNumber;\r\n    mapping(bytes32 => ReservationStatus) public slotStatus; // Nouveau mapping pour le statut\r\n\r\n    IDoctorRegistration private doctorRegistration;\r\n\r\n    event CreneauAjoute(string indexed specialization, uint index);\r\n    event CreneauReserve(string indexed specialization, uint index, address patient, string patientHhNumber);\r\n    event ReservationConfirmed(string indexed specialization, uint timestampDebut, string patientHhNumber);\r\n    event ReservationCancelled(string indexed specialization, uint timestampDebut, string patientHhNumber);\r\n\r\n    constructor(address _doctorRegistrationAddress) {\r\n        doctorRegistration = IDoctorRegistration(_doctorRegistrationAddress);\r\n    }\r\n\r\n    function ajouterCreneau(\r\n        string memory specialization,\r\n        uint _date,\r\n        uint _jourSemaine,\r\n        uint _debut,\r\n        uint _fin,\r\n        uint _dureeConsultation\r\n    ) public {\r\n        require(doctorRegistration.isDoctorInSpecialization(msg.sender, specialization), \"Vous n'etes pas autorise pour cette specialite\");\r\n        require(_debut < _fin, \"L'heure de fin doit etre apres l'heure de debut\");\r\n        require(_debut >= _date && _fin <= _date + 24 * 3600, \"Les creneaux doivent etre dans la meme journee\");\r\n        require(_dureeConsultation > 0, \"Duree de consultation invalide\");\r\n        require(_fin - _debut <= 12 * 3600, \"Creneau trop long (max 12 heures)\");\r\n\r\n        for (uint i = 0; i < disponibilites[specialization].length; i++) {\r\n            Creneau memory existing = disponibilites[specialization][i];\r\n            require(\r\n                existing.date != _date || (_fin <= existing.debut || _debut >= existing.fin),\r\n                \"Chevauchement de creneaux pour cette date\"\r\n            );\r\n        }\r\n\r\n        Creneau memory nouveauCreneau = Creneau(_date, _jourSemaine, _debut, _fin, _dureeConsultation);\r\n        disponibilites[specialization].push(nouveauCreneau);\r\n        emit CreneauAjoute(specialization, disponibilites[specialization].length - 1);\r\n    }\r\n\r\n    function getDisponibilites(string memory specialization) public view returns (Creneau[] memory) {\r\n        return disponibilites[specialization];\r\n    }\r\n\r\n    function reserverCreneau(string memory specialization, uint timestampDebut, string memory patientHhNumber) public {\r\n        bool found = false;\r\n        uint creneauIndex;\r\n        for (uint i = 0; i < disponibilites[specialization].length; i++) {\r\n            Creneau memory creneau = disponibilites[specialization][i];\r\n            if (\r\n                timestampDebut >= creneau.debut &&\r\n                timestampDebut < creneau.fin &&\r\n                (timestampDebut - creneau.debut) % creneau.dureeConsultation == 0\r\n            ) {\r\n                found = true;\r\n                creneauIndex = i;\r\n                break;\r\n            }\r\n        }\r\n        require(found, \"Creneau invalide\");\r\n\r\n        bytes32 key = keccak256(abi.encodePacked(specialization, timestampDebut));\r\n        require(!isSlotTaken[key], \"Ce creneau est deja reserve\");\r\n\r\n        isSlotTaken[key] = true;\r\n        slotPatient[key] = msg.sender;\r\n        slotPatientHhNumber[key] = patientHhNumber;\r\n        slotStatus[key] = ReservationStatus.PENDING; // Statut initial\r\n        emit CreneauReserve(specialization, creneauIndex, msg.sender, patientHhNumber);\r\n    }\r\n\r\n    function confirmReservation(string memory specialization, uint timestampDebut) public {\r\n        require(doctorRegistration.isDoctorInSpecialization(msg.sender, specialization), \"Vous n'etes pas autorise pour cette specialite\");\r\n        bytes32 key = keccak256(abi.encodePacked(specialization, timestampDebut));\r\n        require(isSlotTaken[key], \"Reservation inexistante\");\r\n        require(slotStatus[key] == ReservationStatus.PENDING, \"Reservation deja traitee\");\r\n        \r\n        slotStatus[key] = ReservationStatus.CONFIRMED;\r\n        emit ReservationConfirmed(specialization, timestampDebut, slotPatientHhNumber[key]);\r\n    }\r\n\r\n    function cancelReservation(string memory specialization, uint timestampDebut) public {\r\n        require(doctorRegistration.isDoctorInSpecialization(msg.sender, specialization), \"Vous n'etes pas autorise pour cette specialite\");\r\n        bytes32 key = keccak256(abi.encodePacked(specialization, timestampDebut));\r\n        require(isSlotTaken[key], \"Reservation inexistante\");\r\n        require(slotStatus[key] == ReservationStatus.PENDING, \"Reservation deja traitee\");\r\n\r\n        slotStatus[key] = ReservationStatus.CANCELLED;\r\n        emit ReservationCancelled(specialization, timestampDebut, slotPatientHhNumber[key]);\r\n    }\r\n\r\n    function isCreneauReserve(string memory specialization, uint timestampDebut) public view returns (bool) {\r\n        bytes32 slotKey = keccak256(abi.encodePacked(specialization, timestampDebut));\r\n        return isSlotTaken[slotKey];\r\n    }\r\n\r\n    function getReservations(string memory specialization) public view returns (Reservation[] memory) {\r\n        require(doctorRegistration.isDoctorInSpecialization(msg.sender, specialization), \"Vous n'etes pas autorise pour cette specialite\");\r\n\r\n        uint reservationCount = 0;\r\n        for (uint i = 0; i < disponibilites[specialization].length; i++) {\r\n            Creneau memory creneau = disponibilites[specialization][i];\r\n            for (uint t = creneau.debut; t < creneau.fin; t += creneau.dureeConsultation) {\r\n                bytes32 key = keccak256(abi.encodePacked(specialization, t));\r\n                if (isSlotTaken[key]) {\r\n                    reservationCount++;\r\n                }\r\n            }\r\n        }\r\n\r\n        Reservation[] memory reservations = new Reservation[](reservationCount);\r\n        uint index = 0;\r\n        for (uint i = 0; i < disponibilites[specialization].length; i++) {\r\n            Creneau memory creneau = disponibilites[specialization][i];\r\n            for (uint t = creneau.debut; t < creneau.fin; t += creneau.dureeConsultation) {\r\n                bytes32 key = keccak256(abi.encodePacked(specialization, t));\r\n                if (isSlotTaken[key]) {\r\n                    reservations[index] = Reservation({\r\n                        creneauIndex: i,\r\n                        timestampDebut: t,\r\n                        patient: slotPatient[key],\r\n                        patientHhNumber: slotPatientHhNumber[key],\r\n                        status: slotStatus[key]\r\n                    });\r\n                    index++;\r\n                }\r\n            }\r\n        }\r\n\r\n        return reservations;\r\n    }\r\n\r\n    function resetDisponibilites(string memory specialization) public {\r\n        require(doctorRegistration.isDoctorInSpecialization(msg.sender, specialization), \"Vous n'etes pas autorise pour cette specialite\");\r\n        for (uint i = 0; i < disponibilites[specialization].length; i++) {\r\n            Creneau memory creneau = disponibilites[specialization][i];\r\n            for (uint t = creneau.debut; t < creneau.fin; t += creneau.dureeConsultation) {\r\n                bytes32 key = keccak256(abi.encodePacked(specialization, t));\r\n                delete isSlotTaken[key];\r\n                delete slotPatient[key];\r\n                delete slotPatientHhNumber[key];\r\n                delete slotStatus[key];\r\n            }\r\n        }\r\n        delete disponibilites[specialization];\r\n    }\r\n}",
  "sourcePath": "C:\\Users\\EliteBook\\BlockHealth\\src\\contracts\\availability.sol",
  "compiler": {
    "name": "solc",
    "version": "0.8.19+commit.7dd6d404.Emscripten.clang"
  },
  "schemaVersion": "3.4.16",
  "updatedAt": "2025-05-16T21:34:46.608Z",
  "networkType": "ethereum",
  "devdoc": {
    "kind": "dev",
    "methods": {},
    "version": 1
  },
  "userdoc": {
    "kind": "user",
    "methods": {},
    "version": 1
  }
}