{
  "contractName": "DoctorRegistry",
  "abi": [
    {
      "inputs": [
        {
          "internalType": "address",
          "name": "_doctorRegistrationAddress",
          "type": "address"
        }
      ],
      "stateMutability": "nonpayable",
      "type": "constructor"
    },
    {
      "inputs": [
        {
          "internalType": "string",
          "name": "_hhNumber",
          "type": "string"
        }
      ],
      "name": "registerDoctor",
      "outputs": [],
      "stateMutability": "nonpayable",
      "type": "function"
    },
    {
      "inputs": [
        {
          "internalType": "string",
          "name": "_specialty",
          "type": "string"
        }
      ],
      "name": "getDoctorsBySpecialty",
      "outputs": [
        {
          "internalType": "string[]",
          "name": "",
          "type": "string[]"
        }
      ],
      "stateMutability": "view",
      "type": "function"
    },
    {
      "inputs": [],
      "name": "getAllSpecialties",
      "outputs": [
        {
          "internalType": "string[]",
          "name": "",
          "type": "string[]"
        }
      ],
      "stateMutability": "view",
      "type": "function"
    },
    {
      "inputs": [
        {
          "internalType": "string",
          "name": "_hhNumber",
          "type": "string"
        }
      ],
      "name": "getDoctorDetails",
      "outputs": [
        {
          "internalType": "string",
          "name": "name",
          "type": "string"
        },
        {
          "internalType": "string",
          "name": "hospital",
          "type": "string"
        },
        {
          "internalType": "string",
          "name": "specialization",
          "type": "string"
        }
      ],
      "stateMutability": "view",
      "type": "function"
    }
  ],
  "bytecode": "0x60806040523480156200001157600080fd5b506040516200186a3803806200186a8339818101604052810190620000379190620003ca565b806000806101000a81548173ffffffffffffffffffffffffffffffffffffffff021916908373ffffffffffffffffffffffffffffffffffffffff1602179055506040518061010001604052806040518060400160405280600a81526020017f43617264696f6c6f67790000000000000000000000000000000000000000000081525081526020016040518060400160405280600981526020017f4e6575726f6c6f6779000000000000000000000000000000000000000000000081525081526020016040518060400160405280600881526020017f4f6e636f6c6f677900000000000000000000000000000000000000000000000081525081526020016040518060400160405280600a81526020017f47796e65636f6c6f67790000000000000000000000000000000000000000000081525081526020016040518060400160405280600b81526020017f4465726d61746f6c6f677900000000000000000000000000000000000000000081525081526020016040518060400160405280600d81526020017f4f70687468616c6d6f6c6f67790000000000000000000000000000000000000081525081526020016040518060400160405280600a81526020017f507379636869617472790000000000000000000000000000000000000000000081525081526020016040518060400160405280600981526020017f526164696f6c6f6779000000000000000000000000000000000000000000000081525081525060029060086200026b92919062000273565b50506200075d565b828054828255906000526020600020908101928215620002c0579160200282015b82811115620002bf578251829081620002ae919062000676565b509160200191906001019062000294565b5b509050620002cf9190620002d3565b5090565b5b80821115620002f75760008181620002ed9190620002fb565b50600101620002d4565b5090565b508054620003099062000465565b6000825580601f106200031d57506200033e565b601f0160209004906000526020600020908101906200033d919062000341565b5b50565b5b808211156200035c57600081600090555060010162000342565b5090565b600080fd5b600073ffffffffffffffffffffffffffffffffffffffff82169050919050565b6000620003928262000365565b9050919050565b620003a48162000385565b8114620003b057600080fd5b50565b600081519050620003c48162000399565b92915050565b600060208284031215620003e357620003e262000360565b5b6000620003f384828501620003b3565b91505092915050565b600081519050919050565b7f4e487b7100000000000000000000000000000000000000000000000000000000600052604160045260246000fd5b7f4e487b7100000000000000000000000000000000000000000000000000000000600052602260045260246000fd5b600060028204905060018216806200047e57607f821691505b60208210810362000494576200049362000436565b5b50919050565b60008190508160005260206000209050919050565b60006020601f8301049050919050565b600082821b905092915050565b600060088302620004fe7fffffffffffffffffffffffffffffffffffffffffffffffffffffffffffffffff82620004bf565b6200050a8683620004bf565b95508019841693508086168417925050509392505050565b6000819050919050565b6000819050919050565b600062000557620005516200054b8462000522565b6200052c565b62000522565b9050919050565b6000819050919050565b620005738362000536565b6200058b62000582826200055e565b848454620004cc565b825550505050565b600090565b620005a262000593565b620005af81848462000568565b505050565b5b81811015620005d757620005cb60008262000598565b600181019050620005b5565b5050565b601f8211156200062657620005f0816200049a565b620005fb84620004af565b810160208510156200060b578190505b620006236200061a85620004af565b830182620005b4565b50505b505050565b600082821c905092915050565b60006200064b600019846008026200062b565b1980831691505092915050565b600062000666838362000638565b9150826002028217905092915050565b6200068182620003fc565b67ffffffffffffffff8111156200069d576200069c62000407565b5b620006a9825462000465565b620006b6828285620005db565b600060209050601f831160018114620006ee5760008415620006d9578287015190505b620006e5858262000658565b86555062000755565b601f198416620006fe866200049a565b60005b82811015620007285784890151825560018201915060208501945060208101905062000701565b8683101562000748578489015162000744601f89168262000638565b8355505b6001600288020188555050505b505050505050565b6110fd806200076d6000396000f3fe608060405234801561001057600080fd5b506004361061004b5760003560e01c8062deac95146100505780633e7697671461006e57806380eb1398146100a05780638f09ab5b146100d0575b600080fd5b6100586100ec565b604051610065919061079f565b60405180910390f35b6100886004803603810190610083919061090a565b6101c5565b6040516100979392919061099d565b60405180910390f35b6100ba60048036038101906100b5919061090a565b610375565b6040516100c7919061079f565b60405180910390f35b6100ea60048036038101906100e5919061090a565b61046c565b005b60606002805480602002602001604051908101604052809291908181526020016000905b828210156101bc57838290600052602060002001805461012f90610a18565b80601f016020809104026020016040519081016040528092919081815260200182805461015b90610a18565b80156101a85780601f1061017d576101008083540402835291602001916101a8565b820191906000526020600020905b81548152906001019060200180831161018b57829003601f168201915b505050505081526020019060010190610110565b50505050905090565b606080606060008054906101000a900473ffffffffffffffffffffffffffffffffffffffff1673ffffffffffffffffffffffffffffffffffffffff16633e769767856040518263ffffffff1660e01b81526004016102239190610a49565b600060405180830381865afa158015610240573d6000803e3d6000fd5b505050506040513d6000823e3d601f19601f820116820180604052508101906102699190610b39565b909192939495969798509091929394959650909192939495509091929394509091929350909150905050809250819450505060008054906101000a900473ffffffffffffffffffffffffffffffffffffffff1673ffffffffffffffffffffffffffffffffffffffff16633e769767856040518263ffffffff1660e01b81526004016102f49190610a49565b600060405180830381865afa158015610311573d6000803e3d6000fd5b505050506040513d6000823e3d601f19601f8201168201806040525081019061033a9190610b39565b909192939495969798509091929394959697509091929394959650909192939450909192935090919250909150905050809250509193909250565b60606001826040516103879190610d50565b9081526020016040518091039020805480602002602001604051908101604052809291908181526020016000905b828210156104615783829060005260206000200180546103d490610a18565b80601f016020809104026020016040519081016040528092919081815260200182805461040090610a18565b801561044d5780601f106104225761010080835404028352916020019161044d565b820191906000526020600020905b81548152906001019060200180831161043057829003601f168201915b5050505050815260200190600101906103b5565b505050509050919050565b60008060008054906101000a900473ffffffffffffffffffffffffffffffffffffffff1673ffffffffffffffffffffffffffffffffffffffff16633e769767846040518263ffffffff1660e01b81526004016104c89190610a49565b600060405180830381865afa1580156104e5573d6000803e3d6000fd5b505050506040513d6000823e3d601f19601f8201168201806040525081019061050e9190610b39565b505050965050505050509150600073ffffffffffffffffffffffffffffffffffffffff168273ffffffffffffffffffffffffffffffffffffffff1603610589576040517f08c379a000000000000000000000000000000000000000000000000000000000815260040161058090610db3565b60405180910390fd5b3373ffffffffffffffffffffffffffffffffffffffff168273ffffffffffffffffffffffffffffffffffffffff16146105f7576040517f08c379a00000000000000000000000000000000000000000000000000000000081526004016105ee90610e1f565b60405180910390fd5b6001816040516106079190610d50565b9081526020016040518091039020839080600181540180825580915050600190039060005260206000200160009091909190915090816106479190610ff5565b50505050565b600081519050919050565b600082825260208201905092915050565b6000819050602082019050919050565b600081519050919050565b600082825260208201905092915050565b60005b838110156106b3578082015181840152602081019050610698565b60008484015250505050565b6000601f19601f8301169050919050565b60006106db82610679565b6106e58185610684565b93506106f5818560208601610695565b6106fe816106bf565b840191505092915050565b600061071583836106d0565b905092915050565b6000602082019050919050565b60006107358261064d565b61073f8185610658565b93508360208202850161075185610669565b8060005b8581101561078d578484038952815161076e8582610709565b94506107798361071d565b925060208a01995050600181019050610755565b50829750879550505050505092915050565b600060208201905081810360008301526107b9818461072a565b905092915050565b6000604051905090565b600080fd5b600080fd5b600080fd5b600080fd5b7f4e487b7100000000000000000000000000000000000000000000000000000000600052604160045260246000fd5b610817826106bf565b810181811067ffffffffffffffff82111715610836576108356107df565b5b80604052505050565b60006108496107c1565b9050610855828261080e565b919050565b600067ffffffffffffffff821115610875576108746107df565b5b61087e826106bf565b9050602081019050919050565b82818337600083830152505050565b60006108ad6108a88461085a565b61083f565b9050828152602081018484840111156108c9576108c86107da565b5b6108d484828561088b565b509392505050565b600082601f8301126108f1576108f06107d5565b5b813561090184826020860161089a565b91505092915050565b6000602082840312156109205761091f6107cb565b5b600082013567ffffffffffffffff81111561093e5761093d6107d0565b5b61094a848285016108dc565b91505092915050565b600082825260208201905092915050565b600061096f82610679565b6109798185610953565b9350610989818560208601610695565b610992816106bf565b840191505092915050565b600060608201905081810360008301526109b78186610964565b905081810360208301526109cb8185610964565b905081810360408301526109df8184610964565b9050949350505050565b7f4e487b7100000000000000000000000000000000000000000000000000000000600052602260045260246000fd5b60006002820490506001821680610a3057607f821691505b602082108103610a4357610a426109e9565b5b50919050565b60006020820190508181036000830152610a638184610964565b905092915050565b600073ffffffffffffffffffffffffffffffffffffffff82169050919050565b6000610a9682610a6b565b9050919050565b610aa681610a8b565b8114610ab157600080fd5b50565b600081519050610ac381610a9d565b92915050565b6000610adc610ad78461085a565b61083f565b905082815260208101848484011115610af857610af76107da565b5b610b03848285610695565b509392505050565b600082601f830112610b2057610b1f6107d5565b5b8151610b30848260208601610ac9565b91505092915050565b6000806000806000806000806000806101408b8d031215610b5d57610b5c6107cb565b5b6000610b6b8d828e01610ab4565b9a505060208b015167ffffffffffffffff811115610b8c57610b8b6107d0565b5b610b988d828e01610b0b565b99505060408b015167ffffffffffffffff811115610bb957610bb86107d0565b5b610bc58d828e01610b0b565b98505060608b015167ffffffffffffffff811115610be657610be56107d0565b5b610bf28d828e01610b0b565b97505060808b015167ffffffffffffffff811115610c1357610c126107d0565b5b610c1f8d828e01610b0b565b96505060a08b015167ffffffffffffffff811115610c4057610c3f6107d0565b5b610c4c8d828e01610b0b565b95505060c08b015167ffffffffffffffff811115610c6d57610c6c6107d0565b5b610c798d828e01610b0b565b94505060e08b015167ffffffffffffffff811115610c9a57610c996107d0565b5b610ca68d828e01610b0b565b9350506101008b015167ffffffffffffffff811115610cc857610cc76107d0565b5b610cd48d828e01610b0b565b9250506101208b015167ffffffffffffffff811115610cf657610cf56107d0565b5b610d028d828e01610b0b565b9150509295989b9194979a5092959850565b600081905092915050565b6000610d2a82610679565b610d348185610d14565b9350610d44818560208601610695565b80840191505092915050565b6000610d5c8284610d1f565b915081905092915050565b7f446f63746f72206e6f7420726567697374657265640000000000000000000000600082015250565b6000610d9d601583610953565b9150610da882610d67565b602082019050919050565b60006020820190508181036000830152610dcc81610d90565b9050919050565b7f4e6f7420617574686f72697a6564000000000000000000000000000000000000600082015250565b6000610e09600e83610953565b9150610e1482610dd3565b602082019050919050565b60006020820190508181036000830152610e3881610dfc565b9050919050565b60008190508160005260206000209050919050565b60006020601f8301049050919050565b600082821b905092915050565b600060088302610ea17fffffffffffffffffffffffffffffffffffffffffffffffffffffffffffffffff82610e64565b610eab8683610e64565b95508019841693508086168417925050509392505050565b6000819050919050565b6000819050919050565b6000610ef2610eed610ee884610ec3565b610ecd565b610ec3565b9050919050565b6000819050919050565b610f0c83610ed7565b610f20610f1882610ef9565b848454610e71565b825550505050565b600090565b610f35610f28565b610f40818484610f03565b505050565b5b81811015610f6457610f59600082610f2d565b600181019050610f46565b5050565b601f821115610fa957610f7a81610e3f565b610f8384610e54565b81016020851015610f92578190505b610fa6610f9e85610e54565b830182610f45565b50505b505050565b600082821c905092915050565b6000610fcc60001984600802610fae565b1980831691505092915050565b6000610fe58383610fbb565b9150826002028217905092915050565b610ffe82610679565b67ffffffffffffffff811115611017576110166107df565b5b6110218254610a18565b61102c828285610f68565b600060209050601f83116001811461105f576000841561104d578287015190505b6110578582610fd9565b8655506110bf565b601f19841661106d86610e3f565b60005b8281101561109557848901518255600182019150602085019450602081019050611070565b868310156110b257848901516110ae601f891682610fbb565b8355505b6001600288020188555050505b50505050505056fea2646970667358221220c7c9711175d4c02344e9c87385d1b249051a9a8c19c13b765ce96c4feb04176464736f6c63430008130033",
  "immutableReferences": {},
  "source": "// SPDX-License-Identifier: MIT\r\npragma solidity ^0.8.19;\r\n\r\nimport \"./DoctorRegistration.sol\";\r\n\r\ncontract DoctorRegistry {\r\n    DoctorRegistration private doctorRegistration;\r\n    \r\n    // Mapping spcialit => liste des HHNumbers\r\n    mapping(string => string[]) private doctorsBySpecialty;\r\n    \r\n    // Liste de toutes les spcialits disponibles\r\n    string[] private allSpecialties;\r\n\r\n    constructor(address _doctorRegistrationAddress) {\r\n        doctorRegistration = DoctorRegistration(_doctorRegistrationAddress);\r\n        \r\n        // Initialiser les spcialits disponibles\r\n        allSpecialties = [\"Cardiology\", \"Neurology\", \"Oncology\", \"Gynecology\", \r\n                         \"Dermatology\", \"Ophthalmology\", \"Psychiatry\", \"Radiology\"];\r\n    }\r\n\r\n    function registerDoctor(string memory _hhNumber) external {\r\n        // Vrifier que le mdecin est bien enregistr dans DoctorRegistration\r\n        (address wallet, , , , , , string memory specialization, , , ) = \r\n            doctorRegistration.getDoctorDetails(_hhNumber);\r\n        \r\n        require(wallet != address(0), \"Doctor not registered\");\r\n        require(wallet == msg.sender, \"Not authorized\");\r\n        \r\n        // Ajouter le mdecin  sa spcialit\r\n        doctorsBySpecialty[specialization].push(_hhNumber);\r\n    }\r\n\r\n    function getDoctorsBySpecialty(string memory _specialty) external view returns (string[] memory) {\r\n        return doctorsBySpecialty[_specialty];\r\n    }\r\n\r\n    function getAllSpecialties() external view returns (string[] memory) {\r\n        return allSpecialties;\r\n    }\r\n\r\n    function getDoctorDetails(string memory _hhNumber) external view returns (\r\n        string memory name,\r\n        string memory hospital,\r\n        string memory specialization\r\n    ) {\r\n        (, name, , , , , specialization, , , ) = doctorRegistration.getDoctorDetails(_hhNumber);\r\n        (, , , hospital, , , , , , ) = doctorRegistration.getDoctorDetails(_hhNumber);\r\n        return (name, hospital, specialization);\r\n    }\r\n}",
  "sourcePath": "C:\\Users\\EliteBook\\BlockHealth\\src\\contracts\\DoctorRegistry.sol",
  "compiler": {
    "name": "solc",
    "version": "0.8.19+commit.7dd6d404.Emscripten.clang"
  },
  "schemaVersion": "3.4.16",
  "updatedAt": "2025-05-11T22:43:37.045Z",
  "devdoc": {
    "kind": "dev",
    "methods": {},
    "version": 1
  },
  "userdoc": {
    "kind": "user",
    "methods": {},
    "version": 1
  }
}