{
  "contractName": "DoctorAvailability",
  "abi": [
    {
      "anonymous": false,
      "inputs": [
        {
          "indexed": true,
          "internalType": "string",
          "name": "hhNumber",
          "type": "string"
        },
        {
          "indexed": true,
          "internalType": "string",
          "name": "day",
          "type": "string"
        },
        {
          "indexed": false,
          "internalType": "string",
          "name": "date",
          "type": "string"
        },
        {
          "indexed": false,
          "internalType": "string",
          "name": "startTime",
          "type": "string"
        },
        {
          "indexed": false,
          "internalType": "string",
          "name": "endTime",
          "type": "string"
        }
      ],
      "name": "AvailabilitySet",
      "type": "event"
    },
    {
      "inputs": [
        {
          "internalType": "string",
          "name": "",
          "type": "string"
        },
        {
          "internalType": "string",
          "name": "",
          "type": "string"
        }
      ],
      "name": "availabilities",
      "outputs": [
        {
          "internalType": "string",
          "name": "date",
          "type": "string"
        },
        {
          "internalType": "string",
          "name": "startTime",
          "type": "string"
        },
        {
          "internalType": "string",
          "name": "endTime",
          "type": "string"
        }
      ],
      "stateMutability": "view",
      "type": "function"
    },
    {
      "inputs": [
        {
          "internalType": "string",
          "name": "hhNumber",
          "type": "string"
        },
        {
          "internalType": "string",
          "name": "day",
          "type": "string"
        },
        {
          "internalType": "string",
          "name": "date",
          "type": "string"
        },
        {
          "internalType": "string",
          "name": "startTime",
          "type": "string"
        },
        {
          "internalType": "string",
          "name": "endTime",
          "type": "string"
        }
      ],
      "name": "setAvailability",
      "outputs": [],
      "stateMutability": "nonpayable",
      "type": "function"
    },
    {
      "inputs": [
        {
          "internalType": "string",
          "name": "hhNumber",
          "type": "string"
        },
        {
          "internalType": "string",
          "name": "day",
          "type": "string"
        }
      ],
      "name": "getDayAvailability",
      "outputs": [
        {
          "components": [
            {
              "internalType": "string",
              "name": "date",
              "type": "string"
            },
            {
              "internalType": "string",
              "name": "startTime",
              "type": "string"
            },
            {
              "internalType": "string",
              "name": "endTime",
              "type": "string"
            }
          ],
          "internalType": "struct DoctorAvailability.DayAvailability",
          "name": "",
          "type": "tuple"
        }
      ],
      "stateMutability": "view",
      "type": "function"
    },
    {
      "inputs": [
        {
          "internalType": "string",
          "name": "hhNumber",
          "type": "string"
        },
        {
          "internalType": "string",
          "name": "day1",
          "type": "string"
        },
        {
          "internalType": "string",
          "name": "day2",
          "type": "string"
        }
      ],
      "name": "getMultipleDaysAvailability",
      "outputs": [
        {
          "components": [
            {
              "internalType": "string",
              "name": "date",
              "type": "string"
            },
            {
              "internalType": "string",
              "name": "startTime",
              "type": "string"
            },
            {
              "internalType": "string",
              "name": "endTime",
              "type": "string"
            }
          ],
          "internalType": "struct DoctorAvailability.DayAvailability",
          "name": "",
          "type": "tuple"
        },
        {
          "components": [
            {
              "internalType": "string",
              "name": "date",
              "type": "string"
            },
            {
              "internalType": "string",
              "name": "startTime",
              "type": "string"
            },
            {
              "internalType": "string",
              "name": "endTime",
              "type": "string"
            }
          ],
          "internalType": "struct DoctorAvailability.DayAvailability",
          "name": "",
          "type": "tuple"
        }
      ],
      "stateMutability": "view",
      "type": "function"
    }
  ],
  "bytecode": "0x608060405234801561001057600080fd5b5061156d806100206000396000f3fe608060405234801561001057600080fd5b506004361061004c5760003560e01c8063435c39b6146100515780635289102e14610083578063d6c479461461009f578063fb9736ea146100cf575b600080fd5b61006b60048036038101906100669190610c91565b610100565b60405161007a93929190610d88565b60405180910390f35b61009d60048036038101906100989190610e34565b6102fb565b005b6100b960048036038101906100b49190610f51565b6104e2565b6040516100c6919061107a565b60405180910390f35b6100e960048036038101906100e4919061109c565b6106f3565b6040516100f7929190611150565b60405180910390f35b600082805160208101820180518482526020830160208501208183528095505050505050818051602081018201805184825260208301602085012081835280955050505050506000915091505080600001805461015c906111b6565b80601f0160208091040260200160405190810160405280929190818152602001828054610188906111b6565b80156101d55780601f106101aa576101008083540402835291602001916101d5565b820191906000526020600020905b8154815290600101906020018083116101b857829003601f168201915b5050505050908060010180546101ea906111b6565b80601f0160208091040260200160405190810160405280929190818152602001828054610216906111b6565b80156102635780601f1061023857610100808354040283529160200191610263565b820191906000526020600020905b81548152906001019060200180831161024657829003601f168201915b505050505090806002018054610278906111b6565b80601f01602080910402602001604051908101604052809291908181526020018280546102a4906111b6565b80156102f15780601f106102c6576101008083540402835291602001916102f1565b820191906000526020600020905b8154815290600101906020018083116102d457829003601f168201915b5050505050905083565b604051806060016040528087878080601f016020809104026020016040519081016040528093929190818152602001838380828437600081840152601f19601f82011690508083019250505050505050815260200185858080601f016020809104026020016040519081016040528093929190818152602001838380828437600081840152601f19601f82011690508083019250505050505050815260200183838080601f016020809104026020016040519081016040528093929190818152602001838380828437600081840152601f19601f8201169050808301925050505050505081525060008b8b6040516103f4929190611217565b90815260200160405180910390208989604051610412929190611217565b9081526020016040518091039020600082015181600001908161043591906113e6565b50602082015181600101908161044b91906113e6565b50604082015181600201908161046191906113e6565b509050508787604051610475929190611217565b60405180910390208a8a60405161048d929190611217565b60405180910390207fb83e21ce40705b504118ca38d5277358e9aba62b1966344fdf0a411ebdc25e448888888888886040516104ce969594939291906114e5565b60405180910390a350505050505050505050565b6104ea610b16565b600085856040516104fc929190611217565b9081526020016040518091039020838360405161051a929190611217565b9081526020016040518091039020604051806060016040529081600082018054610543906111b6565b80601f016020809104026020016040519081016040528092919081815260200182805461056f906111b6565b80156105bc5780601f10610591576101008083540402835291602001916105bc565b820191906000526020600020905b81548152906001019060200180831161059f57829003601f168201915b505050505081526020016001820180546105d5906111b6565b80601f0160208091040260200160405190810160405280929190818152602001828054610601906111b6565b801561064e5780601f106106235761010080835404028352916020019161064e565b820191906000526020600020905b81548152906001019060200180831161063157829003601f168201915b50505050508152602001600282018054610667906111b6565b80601f0160208091040260200160405190810160405280929190818152602001828054610693906111b6565b80156106e05780601f106106b5576101008083540402835291602001916106e0565b820191906000526020600020905b8154815290600101906020018083116106c357829003601f168201915b5050505050815250509050949350505050565b6106fb610b16565b610703610b16565b60008888604051610715929190611217565b90815260200160405180910390208686604051610733929190611217565b908152602001604051809103902060008989604051610753929190611217565b90815260200160405180910390208585604051610771929190611217565b90815260200160405180910390208160405180606001604052908160008201805461079b906111b6565b80601f01602080910402602001604051908101604052809291908181526020018280546107c7906111b6565b80156108145780601f106107e957610100808354040283529160200191610814565b820191906000526020600020905b8154815290600101906020018083116107f757829003601f168201915b5050505050815260200160018201805461082d906111b6565b80601f0160208091040260200160405190810160405280929190818152602001828054610859906111b6565b80156108a65780601f1061087b576101008083540402835291602001916108a6565b820191906000526020600020905b81548152906001019060200180831161088957829003601f168201915b505050505081526020016002820180546108bf906111b6565b80601f01602080910402602001604051908101604052809291908181526020018280546108eb906111b6565b80156109385780601f1061090d57610100808354040283529160200191610938565b820191906000526020600020905b81548152906001019060200180831161091b57829003601f168201915b50505050508152505091508060405180606001604052908160008201805461095f906111b6565b80601f016020809104026020016040519081016040528092919081815260200182805461098b906111b6565b80156109d85780601f106109ad576101008083540402835291602001916109d8565b820191906000526020600020905b8154815290600101906020018083116109bb57829003601f168201915b505050505081526020016001820180546109f1906111b6565b80601f0160208091040260200160405190810160405280929190818152602001828054610a1d906111b6565b8015610a6a5780601f10610a3f57610100808354040283529160200191610a6a565b820191906000526020600020905b815481529060010190602001808311610a4d57829003601f168201915b50505050508152602001600282018054610a83906111b6565b80601f0160208091040260200160405190810160405280929190818152602001828054610aaf906111b6565b8015610afc5780601f10610ad157610100808354040283529160200191610afc565b820191906000526020600020905b815481529060010190602001808311610adf57829003601f168201915b505050505081525050905091509150965096945050505050565b60405180606001604052806060815260200160608152602001606081525090565b6000604051905090565b600080fd5b600080fd5b600080fd5b600080fd5b6000601f19601f8301169050919050565b7f4e487b7100000000000000000000000000000000000000000000000000000000600052604160045260246000fd5b610b9e82610b55565b810181811067ffffffffffffffff82111715610bbd57610bbc610b66565b5b80604052505050565b6000610bd0610b37565b9050610bdc8282610b95565b919050565b600067ffffffffffffffff821115610bfc57610bfb610b66565b5b610c0582610b55565b9050602081019050919050565b82818337600083830152505050565b6000610c34610c2f84610be1565b610bc6565b905082815260208101848484011115610c5057610c4f610b50565b5b610c5b848285610c12565b509392505050565b600082601f830112610c7857610c77610b4b565b5b8135610c88848260208601610c21565b91505092915050565b60008060408385031215610ca857610ca7610b41565b5b600083013567ffffffffffffffff811115610cc657610cc5610b46565b5b610cd285828601610c63565b925050602083013567ffffffffffffffff811115610cf357610cf2610b46565b5b610cff85828601610c63565b9150509250929050565b600081519050919050565b600082825260208201905092915050565b60005b83811015610d43578082015181840152602081019050610d28565b60008484015250505050565b6000610d5a82610d09565b610d648185610d14565b9350610d74818560208601610d25565b610d7d81610b55565b840191505092915050565b60006060820190508181036000830152610da28186610d4f565b90508181036020830152610db68185610d4f565b90508181036040830152610dca8184610d4f565b9050949350505050565b600080fd5b600080fd5b60008083601f840112610df457610df3610b4b565b5b8235905067ffffffffffffffff811115610e1157610e10610dd4565b5b602083019150836001820283011115610e2d57610e2c610dd9565b5b9250929050565b60008060008060008060008060008060a08b8d031215610e5757610e56610b41565b5b60008b013567ffffffffffffffff811115610e7557610e74610b46565b5b610e818d828e01610dde565b9a509a505060208b013567ffffffffffffffff811115610ea457610ea3610b46565b5b610eb08d828e01610dde565b985098505060408b013567ffffffffffffffff811115610ed357610ed2610b46565b5b610edf8d828e01610dde565b965096505060608b013567ffffffffffffffff811115610f0257610f01610b46565b5b610f0e8d828e01610dde565b945094505060808b013567ffffffffffffffff811115610f3157610f30610b46565b5b610f3d8d828e01610dde565b92509250509295989b9194979a5092959850565b60008060008060408587031215610f6b57610f6a610b41565b5b600085013567ffffffffffffffff811115610f8957610f88610b46565b5b610f9587828801610dde565b9450945050602085013567ffffffffffffffff811115610fb857610fb7610b46565b5b610fc487828801610dde565b925092505092959194509250565b600082825260208201905092915050565b6000610fee82610d09565b610ff88185610fd2565b9350611008818560208601610d25565b61101181610b55565b840191505092915050565b600060608301600083015184820360008601526110398282610fe3565b915050602083015184820360208601526110538282610fe3565b9150506040830151848203604086015261106d8282610fe3565b9150508091505092915050565b60006020820190508181036000830152611094818461101c565b905092915050565b600080600080600080606087890312156110b9576110b8610b41565b5b600087013567ffffffffffffffff8111156110d7576110d6610b46565b5b6110e389828a01610dde565b9650965050602087013567ffffffffffffffff81111561110657611105610b46565b5b61111289828a01610dde565b9450945050604087013567ffffffffffffffff81111561113557611134610b46565b5b61114189828a01610dde565b92509250509295509295509295565b6000604082019050818103600083015261116a818561101c565b9050818103602083015261117e818461101c565b90509392505050565b7f4e487b7100000000000000000000000000000000000000000000000000000000600052602260045260246000fd5b600060028204905060018216806111ce57607f821691505b6020821081036111e1576111e0611187565b5b50919050565b600081905092915050565b60006111fe83856111e7565b935061120b838584610c12565b82840190509392505050565b60006112248284866111f2565b91508190509392505050565b60008190508160005260206000209050919050565b60006020601f8301049050919050565b600082821b905092915050565b6000600883026112927fffffffffffffffffffffffffffffffffffffffffffffffffffffffffffffffff82611255565b61129c8683611255565b95508019841693508086168417925050509392505050565b6000819050919050565b6000819050919050565b60006112e36112de6112d9846112b4565b6112be565b6112b4565b9050919050565b6000819050919050565b6112fd836112c8565b611311611309826112ea565b848454611262565b825550505050565b600090565b611326611319565b6113318184846112f4565b505050565b5b818110156113555761134a60008261131e565b600181019050611337565b5050565b601f82111561139a5761136b81611230565b61137484611245565b81016020851015611383578190505b61139761138f85611245565b830182611336565b50505b505050565b600082821c905092915050565b60006113bd6000198460080261139f565b1980831691505092915050565b60006113d683836113ac565b9150826002028217905092915050565b6113ef82610d09565b67ffffffffffffffff81111561140857611407610b66565b5b61141282546111b6565b61141d828285611359565b600060209050601f831160018114611450576000841561143e578287015190505b61144885826113ca565b8655506114b0565b601f19841661145e86611230565b60005b8281101561148657848901518255600182019150602085019450602081019050611461565b868310156114a3578489015161149f601f8916826113ac565b8355505b6001600288020188555050505b505050505050565b60006114c48385610d14565b93506114d1838584610c12565b6114da83610b55565b840190509392505050565b6000606082019050818103600083015261150081888a6114b8565b905081810360208301526115158186886114b8565b9050818103604083015261152a8184866114b8565b905097965050505050505056fea2646970667358221220b818c85f7e92fe7b87bd997616b81640c614b397128adeefc504545913224a8f64736f6c63430008130033",
  "immutableReferences": {},
  "source": "// SPDX-License-Identifier: MIT\r\npragma solidity ^0.8.19;\r\n\r\ncontract DoctorAvailability {\r\n    struct DayAvailability {\r\n        string date;\r\n        string startTime;\r\n        string endTime;\r\n    }\r\n    \r\n    // Mapping: hhNumber => jour => disponibilits\r\n    mapping(string => mapping(string => DayAvailability)) public availabilities;\r\n    \r\n    event AvailabilitySet(\r\n        string indexed hhNumber, \r\n        string indexed day, \r\n        string date, \r\n        string startTime, \r\n        string endTime\r\n    );\r\n\r\n    function setAvailability(\r\n        string calldata hhNumber,\r\n        string calldata day,\r\n        string calldata date,\r\n        string calldata startTime,\r\n        string calldata endTime\r\n    ) external {\r\n        availabilities[hhNumber][day] = DayAvailability(date, startTime, endTime);\r\n        emit AvailabilitySet(hhNumber, day, date, startTime, endTime);\r\n    }\r\n\r\n    function getDayAvailability(\r\n        string calldata hhNumber, \r\n        string calldata day\r\n    ) external view returns (DayAvailability memory) {\r\n        return availabilities[hhNumber][day];\r\n    }\r\n\r\n    function getMultipleDaysAvailability(\r\n        string calldata hhNumber,\r\n        string calldata day1,\r\n        string calldata day2\r\n    ) external view returns (\r\n        DayAvailability memory,\r\n        DayAvailability memory\r\n    ) {\r\n        return (\r\n            availabilities[hhNumber][day1],\r\n            availabilities[hhNumber][day2]\r\n        );\r\n    }\r\n}",
  "sourcePath": "C:\\Users\\EliteBook\\BlockHealth\\src\\contracts\\DoctorAvailability.sol",
  "compiler": {
    "name": "solc",
    "version": "0.8.19+commit.7dd6d404.Emscripten.clang"
  },
  "schemaVersion": "3.4.16",
  "updatedAt": "2025-05-14T14:02:30.633Z",
  "devdoc": {
    "kind": "dev",
    "methods": {},
    "version": 1
  },
  "userdoc": {
    "kind": "user",
    "methods": {},
    "version": 1
  }
}