{
  "contractName": "DoctorRegistration",
  "abi": [
    {
      "anonymous": false,
      "inputs": [
        {
          "indexed": false,
          "internalType": "string",
          "name": "hhNumber",
          "type": "string"
        },
        {
          "indexed": false,
          "internalType": "string",
          "name": "doctorName",
          "type": "string"
        },
        {
          "indexed": false,
          "internalType": "address",
          "name": "walletAddress",
          "type": "address"
        }
      ],
      "name": "DoctorRegistered",
      "type": "event"
    },
    {
      "inputs": [
        {
          "internalType": "string",
          "name": "",
          "type": "string"
        },
        {
          "internalType": "string",
          "name": "",
          "type": "string"
        }
      ],
      "name": "doctorPermissions",
      "outputs": [
        {
          "internalType": "bool",
          "name": "",
          "type": "bool"
        }
      ],
      "stateMutability": "view",
      "type": "function",
      "constant": true
    },
    {
      "inputs": [
        {
          "internalType": "string",
          "name": "_doctorName",
          "type": "string"
        },
        {
          "internalType": "string",
          "name": "_hospitalName",
          "type": "string"
        },
        {
          "internalType": "string",
          "name": "_dateOfBirth",
          "type": "string"
        },
        {
          "internalType": "string",
          "name": "_gender",
          "type": "string"
        },
        {
          "internalType": "string",
          "name": "_email",
          "type": "string"
        },
        {
          "internalType": "string",
          "name": "_hhNumber",
          "type": "string"
        },
        {
          "internalType": "string",
          "name": "_specialization",
          "type": "string"
        },
        {
          "internalType": "string",
          "name": "_department",
          "type": "string"
        },
        {
          "internalType": "string",
          "name": "_designation",
          "type": "string"
        },
        {
          "internalType": "string",
          "name": "_workExperience",
          "type": "string"
        },
        {
          "internalType": "string",
          "name": "_password",
          "type": "string"
        }
      ],
      "name": "registerDoctor",
      "outputs": [],
      "stateMutability": "nonpayable",
      "type": "function"
    },
    {
      "inputs": [
        {
          "internalType": "string",
          "name": "_hhNumber",
          "type": "string"
        }
      ],
      "name": "isRegisteredDoctor",
      "outputs": [
        {
          "internalType": "bool",
          "name": "",
          "type": "bool"
        }
      ],
      "stateMutability": "view",
      "type": "function",
      "constant": true
    },
    {
      "inputs": [
        {
          "internalType": "string",
          "name": "_hhNumber",
          "type": "string"
        }
      ],
      "name": "getDoctorDetails",
      "outputs": [
        {
          "internalType": "address",
          "name": "_walletAddress",
          "type": "address"
        },
        {
          "internalType": "string",
          "name": "_doctorName",
          "type": "string"
        },
        {
          "internalType": "string",
          "name": "_hospitalName",
          "type": "string"
        },
        {
          "internalType": "string",
          "name": "_dateOfBirth",
          "type": "string"
        },
        {
          "internalType": "string",
          "name": "_gender",
          "type": "string"
        },
        {
          "internalType": "string",
          "name": "_email",
          "type": "string"
        },
        {
          "internalType": "string",
          "name": "_specialization",
          "type": "string"
        },
        {
          "internalType": "string",
          "name": "_department",
          "type": "string"
        },
        {
          "internalType": "string",
          "name": "_designation",
          "type": "string"
        },
        {
          "internalType": "string",
          "name": "_workExperience",
          "type": "string"
        }
      ],
      "stateMutability": "view",
      "type": "function",
      "constant": true
    },
    {
      "inputs": [
        {
          "internalType": "string",
          "name": "_hhNumber",
          "type": "string"
        },
        {
          "internalType": "string",
          "name": "_password",
          "type": "string"
        }
      ],
      "name": "validatePassword",
      "outputs": [
        {
          "internalType": "bool",
          "name": "",
          "type": "bool"
        }
      ],
      "stateMutability": "view",
      "type": "function",
      "constant": true
    },
    {
      "inputs": [
        {
          "internalType": "string",
          "name": "_patientNumber",
          "type": "string"
        },
        {
          "internalType": "string",
          "name": "_doctorNumber",
          "type": "string"
        },
        {
          "internalType": "string",
          "name": "_patientName",
          "type": "string"
        }
      ],
      "name": "grantPermission",
      "outputs": [],
      "stateMutability": "nonpayable",
      "type": "function"
    },
    {
      "inputs": [
        {
          "internalType": "string",
          "name": "_patientNumber",
          "type": "string"
        },
        {
          "internalType": "string",
          "name": "_doctorNumber",
          "type": "string"
        }
      ],
      "name": "isPermissionGranted",
      "outputs": [
        {
          "internalType": "bool",
          "name": "",
          "type": "bool"
        }
      ],
      "stateMutability": "view",
      "type": "function",
      "constant": true
    },
    {
      "inputs": [
        {
          "internalType": "string",
          "name": "_patientNumber",
          "type": "string"
        },
        {
          "internalType": "string",
          "name": "_doctorNumber",
          "type": "string"
        }
      ],
      "name": "revokePermission",
      "outputs": [],
      "stateMutability": "nonpayable",
      "type": "function"
    },
    {
      "inputs": [
        {
          "internalType": "string",
          "name": "_doctorNumber",
          "type": "string"
        }
      ],
      "name": "getPatientList",
      "outputs": [
        {
          "components": [
            {
              "internalType": "string",
              "name": "patient_number",
              "type": "string"
            },
            {
              "internalType": "string",
              "name": "patient_name",
              "type": "string"
            }
          ],
          "internalType": "struct DoctorRegistration.PatientList[]",
          "name": "",
          "type": "tuple[]"
        }
      ],
      "stateMutability": "view",
      "type": "function",
      "constant": true
    },
    {
      "inputs": [],
      "name": "getAllHhNumbers",
      "outputs": [
        {
          "internalType": "string[]",
          "name": "",
          "type": "string[]"
        }
      ],
      "stateMutability": "view",
      "type": "function",
      "constant": true
    }
  ],
  "bytecode": "0x608060405234801561001057600080fd5b50612685806100206000396000f3fe608060405234801561001057600080fd5b506004361061009e5760003560e01c80638616d403116100665780638616d4031461017457806391c12f7614610192578063a46bef15146101c2578063ac5f9fd0146101f2578063d120c10c1461020e5761009e565b80631cd1bd58146100a35780633e769767146100bf57806344334733146100f85780635df67040146101285780637babdb2614610144575b600080fd5b6100bd60048036038101906100b8919061176b565b61023e565b005b6100d960048036038101906100d49190611993565b610591565b6040516100ef9a99989796959493929190611a9c565b60405180910390f35b610112600480360381019061010d9190611b77565b610d6f565b60405161011f9190611c0a565b60405180910390f35b610142600480360381019061013d9190611c25565b610dca565b005b61015e60048036038101906101599190611b77565b610eb2565b60405161016b9190611c0a565b60405180910390f35b61017c610fd7565b6040516101899190611dd8565b60405180910390f35b6101ac60048036038101906101a79190611993565b6110b0565b6040516101b99190611f00565b60405180910390f35b6101dc60048036038101906101d79190611993565b611251565b6040516101e99190611c0a565b60405180910390f35b61020c60048036038101906102079190611b77565b6112c8565b005b61022860048036038101906102239190611b77565b611562565b6040516102359190611c0a565b60405180910390f35b600073ffffffffffffffffffffffffffffffffffffffff166000876040516102669190611f5e565b908152602001604051809103902060009054906101000a900473ffffffffffffffffffffffffffffffffffffffff1673ffffffffffffffffffffffffffffffffffffffff16146102eb576040517f08c379a00000000000000000000000000000000000000000000000000000000081526004016102e290611fc1565b60405180910390fd5b60006040518061018001604052803373ffffffffffffffffffffffffffffffffffffffff1681526020018d81526020018c81526020018b81526020018a8152602001898152602001888152602001878152602001868152602001858152602001848152602001838152509050806001886040516103689190611f5e565b908152602001604051809103902060008201518160000160006101000a81548173ffffffffffffffffffffffffffffffffffffffff021916908373ffffffffffffffffffffffffffffffffffffffff16021790555060208201518160010190816103d291906121f7565b5060408201518160020190816103e891906121f7565b5060608201518160030190816103fe91906121f7565b50608082015181600401908161041491906121f7565b5060a082015181600501908161042a91906121f7565b5060c082015181600601908161044091906121f7565b5060e082015181600701908161045691906121f7565b5061010082015181600801908161046d91906121f7565b5061012082015181600901908161048491906121f7565b5061014082015181600a01908161049b91906121f7565b5061016082015181600b0190816104b291906121f7565b50905050336000886040516104c79190611f5e565b908152602001604051809103902060006101000a81548173ffffffffffffffffffffffffffffffffffffffff021916908373ffffffffffffffffffffffffffffffffffffffff1602179055507f8d3f9c8a09dcd94bc9c847110caac40824996b777a45809b38b82b9aa3f71ec8878d33604051610546939291906122c9565b60405180910390a160048790806001815401808255809150506001900390600052602060002001600090919091909150908161058291906121f7565b50505050505050505050505050565b60006060806060806060806060806060600073ffffffffffffffffffffffffffffffffffffffff1660008c6040516105c99190611f5e565b908152602001604051809103902060009054906101000a900473ffffffffffffffffffffffffffffffffffffffff1673ffffffffffffffffffffffffffffffffffffffff160361064e576040517f08c379a00000000000000000000000000000000000000000000000000000000081526004016106459061235a565b60405180910390fd5b600060018c6040516106609190611f5e565b9081526020016040518091039020604051806101800160405290816000820160009054906101000a900473ffffffffffffffffffffffffffffffffffffffff1673ffffffffffffffffffffffffffffffffffffffff1673ffffffffffffffffffffffffffffffffffffffff1681526020016001820180546106e090612010565b80601f016020809104026020016040519081016040528092919081815260200182805461070c90612010565b80156107595780601f1061072e57610100808354040283529160200191610759565b820191906000526020600020905b81548152906001019060200180831161073c57829003601f168201915b5050505050815260200160028201805461077290612010565b80601f016020809104026020016040519081016040528092919081815260200182805461079e90612010565b80156107eb5780601f106107c0576101008083540402835291602001916107eb565b820191906000526020600020905b8154815290600101906020018083116107ce57829003601f168201915b5050505050815260200160038201805461080490612010565b80601f016020809104026020016040519081016040528092919081815260200182805461083090612010565b801561087d5780601f106108525761010080835404028352916020019161087d565b820191906000526020600020905b81548152906001019060200180831161086057829003601f168201915b5050505050815260200160048201805461089690612010565b80601f01602080910402602001604051908101604052809291908181526020018280546108c290612010565b801561090f5780601f106108e45761010080835404028352916020019161090f565b820191906000526020600020905b8154815290600101906020018083116108f257829003601f168201915b5050505050815260200160058201805461092890612010565b80601f016020809104026020016040519081016040528092919081815260200182805461095490612010565b80156109a15780601f10610976576101008083540402835291602001916109a1565b820191906000526020600020905b81548152906001019060200180831161098457829003601f168201915b505050505081526020016006820180546109ba90612010565b80601f01602080910402602001604051908101604052809291908181526020018280546109e690612010565b8015610a335780601f10610a0857610100808354040283529160200191610a33565b820191906000526020600020905b815481529060010190602001808311610a1657829003601f168201915b50505050508152602001600782018054610a4c90612010565b80601f0160208091040260200160405190810160405280929190818152602001828054610a7890612010565b8015610ac55780601f10610a9a57610100808354040283529160200191610ac5565b820191906000526020600020905b815481529060010190602001808311610aa857829003601f168201915b50505050508152602001600882018054610ade90612010565b80601f0160208091040260200160405190810160405280929190818152602001828054610b0a90612010565b8015610b575780601f10610b2c57610100808354040283529160200191610b57565b820191906000526020600020905b815481529060010190602001808311610b3a57829003601f168201915b50505050508152602001600982018054610b7090612010565b80601f0160208091040260200160405190810160405280929190818152602001828054610b9c90612010565b8015610be95780601f10610bbe57610100808354040283529160200191610be9565b820191906000526020600020905b815481529060010190602001808311610bcc57829003601f168201915b50505050508152602001600a82018054610c0290612010565b80601f0160208091040260200160405190810160405280929190818152602001828054610c2e90612010565b8015610c7b5780601f10610c5057610100808354040283529160200191610c7b565b820191906000526020600020905b815481529060010190602001808311610c5e57829003601f168201915b50505050508152602001600b82018054610c9490612010565b80601f0160208091040260200160405190810160405280929190818152602001828054610cc090612010565b8015610d0d5780601f10610ce257610100808354040283529160200191610d0d565b820191906000526020600020905b815481529060010190602001808311610cf057829003601f168201915b5050505050815250509050806000015181602001518260400151836060015184608001518560a001518660e001518761010001518861012001518961014001519a509a509a509a509a509a509a509a509a509a50509193959799509193959799565b600382805160208101820180518482526020830160208501208183528095505050505050818051602081018201805184825260208301602085012081835280955050505050506000915091509054906101000a900460ff1681565b60006040518060400160405280858152602001838152509050600283604051610df39190611f5e565b90815260200160405180910390208190806001815401808255809150506001900390600052602060002090600202016000909190919091506000820151816000019081610e4091906121f7565b506020820151816001019081610e5691906121f7565b5050506001600385604051610e6b9190611f5e565b908152602001604051809103902084604051610e879190611f5e565b908152602001604051809103902060006101000a81548160ff02191690831515021790555050505050565b60008073ffffffffffffffffffffffffffffffffffffffff16600084604051610edb9190611f5e565b908152602001604051809103902060009054906101000a900473ffffffffffffffffffffffffffffffffffffffff1673ffffffffffffffffffffffffffffffffffffffff1603610f60576040517f08c379a0000000000000000000000000000000000000000000000000000000008152600401610f579061235a565b60405180910390fd5b600183604051610f709190611f5e565b9081526020016040518091039020600b01604051602001610f9191906123fd565b6040516020818303038152906040528051906020012082604051602001610fb89190611f5e565b6040516020818303038152906040528051906020012014905092915050565b60606004805480602002602001604051908101604052809291908181526020016000905b828210156110a757838290600052602060002001805461101a90612010565b80601f016020809104026020016040519081016040528092919081815260200182805461104690612010565b80156110935780601f1061106857610100808354040283529160200191611093565b820191906000526020600020905b81548152906001019060200180831161107657829003601f168201915b505050505081526020019060010190610ffb565b50505050905090565b60606002826040516110c29190611f5e565b9081526020016040518091039020805480602002602001604051908101604052809291908181526020016000905b82821015611246578382906000526020600020906002020160405180604001604052908160008201805461112390612010565b80601f016020809104026020016040519081016040528092919081815260200182805461114f90612010565b801561119c5780601f106111715761010080835404028352916020019161119c565b820191906000526020600020905b81548152906001019060200180831161117f57829003601f168201915b505050505081526020016001820180546111b590612010565b80601f01602080910402602001604051908101604052809291908181526020018280546111e190612010565b801561122e5780601f106112035761010080835404028352916020019161122e565b820191906000526020600020905b81548152906001019060200180831161121157829003601f168201915b505050505081525050815260200190600101906110f0565b505050509050919050565b60008073ffffffffffffffffffffffffffffffffffffffff1660008360405161127a9190611f5e565b908152602001604051809103902060009054906101000a900473ffffffffffffffffffffffffffffffffffffffff1673ffffffffffffffffffffffffffffffffffffffff1614159050919050565b60006003836040516112da9190611f5e565b9081526020016040518091039020826040516112f69190611f5e565b908152602001604051809103902060006101000a81548160ff02191690831515021790555060005b60028260405161132e9190611f5e565b90815260200160405180910390208054905081101561155d57826040516020016113589190611f5e565b6040516020818303038152906040528051906020012060028360405161137e9190611f5e565b9081526020016040518091039020828154811061139e5761139d612414565b5b90600052602060002090600202016000016040516020016113bf91906123fd565b604051602081830303815290604052805190602001200361154a5760008190505b60016002846040516113f29190611f5e565b90815260200160405180910390208054905061140e9190612472565b8110156114dd576002836040516114259190611f5e565b908152602001604051809103902060018261144091906124a6565b8154811061145157611450612414565b5b906000526020600020906002020160028460405161146f9190611f5e565b9081526020016040518091039020828154811061148f5761148e612414565b5b9060005260206000209060020201600082018160000190816114b191906124f0565b50600182018160010190816114c691906124f0565b5090505080806114d5906125d8565b9150506113e0565b506002826040516114ee9190611f5e565b908152602001604051809103902080548061150c5761150b612620565b5b60019003818190600052602060002090600202016000808201600061153191906115b4565b60018201600061154191906115b4565b5050905561155d565b8080611555906125d8565b91505061131e565b505050565b60006003836040516115749190611f5e565b9081526020016040518091039020826040516115909190611f5e565b908152602001604051809103902060009054906101000a900460ff16905092915050565b5080546115c090612010565b6000825580601f106115d257506115f1565b601f0160209004906000526020600020908101906115f091906115f4565b5b50565b5b8082111561160d5760008160009055506001016115f5565b5090565b6000604051905090565b600080fd5b600080fd5b600080fd5b600080fd5b6000601f19601f8301169050919050565b7f4e487b7100000000000000000000000000000000000000000000000000000000600052604160045260246000fd5b6116788261162f565b810181811067ffffffffffffffff8211171561169757611696611640565b5b80604052505050565b60006116aa611611565b90506116b6828261166f565b919050565b600067ffffffffffffffff8211156116d6576116d5611640565b5b6116df8261162f565b9050602081019050919050565b82818337600083830152505050565b600061170e611709846116bb565b6116a0565b90508281526020810184848401111561172a5761172961162a565b5b6117358482856116ec565b509392505050565b600082601f83011261175257611751611625565b5b81356117628482602086016116fb565b91505092915050565b60008060008060008060008060008060006101608c8e0312156117915761179061161b565b5b60008c013567ffffffffffffffff8111156117af576117ae611620565b5b6117bb8e828f0161173d565b9b505060208c013567ffffffffffffffff8111156117dc576117db611620565b5b6117e88e828f0161173d565b9a505060408c013567ffffffffffffffff81111561180957611808611620565b5b6118158e828f0161173d565b99505060608c013567ffffffffffffffff81111561183657611835611620565b5b6118428e828f0161173d565b98505060808c013567ffffffffffffffff81111561186357611862611620565b5b61186f8e828f0161173d565b97505060a08c013567ffffffffffffffff8111156118905761188f611620565b5b61189c8e828f0161173d565b96505060c08c013567ffffffffffffffff8111156118bd576118bc611620565b5b6118c98e828f0161173d565b95505060e08c013567ffffffffffffffff8111156118ea576118e9611620565b5b6118f68e828f0161173d565b9450506101008c013567ffffffffffffffff81111561191857611917611620565b5b6119248e828f0161173d565b9350506101208c013567ffffffffffffffff81111561194657611945611620565b5b6119528e828f0161173d565b9250506101408c013567ffffffffffffffff81111561197457611973611620565b5b6119808e828f0161173d565b9150509295989b509295989b9093969950565b6000602082840312156119a9576119a861161b565b5b600082013567ffffffffffffffff8111156119c7576119c6611620565b5b6119d38482850161173d565b91505092915050565b600073ffffffffffffffffffffffffffffffffffffffff82169050919050565b6000611a07826119dc565b9050919050565b611a17816119fc565b82525050565b600081519050919050565b600082825260208201905092915050565b60005b83811015611a57578082015181840152602081019050611a3c565b60008484015250505050565b6000611a6e82611a1d565b611a788185611a28565b9350611a88818560208601611a39565b611a918161162f565b840191505092915050565b600061014082019050611ab2600083018d611a0e565b8181036020830152611ac4818c611a63565b90508181036040830152611ad8818b611a63565b90508181036060830152611aec818a611a63565b90508181036080830152611b008189611a63565b905081810360a0830152611b148188611a63565b905081810360c0830152611b288187611a63565b905081810360e0830152611b3c8186611a63565b9050818103610100830152611b518185611a63565b9050818103610120830152611b668184611a63565b90509b9a5050505050505050505050565b60008060408385031215611b8e57611b8d61161b565b5b600083013567ffffffffffffffff811115611bac57611bab611620565b5b611bb88582860161173d565b925050602083013567ffffffffffffffff811115611bd957611bd8611620565b5b611be58582860161173d565b9150509250929050565b60008115159050919050565b611c0481611bef565b82525050565b6000602082019050611c1f6000830184611bfb565b92915050565b600080600060608486031215611c3e57611c3d61161b565b5b600084013567ffffffffffffffff811115611c5c57611c5b611620565b5b611c688682870161173d565b935050602084013567ffffffffffffffff811115611c8957611c88611620565b5b611c958682870161173d565b925050604084013567ffffffffffffffff811115611cb657611cb5611620565b5b611cc28682870161173d565b9150509250925092565b600081519050919050565b600082825260208201905092915050565b6000819050602082019050919050565b600082825260208201905092915050565b6000611d1482611a1d565b611d1e8185611cf8565b9350611d2e818560208601611a39565b611d378161162f565b840191505092915050565b6000611d4e8383611d09565b905092915050565b6000602082019050919050565b6000611d6e82611ccc565b611d788185611cd7565b935083602082028501611d8a85611ce8565b8060005b85811015611dc65784840389528151611da78582611d42565b9450611db283611d56565b925060208a01995050600181019050611d8e565b50829750879550505050505092915050565b60006020820190508181036000830152611df28184611d63565b905092915050565b600081519050919050565b600082825260208201905092915050565b6000819050602082019050919050565b60006040830160008301518482036000860152611e438282611d09565b91505060208301518482036020860152611e5d8282611d09565b9150508091505092915050565b6000611e768383611e26565b905092915050565b6000602082019050919050565b6000611e9682611dfa565b611ea08185611e05565b935083602082028501611eb285611e16565b8060005b85811015611eee5784840389528151611ecf8582611e6a565b9450611eda83611e7e565b925060208a01995050600181019050611eb6565b50829750879550505050505092915050565b60006020820190508181036000830152611f1a8184611e8b565b905092915050565b600081905092915050565b6000611f3882611a1d565b611f428185611f22565b9350611f52818560208601611a39565b80840191505092915050565b6000611f6a8284611f2d565b915081905092915050565b7f446f63746f7220616c7265616479207265676973746572656400000000000000600082015250565b6000611fab601983611a28565b9150611fb682611f75565b602082019050919050565b60006020820190508181036000830152611fda81611f9e565b9050919050565b7f4e487b7100000000000000000000000000000000000000000000000000000000600052602260045260246000fd5b6000600282049050600182168061202857607f821691505b60208210810361203b5761203a611fe1565b5b50919050565b60008190508160005260206000209050919050565b60006020601f8301049050919050565b600082821b905092915050565b6000600883026120a37fffffffffffffffffffffffffffffffffffffffffffffffffffffffffffffffff82612066565b6120ad8683612066565b95508019841693508086168417925050509392505050565b6000819050919050565b6000819050919050565b60006120f46120ef6120ea846120c5565b6120cf565b6120c5565b9050919050565b6000819050919050565b61210e836120d9565b61212261211a826120fb565b848454612073565b825550505050565b600090565b61213761212a565b612142818484612105565b505050565b5b818110156121665761215b60008261212f565b600181019050612148565b5050565b601f8211156121ab5761217c81612041565b61218584612056565b81016020851015612194578190505b6121a86121a085612056565b830182612147565b50505b505050565b600082821c905092915050565b60006121ce600019846008026121b0565b1980831691505092915050565b60006121e783836121bd565b9150826002028217905092915050565b61220082611a1d565b67ffffffffffffffff81111561221957612218611640565b5b6122238254612010565b61222e82828561216a565b600060209050601f831160018114612261576000841561224f578287015190505b61225985826121db565b8655506122c1565b601f19841661226f86612041565b60005b8281101561229757848901518255600182019150602085019450602081019050612272565b868310156122b457848901516122b0601f8916826121bd565b8355505b6001600288020188555050505b505050505050565b600060608201905081810360008301526122e38186611a63565b905081810360208301526122f78185611a63565b90506123066040830184611a0e565b949350505050565b7f446f63746f72206e6f7420726567697374657265640000000000000000000000600082015250565b6000612344601583611a28565b915061234f8261230e565b602082019050919050565b6000602082019050818103600083015261237381612337565b9050919050565b6000815461238781612010565b6123918186611f22565b945060018216600081146123ac57600181146123c1576123f4565b60ff19831686528115158202860193506123f4565b6123ca85612041565b60005b838110156123ec578154818901526001820191506020810190506123cd565b838801955050505b50505092915050565b6000612409828461237a565b915081905092915050565b7f4e487b7100000000000000000000000000000000000000000000000000000000600052603260045260246000fd5b7f4e487b7100000000000000000000000000000000000000000000000000000000600052601160045260246000fd5b600061247d826120c5565b9150612488836120c5565b92508282039050818111156124a05761249f612443565b5b92915050565b60006124b1826120c5565b91506124bc836120c5565b92508282019050808211156124d4576124d3612443565b5b92915050565b6000815490506124e981612010565b9050919050565b8181036124fe5750506125d6565b612507826124da565b67ffffffffffffffff8111156125205761251f611640565b5b61252a8254612010565b61253582828561216a565b6000601f8311600181146125645760008415612552578287015490505b61255c85826121db565b8655506125cf565b601f19841661257287612041565b965061257d86612041565b60005b828110156125a557848901548255600182019150600185019450602081019050612580565b868310156125c257848901546125be601f8916826121bd565b8355505b6001600288020188555050505b5050505050505b565b60006125e3826120c5565b91507fffffffffffffffffffffffffffffffffffffffffffffffffffffffffffffffff820361261557612614612443565b5b600182019050919050565b7f4e487b7100000000000000000000000000000000000000000000000000000000600052603160045260246000fdfea2646970667358221220b49b676c68fbeefdef2f9564b54424094e4211c3640843cae0fd03e9510576f364736f6c63430008130033",
  "immutableReferences": {},
  "source": "// SPDX-License-Identifier: MIT\r\npragma solidity ^0.8.19;\r\n\r\ncontract DoctorRegistration {\r\n    struct Doctor {\r\n        address walletAddress;\r\n        string doctorName;\r\n        string hospitalName;\r\n        string dateOfBirth;\r\n        string gender;\r\n        string email;\r\n        string hhNumber;\r\n        string specialization;\r\n        string department;\r\n        string designation;\r\n        string workExperience;\r\n        string password;\r\n    }\r\n\r\n    struct PatientList {\r\n        string patient_number;\r\n        string patient_name;\r\n    }\r\n\r\n    mapping(string => address) private doctorAddresses;\r\n    mapping(string => Doctor) private doctors;\r\n    mapping(string => PatientList[]) private Dpermission;\r\n    mapping(string => mapping(string => bool)) public doctorPermissions;\r\n\r\n    string[] private allHhNumbers; //  Correction ici\r\n\r\n    event DoctorRegistered(string hhNumber, string doctorName, address walletAddress);\r\n\r\n    function registerDoctor(\r\n        string memory _doctorName,\r\n        string memory _hospitalName,\r\n        string memory _dateOfBirth,\r\n        string memory _gender,\r\n        string memory _email,\r\n        string memory _hhNumber,\r\n        string memory _specialization,\r\n        string memory _department,\r\n        string memory _designation,\r\n        string memory _workExperience,\r\n        string memory _password\r\n    ) external {\r\n        require(doctorAddresses[_hhNumber] == address(0), \"Doctor already registered\");\r\n\r\n        Doctor memory newDoctor = Doctor({\r\n            walletAddress: msg.sender,\r\n            doctorName: _doctorName,\r\n            hospitalName: _hospitalName,\r\n            dateOfBirth: _dateOfBirth,\r\n            gender: _gender,\r\n            email: _email,\r\n            hhNumber: _hhNumber,\r\n            specialization: _specialization,\r\n            department: _department,\r\n            designation: _designation,\r\n            workExperience: _workExperience,\r\n            password: _password\r\n        });\r\n\r\n        doctors[_hhNumber] = newDoctor;\r\n        doctorAddresses[_hhNumber] = msg.sender;\r\n        emit DoctorRegistered(_hhNumber, _doctorName, msg.sender);\r\n        allHhNumbers.push(_hhNumber); //  Ajout correct ici\r\n    }\r\n\r\n    function isRegisteredDoctor(string memory _hhNumber) external view returns (bool) {\r\n        return doctorAddresses[_hhNumber] != address(0);\r\n    }\r\n\r\n    function getDoctorDetails(string memory _hhNumber) external view returns (\r\n        address _walletAddress,\r\n        string memory _doctorName,\r\n        string memory _hospitalName,\r\n        string memory _dateOfBirth,\r\n        string memory _gender,\r\n        string memory _email,\r\n        string memory _specialization,\r\n        string memory _department,\r\n        string memory _designation,\r\n        string memory _workExperience\r\n    ) {\r\n        require(doctorAddresses[_hhNumber] != address(0), \"Doctor not registered\");\r\n        Doctor memory doctor = doctors[_hhNumber];\r\n        return (\r\n            doctor.walletAddress,\r\n            doctor.doctorName,\r\n            doctor.hospitalName,\r\n            doctor.dateOfBirth,\r\n            doctor.gender,\r\n            doctor.email,\r\n            doctor.specialization,\r\n            doctor.department,\r\n            doctor.designation,\r\n            doctor.workExperience\r\n        );\r\n    }\r\n\r\n    function validatePassword(string memory _hhNumber, string memory _password) external view returns (bool) {\r\n        require(doctorAddresses[_hhNumber] != address(0), \"Doctor not registered\");\r\n        return keccak256(abi.encodePacked(_password)) == keccak256(abi.encodePacked(doctors[_hhNumber].password));\r\n    }\r\n\r\n    function grantPermission(\r\n        string memory _patientNumber,\r\n        string memory _doctorNumber,\r\n        string memory _patientName\r\n    ) external {\r\n        PatientList memory newRecord = PatientList(_patientNumber, _patientName);\r\n        Dpermission[_doctorNumber].push(newRecord);\r\n        doctorPermissions[_patientNumber][_doctorNumber] = true;\r\n    }\r\n\r\n    function isPermissionGranted(string memory _patientNumber, string memory _doctorNumber) external view returns (bool) {\r\n        return doctorPermissions[_patientNumber][_doctorNumber];\r\n    }\r\n\r\n    function revokePermission(string memory _patientNumber, string memory _doctorNumber) public {\r\n        doctorPermissions[_patientNumber][_doctorNumber] = false;\r\n\r\n        // Remove the patient's record from the list\r\n        for (uint i = 0; i < Dpermission[_doctorNumber].length; i++) {\r\n            if (\r\n                keccak256(abi.encodePacked(Dpermission[_doctorNumber][i].patient_number)) ==\r\n                keccak256(abi.encodePacked(_patientNumber))\r\n            ) {\r\n                for (uint j = i; j < Dpermission[_doctorNumber].length - 1; j++) {\r\n                    Dpermission[_doctorNumber][j] = Dpermission[_doctorNumber][j + 1];\r\n                }\r\n                Dpermission[_doctorNumber].pop();\r\n                break;\r\n            }\r\n        }\r\n    }\r\n\r\n    function getPatientList(string memory _doctorNumber) public view returns (PatientList[] memory) {\r\n        return Dpermission[_doctorNumber];\r\n    }\r\n\r\n    function getAllHhNumbers() external view returns (string[] memory) {\r\n        return allHhNumbers;\r\n    }\r\n}\r\n",
  "sourcePath": "C:\\Users\\EliteBook\\BlockHealth\\src\\contracts\\DoctorRegistration.sol",
  "compiler": {
    "name": "solc",
    "version": "0.8.19+commit.7dd6d404.Emscripten.clang"
  },
  "schemaVersion": "3.4.16",
  "updatedAt": "2025-05-08T20:41:06.177Z",
  "networkType": "ethereum",
  "devdoc": {
    "kind": "dev",
    "methods": {},
    "version": 1
  },
  "userdoc": {
    "kind": "user",
    "methods": {},
    "version": 1
  }
}