{
  "contractName": "DoctorRegistration",
  "abi": [
    {
      "anonymous": false,
      "inputs": [
        {
          "indexed": false,
          "internalType": "string",
          "name": "hhNumber",
          "type": "string"
        },
        {
          "indexed": false,
          "internalType": "string",
          "name": "specialization",
          "type": "string"
        }
      ],
      "name": "DoctorAddedToSpecialization",
      "type": "event"
    },
    {
      "anonymous": false,
      "inputs": [
        {
          "indexed": false,
          "internalType": "string",
          "name": "hhNumber",
          "type": "string"
        },
        {
          "indexed": false,
          "internalType": "string",
          "name": "doctorName",
          "type": "string"
        },
        {
          "indexed": false,
          "internalType": "address",
          "name": "walletAddress",
          "type": "address"
        }
      ],
      "name": "DoctorRegistered",
      "type": "event"
    },
    {
      "inputs": [
        {
          "internalType": "string",
          "name": "",
          "type": "string"
        },
        {
          "internalType": "string",
          "name": "",
          "type": "string"
        }
      ],
      "name": "doctorPermissions",
      "outputs": [
        {
          "internalType": "bool",
          "name": "",
          "type": "bool"
        }
      ],
      "stateMutability": "view",
      "type": "function",
      "constant": true
    },
    {
      "inputs": [
        {
          "internalType": "string",
          "name": "",
          "type": "string"
        },
        {
          "internalType": "uint256",
          "name": "",
          "type": "uint256"
        }
      ],
      "name": "doctorsBySpecialization",
      "outputs": [
        {
          "internalType": "string",
          "name": "",
          "type": "string"
        }
      ],
      "stateMutability": "view",
      "type": "function",
      "constant": true
    },
    {
      "inputs": [
        {
          "internalType": "string",
          "name": "_doctorName",
          "type": "string"
        },
        {
          "internalType": "string",
          "name": "_hospitalName",
          "type": "string"
        },
        {
          "internalType": "string",
          "name": "_dateOfBirth",
          "type": "string"
        },
        {
          "internalType": "string",
          "name": "_gender",
          "type": "string"
        },
        {
          "internalType": "string",
          "name": "_email",
          "type": "string"
        },
        {
          "internalType": "string",
          "name": "_hhNumber",
          "type": "string"
        },
        {
          "internalType": "string",
          "name": "_specialization",
          "type": "string"
        },
        {
          "internalType": "string",
          "name": "_department",
          "type": "string"
        },
        {
          "internalType": "string",
          "name": "_designation",
          "type": "string"
        },
        {
          "internalType": "string",
          "name": "_workExperience",
          "type": "string"
        },
        {
          "internalType": "string",
          "name": "_password",
          "type": "string"
        }
      ],
      "name": "registerDoctor",
      "outputs": [],
      "stateMutability": "nonpayable",
      "type": "function"
    },
    {
      "inputs": [
        {
          "internalType": "string",
          "name": "_hhNumber",
          "type": "string"
        }
      ],
      "name": "isRegisteredDoctor",
      "outputs": [
        {
          "internalType": "bool",
          "name": "",
          "type": "bool"
        }
      ],
      "stateMutability": "view",
      "type": "function",
      "constant": true
    },
    {
      "inputs": [
        {
          "internalType": "string",
          "name": "_hhNumber",
          "type": "string"
        }
      ],
      "name": "getDoctorDetails",
      "outputs": [
        {
          "internalType": "address",
          "name": "_walletAddress",
          "type": "address"
        },
        {
          "internalType": "string",
          "name": "_doctorName",
          "type": "string"
        },
        {
          "internalType": "string",
          "name": "_hospitalName",
          "type": "string"
        },
        {
          "internalType": "string",
          "name": "_dateOfBirth",
          "type": "string"
        },
        {
          "internalType": "string",
          "name": "_gender",
          "type": "string"
        },
        {
          "internalType": "string",
          "name": "_email",
          "type": "string"
        },
        {
          "internalType": "string",
          "name": "_specialization",
          "type": "string"
        },
        {
          "internalType": "string",
          "name": "_department",
          "type": "string"
        },
        {
          "internalType": "string",
          "name": "_designation",
          "type": "string"
        },
        {
          "internalType": "string",
          "name": "_workExperience",
          "type": "string"
        }
      ],
      "stateMutability": "view",
      "type": "function",
      "constant": true
    },
    {
      "inputs": [
        {
          "internalType": "string",
          "name": "_hhNumber",
          "type": "string"
        },
        {
          "internalType": "string",
          "name": "_password",
          "type": "string"
        }
      ],
      "name": "validatePassword",
      "outputs": [
        {
          "internalType": "bool",
          "name": "",
          "type": "bool"
        }
      ],
      "stateMutability": "view",
      "type": "function",
      "constant": true
    },
    {
      "inputs": [
        {
          "internalType": "address",
          "name": "doctorAddress",
          "type": "address"
        },
        {
          "internalType": "string",
          "name": "specialization",
          "type": "string"
        }
      ],
      "name": "isDoctorInSpecialization",
      "outputs": [
        {
          "internalType": "bool",
          "name": "",
          "type": "bool"
        }
      ],
      "stateMutability": "view",
      "type": "function",
      "constant": true
    },
    {
      "inputs": [
        {
          "internalType": "string",
          "name": "specialization",
          "type": "string"
        }
      ],
      "name": "getDoctorsBySpecialization",
      "outputs": [
        {
          "internalType": "string[]",
          "name": "",
          "type": "string[]"
        }
      ],
      "stateMutability": "view",
      "type": "function",
      "constant": true
    },
    {
      "inputs": [
        {
          "internalType": "string",
          "name": "_patientNumber",
          "type": "string"
        },
        {
          "internalType": "string",
          "name": "_doctorNumber",
          "type": "string"
        },
        {
          "internalType": "string",
          "name": "_patientName",
          "type": "string"
        }
      ],
      "name": "grantPermission",
      "outputs": [],
      "stateMutability": "nonpayable",
      "type": "function"
    },
    {
      "inputs": [
        {
          "internalType": "string",
          "name": "_patientNumber",
          "type": "string"
        },
        {
          "internalType": "string",
          "name": "_doctorNumber",
          "type": "string"
        }
      ],
      "name": "isPermissionGranted",
      "outputs": [
        {
          "internalType": "bool",
          "name": "",
          "type": "bool"
        }
      ],
      "stateMutability": "view",
      "type": "function",
      "constant": true
    },
    {
      "inputs": [
        {
          "internalType": "string",
          "name": "_patientNumber",
          "type": "string"
        },
        {
          "internalType": "string",
          "name": "_doctorNumber",
          "type": "string"
        }
      ],
      "name": "revokePermission",
      "outputs": [],
      "stateMutability": "nonpayable",
      "type": "function"
    },
    {
      "inputs": [
        {
          "internalType": "string",
          "name": "_doctorNumber",
          "type": "string"
        }
      ],
      "name": "getPatientList",
      "outputs": [
        {
          "components": [
            {
              "internalType": "string",
              "name": "patient_number",
              "type": "string"
            },
            {
              "internalType": "string",
              "name": "patient_name",
              "type": "string"
            }
          ],
          "internalType": "struct DoctorRegistration.PatientList[]",
          "name": "",
          "type": "tuple[]"
        }
      ],
      "stateMutability": "view",
      "type": "function",
      "constant": true
    },
    {
      "inputs": [],
      "name": "getAllHhNumbers",
      "outputs": [
        {
          "internalType": "string[]",
          "name": "",
          "type": "string[]"
        }
      ],
      "stateMutability": "view",
      "type": "function",
      "constant": true
    }
  ],
  "bytecode": "0x608060405234801561001057600080fd5b50612ed3806100206000396000f3fe608060405234801561001057600080fd5b50600436106100cf5760003560e01c80638616d4031161008c578063ac5f9fd011610066578063ac5f9fd014610253578063c241cdd71461026f578063c4029c651461029f578063d120c10c146102cf576100cf565b80638616d403146101d557806391c12f76146101f3578063a46bef1514610223576100cf565b80631cd1bd58146100d45780633e769767146100f057806344334733146101295780635df6704014610159578063692e0193146101755780637babdb26146101a5575b600080fd5b6100ee60048036038101906100e99190611e0e565b6102ff565b005b61010a60048036038101906101059190612036565b6106ea565b6040516101209a9998979695949392919061213f565b60405180910390f35b610143600480360381019061013e919061221a565b610ec8565b60405161015091906122ad565b60405180910390f35b610173600480360381019061016e91906122c8565b610f23565b005b61018f600480360381019061018a91906123a5565b61100b565b60405161019c9190612401565b60405180910390f35b6101bf60048036038101906101ba919061221a565b6110da565b6040516101cc91906122ad565b60405180910390f35b6101dd6111ff565b6040516101ea919061252f565b60405180910390f35b61020d60048036038101906102089190612036565b6112d8565b60405161021a9190612657565b60405180910390f35b61023d60048036038101906102389190612036565b611479565b60405161024a91906122ad565b60405180910390f35b61026d6004803603810190610268919061221a565b6114f0565b005b61028960048036038101906102849190612036565b61178a565b604051610296919061252f565b60405180910390f35b6102b960048036038101906102b491906126a5565b611889565b6040516102c691906122ad565b60405180910390f35b6102e960048036038101906102e4919061221a565b611a4d565b6040516102f691906122ad565b60405180910390f35b600073ffffffffffffffffffffffffffffffffffffffff16600087604051610327919061273d565b908152602001604051809103902060009054906101000a900473ffffffffffffffffffffffffffffffffffffffff1673ffffffffffffffffffffffffffffffffffffffff16146103ac576040517f08c379a00000000000000000000000000000000000000000000000000000000081526004016103a3906127a0565b60405180910390fd5b60006103b786611a9f565b905060006040518061018001604052803373ffffffffffffffffffffffffffffffffffffffff1681526020018e81526020018d81526020018c81526020018b81526020018a815260200189815260200183815260200187815260200186815260200185815260200184815250905080600189604051610436919061273d565b908152602001604051809103902060008201518160000160006101000a81548173ffffffffffffffffffffffffffffffffffffffff021916908373ffffffffffffffffffffffffffffffffffffffff16021790555060208201518160010190816104a091906129cc565b5060408201518160020190816104b691906129cc565b5060608201518160030190816104cc91906129cc565b5060808201518160040190816104e291906129cc565b5060a08201518160050190816104f891906129cc565b5060c082015181600601908161050e91906129cc565b5060e082015181600701908161052491906129cc565b5061010082015181600801908161053b91906129cc565b5061012082015181600901908161055291906129cc565b5061014082015181600a01908161056991906129cc565b5061016082015181600b01908161058091906129cc565b5090505033600089604051610595919061273d565b908152602001604051809103902060006101000a81548173ffffffffffffffffffffffffffffffffffffffff021916908373ffffffffffffffffffffffffffffffffffffffff16021790555060068890806001815401808255809150506001900390600052602060002001600090919091909150908161061591906129cc565b50600582604051610626919061273d565b90815260200160405180910390208890806001815401808255809150506001900390600052602060002001600090919091909150908161066691906129cc565b507f8d3f9c8a09dcd94bc9c847110caac40824996b777a45809b38b82b9aa3f71ec8888e3360405161069a93929190612a9e565b60405180910390a17f67f45542d78a57363bd55cb927d33c98d2427123d1dba8816bce65241b20b1cc88836040516106d3929190612ae3565b60405180910390a150505050505050505050505050565b60006060806060806060806060806060600073ffffffffffffffffffffffffffffffffffffffff1660008c604051610722919061273d565b908152602001604051809103902060009054906101000a900473ffffffffffffffffffffffffffffffffffffffff1673ffffffffffffffffffffffffffffffffffffffff16036107a7576040517f08c379a000000000000000000000000000000000000000000000000000000000815260040161079e90612b66565b60405180910390fd5b600060018c6040516107b9919061273d565b9081526020016040518091039020604051806101800160405290816000820160009054906101000a900473ffffffffffffffffffffffffffffffffffffffff1673ffffffffffffffffffffffffffffffffffffffff1673ffffffffffffffffffffffffffffffffffffffff168152602001600182018054610839906127ef565b80601f0160208091040260200160405190810160405280929190818152602001828054610865906127ef565b80156108b25780601f10610887576101008083540402835291602001916108b2565b820191906000526020600020905b81548152906001019060200180831161089557829003601f168201915b505050505081526020016002820180546108cb906127ef565b80601f01602080910402602001604051908101604052809291908181526020018280546108f7906127ef565b80156109445780601f1061091957610100808354040283529160200191610944565b820191906000526020600020905b81548152906001019060200180831161092757829003601f168201915b5050505050815260200160038201805461095d906127ef565b80601f0160208091040260200160405190810160405280929190818152602001828054610989906127ef565b80156109d65780601f106109ab576101008083540402835291602001916109d6565b820191906000526020600020905b8154815290600101906020018083116109b957829003601f168201915b505050505081526020016004820180546109ef906127ef565b80601f0160208091040260200160405190810160405280929190818152602001828054610a1b906127ef565b8015610a685780601f10610a3d57610100808354040283529160200191610a68565b820191906000526020600020905b815481529060010190602001808311610a4b57829003601f168201915b50505050508152602001600582018054610a81906127ef565b80601f0160208091040260200160405190810160405280929190818152602001828054610aad906127ef565b8015610afa5780601f10610acf57610100808354040283529160200191610afa565b820191906000526020600020905b815481529060010190602001808311610add57829003601f168201915b50505050508152602001600682018054610b13906127ef565b80601f0160208091040260200160405190810160405280929190818152602001828054610b3f906127ef565b8015610b8c5780601f10610b6157610100808354040283529160200191610b8c565b820191906000526020600020905b815481529060010190602001808311610b6f57829003601f168201915b50505050508152602001600782018054610ba5906127ef565b80601f0160208091040260200160405190810160405280929190818152602001828054610bd1906127ef565b8015610c1e5780601f10610bf357610100808354040283529160200191610c1e565b820191906000526020600020905b815481529060010190602001808311610c0157829003601f168201915b50505050508152602001600882018054610c37906127ef565b80601f0160208091040260200160405190810160405280929190818152602001828054610c63906127ef565b8015610cb05780601f10610c8557610100808354040283529160200191610cb0565b820191906000526020600020905b815481529060010190602001808311610c9357829003601f168201915b50505050508152602001600982018054610cc9906127ef565b80601f0160208091040260200160405190810160405280929190818152602001828054610cf5906127ef565b8015610d425780601f10610d1757610100808354040283529160200191610d42565b820191906000526020600020905b815481529060010190602001808311610d2557829003601f168201915b50505050508152602001600a82018054610d5b906127ef565b80601f0160208091040260200160405190810160405280929190818152602001828054610d87906127ef565b8015610dd45780601f10610da957610100808354040283529160200191610dd4565b820191906000526020600020905b815481529060010190602001808311610db757829003601f168201915b50505050508152602001600b82018054610ded906127ef565b80601f0160208091040260200160405190810160405280929190818152602001828054610e19906127ef565b8015610e665780601f10610e3b57610100808354040283529160200191610e66565b820191906000526020600020905b815481529060010190602001808311610e4957829003601f168201915b5050505050815250509050806000015181602001518260400151836060015184608001518560a001518660e001518761010001518861012001518961014001519a509a509a509a509a509a509a509a509a509a50509193959799509193959799565b600382805160208101820180518482526020830160208501208183528095505050505050818051602081018201805184825260208301602085012081835280955050505050506000915091509054906101000a900460ff1681565b60006040518060400160405280858152602001838152509050600283604051610f4c919061273d565b90815260200160405180910390208190806001815401808255809150506001900390600052602060002090600202016000909190919091506000820151816000019081610f9991906129cc565b506020820151816001019081610faf91906129cc565b5050506001600385604051610fc4919061273d565b908152602001604051809103902084604051610fe0919061273d565b908152602001604051809103902060006101000a81548160ff02191690831515021790555050505050565b600582805160208101820180518482526020830160208501208183528095505050505050818154811061103d57600080fd5b90600052602060002001600091509150508054611059906127ef565b80601f0160208091040260200160405190810160405280929190818152602001828054611085906127ef565b80156110d25780601f106110a7576101008083540402835291602001916110d2565b820191906000526020600020905b8154815290600101906020018083116110b557829003601f168201915b505050505081565b60008073ffffffffffffffffffffffffffffffffffffffff16600084604051611103919061273d565b908152602001604051809103902060009054906101000a900473ffffffffffffffffffffffffffffffffffffffff1673ffffffffffffffffffffffffffffffffffffffff1603611188576040517f08c379a000000000000000000000000000000000000000000000000000000000815260040161117f90612b66565b60405180910390fd5b600183604051611198919061273d565b9081526020016040518091039020600b016040516020016111b99190612c09565b60405160208183030381529060405280519060200120826040516020016111e0919061273d565b6040516020818303038152906040528051906020012014905092915050565b60606006805480602002602001604051908101604052809291908181526020016000905b828210156112cf578382906000526020600020018054611242906127ef565b80601f016020809104026020016040519081016040528092919081815260200182805461126e906127ef565b80156112bb5780601f10611290576101008083540402835291602001916112bb565b820191906000526020600020905b81548152906001019060200180831161129e57829003601f168201915b505050505081526020019060010190611223565b50505050905090565b60606002826040516112ea919061273d565b9081526020016040518091039020805480602002602001604051908101604052809291908181526020016000905b8282101561146e578382906000526020600020906002020160405180604001604052908160008201805461134b906127ef565b80601f0160208091040260200160405190810160405280929190818152602001828054611377906127ef565b80156113c45780601f10611399576101008083540402835291602001916113c4565b820191906000526020600020905b8154815290600101906020018083116113a757829003601f168201915b505050505081526020016001820180546113dd906127ef565b80601f0160208091040260200160405190810160405280929190818152602001828054611409906127ef565b80156114565780601f1061142b57610100808354040283529160200191611456565b820191906000526020600020905b81548152906001019060200180831161143957829003601f168201915b50505050508152505081526020019060010190611318565b505050509050919050565b60008073ffffffffffffffffffffffffffffffffffffffff166000836040516114a2919061273d565b908152602001604051809103902060009054906101000a900473ffffffffffffffffffffffffffffffffffffffff1673ffffffffffffffffffffffffffffffffffffffff1614159050919050565b6000600383604051611502919061273d565b90815260200160405180910390208260405161151e919061273d565b908152602001604051809103902060006101000a81548160ff02191690831515021790555060005b600282604051611556919061273d565b9081526020016040518091039020805490508110156117855782604051602001611580919061273d565b604051602081830303815290604052805190602001206002836040516115a6919061273d565b908152602001604051809103902082815481106115c6576115c5612c20565b5b90600052602060002090600202016000016040516020016115e79190612c09565b60405160208183030381529060405280519060200120036117725760008190505b600160028460405161161a919061273d565b9081526020016040518091039020805490506116369190612c7e565b8110156117055760028360405161164d919061273d565b90815260200160405180910390206001826116689190612cb2565b8154811061167957611678612c20565b5b9060005260206000209060020201600284604051611697919061273d565b908152602001604051809103902082815481106116b7576116b6612c20565b5b9060005260206000209060020201600082018160000190816116d99190612cfc565b50600182018160010190816116ee9190612cfc565b5090505080806116fd90612de4565b915050611608565b50600282604051611716919061273d565b908152602001604051809103902080548061173457611733612e2c565b5b6001900381819060005260206000209060020201600080820160006117599190611c57565b6001820160006117699190611c57565b50509055611785565b808061177d90612de4565b915050611546565b505050565b6060600561179783611a9f565b6040516117a4919061273d565b9081526020016040518091039020805480602002602001604051908101604052809291908181526020016000905b8282101561187e5783829060005260206000200180546117f1906127ef565b80601f016020809104026020016040519081016040528092919081815260200182805461181d906127ef565b801561186a5780601f1061183f5761010080835404028352916020019161186a565b820191906000526020600020905b81548152906001019060200180831161184d57829003601f168201915b5050505050815260200190600101906117d2565b505050509050919050565b60008061189583611a9f565b905060006005826040516118a9919061273d565b9081526020016040518091039020805480602002602001604051908101604052809291908181526020016000905b828210156119835783829060005260206000200180546118f6906127ef565b80601f0160208091040260200160405190810160405280929190818152602001828054611922906127ef565b801561196f5780601f106119445761010080835404028352916020019161196f565b820191906000526020600020905b81548152906001019060200180831161195257829003601f168201915b5050505050815260200190600101906118d7565b50505050905060005b8151811015611a3f578573ffffffffffffffffffffffffffffffffffffffff1660008383815181106119c1576119c0612c20565b5b60200260200101516040516119d6919061273d565b908152602001604051809103902060009054906101000a900473ffffffffffffffffffffffffffffffffffffffff1673ffffffffffffffffffffffffffffffffffffffff1603611a2c5760019350505050611a47565b8080611a3790612de4565b91505061198c565b506000925050505b92915050565b6000600383604051611a5f919061273d565b908152602001604051809103902082604051611a7b919061273d565b908152602001604051809103902060009054906101000a900460ff16905092915050565b606060008290506000815167ffffffffffffffff811115611ac357611ac2611ce3565b5b6040519080825280601f01601f191660200182016040528015611af55781602001600182028036833780820191505090505b50905060005b8251811015611c4c576041838281518110611b1957611b18612c20565b5b602001015160f81c60f81b60f81c60ff1610158015611b5c5750605a838281518110611b4857611b47612c20565b5b602001015160f81c60f81b60f81c60ff1611155b15611bd8576020838281518110611b7657611b75612c20565b5b602001015160f81c60f81b60f81c611b8e9190612e68565b60f81b828281518110611ba457611ba3612c20565b5b60200101907effffffffffffffffffffffffffffffffffffffffffffffffffffffffffffff1916908160001a905350611c39565b828181518110611beb57611bea612c20565b5b602001015160f81c60f81b828281518110611c0957611c08612c20565b5b60200101907effffffffffffffffffffffffffffffffffffffffffffffffffffffffffffff1916908160001a9053505b8080611c4490612de4565b915050611afb565b508092505050919050565b508054611c63906127ef565b6000825580601f10611c755750611c94565b601f016020900490600052602060002090810190611c939190611c97565b5b50565b5b80821115611cb0576000816000905550600101611c98565b5090565b6000604051905090565b600080fd5b600080fd5b600080fd5b600080fd5b6000601f19601f8301169050919050565b7f4e487b7100000000000000000000000000000000000000000000000000000000600052604160045260246000fd5b611d1b82611cd2565b810181811067ffffffffffffffff82111715611d3a57611d39611ce3565b5b80604052505050565b6000611d4d611cb4565b9050611d598282611d12565b919050565b600067ffffffffffffffff821115611d7957611d78611ce3565b5b611d8282611cd2565b9050602081019050919050565b82818337600083830152505050565b6000611db1611dac84611d5e565b611d43565b905082815260208101848484011115611dcd57611dcc611ccd565b5b611dd8848285611d8f565b509392505050565b600082601f830112611df557611df4611cc8565b5b8135611e05848260208601611d9e565b91505092915050565b60008060008060008060008060008060006101608c8e031215611e3457611e33611cbe565b5b60008c013567ffffffffffffffff811115611e5257611e51611cc3565b5b611e5e8e828f01611de0565b9b505060208c013567ffffffffffffffff811115611e7f57611e7e611cc3565b5b611e8b8e828f01611de0565b9a505060408c013567ffffffffffffffff811115611eac57611eab611cc3565b5b611eb88e828f01611de0565b99505060608c013567ffffffffffffffff811115611ed957611ed8611cc3565b5b611ee58e828f01611de0565b98505060808c013567ffffffffffffffff811115611f0657611f05611cc3565b5b611f128e828f01611de0565b97505060a08c013567ffffffffffffffff811115611f3357611f32611cc3565b5b611f3f8e828f01611de0565b96505060c08c013567ffffffffffffffff811115611f6057611f5f611cc3565b5b611f6c8e828f01611de0565b95505060e08c013567ffffffffffffffff811115611f8d57611f8c611cc3565b5b611f998e828f01611de0565b9450506101008c013567ffffffffffffffff811115611fbb57611fba611cc3565b5b611fc78e828f01611de0565b9350506101208c013567ffffffffffffffff811115611fe957611fe8611cc3565b5b611ff58e828f01611de0565b9250506101408c013567ffffffffffffffff81111561201757612016611cc3565b5b6120238e828f01611de0565b9150509295989b509295989b9093969950565b60006020828403121561204c5761204b611cbe565b5b600082013567ffffffffffffffff81111561206a57612069611cc3565b5b61207684828501611de0565b91505092915050565b600073ffffffffffffffffffffffffffffffffffffffff82169050919050565b60006120aa8261207f565b9050919050565b6120ba8161209f565b82525050565b600081519050919050565b600082825260208201905092915050565b60005b838110156120fa5780820151818401526020810190506120df565b60008484015250505050565b6000612111826120c0565b61211b81856120cb565b935061212b8185602086016120dc565b61213481611cd2565b840191505092915050565b600061014082019050612155600083018d6120b1565b8181036020830152612167818c612106565b9050818103604083015261217b818b612106565b9050818103606083015261218f818a612106565b905081810360808301526121a38189612106565b905081810360a08301526121b78188612106565b905081810360c08301526121cb8187612106565b905081810360e08301526121df8186612106565b90508181036101008301526121f48185612106565b90508181036101208301526122098184612106565b90509b9a5050505050505050505050565b6000806040838503121561223157612230611cbe565b5b600083013567ffffffffffffffff81111561224f5761224e611cc3565b5b61225b85828601611de0565b925050602083013567ffffffffffffffff81111561227c5761227b611cc3565b5b61228885828601611de0565b9150509250929050565b60008115159050919050565b6122a781612292565b82525050565b60006020820190506122c2600083018461229e565b92915050565b6000806000606084860312156122e1576122e0611cbe565b5b600084013567ffffffffffffffff8111156122ff576122fe611cc3565b5b61230b86828701611de0565b935050602084013567ffffffffffffffff81111561232c5761232b611cc3565b5b61233886828701611de0565b925050604084013567ffffffffffffffff81111561235957612358611cc3565b5b61236586828701611de0565b9150509250925092565b6000819050919050565b6123828161236f565b811461238d57600080fd5b50565b60008135905061239f81612379565b92915050565b600080604083850312156123bc576123bb611cbe565b5b600083013567ffffffffffffffff8111156123da576123d9611cc3565b5b6123e685828601611de0565b92505060206123f785828601612390565b9150509250929050565b6000602082019050818103600083015261241b8184612106565b905092915050565b600081519050919050565b600082825260208201905092915050565b6000819050602082019050919050565b600082825260208201905092915050565b600061246b826120c0565b612475818561244f565b93506124858185602086016120dc565b61248e81611cd2565b840191505092915050565b60006124a58383612460565b905092915050565b6000602082019050919050565b60006124c582612423565b6124cf818561242e565b9350836020820285016124e18561243f565b8060005b8581101561251d57848403895281516124fe8582612499565b9450612509836124ad565b925060208a019950506001810190506124e5565b50829750879550505050505092915050565b6000602082019050818103600083015261254981846124ba565b905092915050565b600081519050919050565b600082825260208201905092915050565b6000819050602082019050919050565b6000604083016000830151848203600086015261259a8282612460565b915050602083015184820360208601526125b48282612460565b9150508091505092915050565b60006125cd838361257d565b905092915050565b6000602082019050919050565b60006125ed82612551565b6125f7818561255c565b9350836020820285016126098561256d565b8060005b85811015612645578484038952815161262685826125c1565b9450612631836125d5565b925060208a0199505060018101905061260d565b50829750879550505050505092915050565b6000602082019050818103600083015261267181846125e2565b905092915050565b6126828161209f565b811461268d57600080fd5b50565b60008135905061269f81612679565b92915050565b600080604083850312156126bc576126bb611cbe565b5b60006126ca85828601612690565b925050602083013567ffffffffffffffff8111156126eb576126ea611cc3565b5b6126f785828601611de0565b9150509250929050565b600081905092915050565b6000612717826120c0565b6127218185612701565b93506127318185602086016120dc565b80840191505092915050565b6000612749828461270c565b915081905092915050565b7f446f63746f7220616c7265616479207265676973746572656400000000000000600082015250565b600061278a6019836120cb565b915061279582612754565b602082019050919050565b600060208201905081810360008301526127b98161277d565b9050919050565b7f4e487b7100000000000000000000000000000000000000000000000000000000600052602260045260246000fd5b6000600282049050600182168061280757607f821691505b60208210810361281a576128196127c0565b5b50919050565b60008190508160005260206000209050919050565b60006020601f8301049050919050565b600082821b905092915050565b6000600883026128827fffffffffffffffffffffffffffffffffffffffffffffffffffffffffffffffff82612845565b61288c8683612845565b95508019841693508086168417925050509392505050565b6000819050919050565b60006128c96128c46128bf8461236f565b6128a4565b61236f565b9050919050565b6000819050919050565b6128e3836128ae565b6128f76128ef826128d0565b848454612852565b825550505050565b600090565b61290c6128ff565b6129178184846128da565b505050565b5b8181101561293b57612930600082612904565b60018101905061291d565b5050565b601f8211156129805761295181612820565b61295a84612835565b81016020851015612969578190505b61297d61297585612835565b83018261291c565b50505b505050565b600082821c905092915050565b60006129a360001984600802612985565b1980831691505092915050565b60006129bc8383612992565b9150826002028217905092915050565b6129d5826120c0565b67ffffffffffffffff8111156129ee576129ed611ce3565b5b6129f882546127ef565b612a0382828561293f565b600060209050601f831160018114612a365760008415612a24578287015190505b612a2e85826129b0565b865550612a96565b601f198416612a4486612820565b60005b82811015612a6c57848901518255600182019150602085019450602081019050612a47565b86831015612a895784890151612a85601f891682612992565b8355505b6001600288020188555050505b505050505050565b60006060820190508181036000830152612ab88186612106565b90508181036020830152612acc8185612106565b9050612adb60408301846120b1565b949350505050565b60006040820190508181036000830152612afd8185612106565b90508181036020830152612b118184612106565b90509392505050565b7f446f63746f72206e6f7420726567697374657265640000000000000000000000600082015250565b6000612b506015836120cb565b9150612b5b82612b1a565b602082019050919050565b60006020820190508181036000830152612b7f81612b43565b9050919050565b60008154612b93816127ef565b612b9d8186612701565b94506001821660008114612bb85760018114612bcd57612c00565b60ff1983168652811515820286019350612c00565b612bd685612820565b60005b83811015612bf857815481890152600182019150602081019050612bd9565b838801955050505b50505092915050565b6000612c158284612b86565b915081905092915050565b7f4e487b7100000000000000000000000000000000000000000000000000000000600052603260045260246000fd5b7f4e487b7100000000000000000000000000000000000000000000000000000000600052601160045260246000fd5b6000612c898261236f565b9150612c948361236f565b9250828203905081811115612cac57612cab612c4f565b5b92915050565b6000612cbd8261236f565b9150612cc88361236f565b9250828201905080821115612ce057612cdf612c4f565b5b92915050565b600081549050612cf5816127ef565b9050919050565b818103612d0a575050612de2565b612d1382612ce6565b67ffffffffffffffff811115612d2c57612d2b611ce3565b5b612d3682546127ef565b612d4182828561293f565b6000601f831160018114612d705760008415612d5e578287015490505b612d6885826129b0565b865550612ddb565b601f198416612d7e87612820565b9650612d8986612820565b60005b82811015612db157848901548255600182019150600185019450602081019050612d8c565b86831015612dce5784890154612dca601f891682612992565b8355505b6001600288020188555050505b5050505050505b565b6000612def8261236f565b91507fffffffffffffffffffffffffffffffffffffffffffffffffffffffffffffffff8203612e2157612e20612c4f565b5b600182019050919050565b7f4e487b7100000000000000000000000000000000000000000000000000000000600052603160045260246000fd5b600060ff82169050919050565b6000612e7382612e5b565b9150612e7e83612e5b565b9250828201905060ff811115612e9757612e96612c4f565b5b9291505056fea2646970667358221220860aaffa54c75d1f1cf704b52429d661a59beb2653cafabee50e8b4d86dff10b64736f6c63430008130033",
  "immutableReferences": {},
  "source": "\r\n/*pragma solidity ^0.8.19;\r\n\r\ncontract DoctorRegistration {\r\n    struct Doctor {\r\n        address walletAddress;\r\n        string doctorName;\r\n        string hospitalName;\r\n        string dateOfBirth;\r\n        string gender;\r\n        string email;\r\n        string hhNumber;\r\n        string specialization;\r\n        string department;\r\n        string designation;\r\n        string workExperience;\r\n        string password;\r\n    }\r\n\r\n    struct PatientList {\r\n        string patient_number;\r\n        string patient_name;\r\n    }\r\n    struct RendezVous {\r\n    address patient;\r\n    uint256 debut;\r\n    uint256 fin;\r\n}\r\n\r\n    mapping(string => address) private doctorAddresses;\r\n    mapping(string => Doctor) private doctors;\r\n    mapping(string => PatientList[]) private Dpermission;\r\n    mapping(string => mapping(string => bool)) public doctorPermissions;\r\n    mapping(string => RendezVous[]) private disponibilitesPrises;\r\n\r\n\r\n    string[] private allHhNumbers; //  Correction ici\r\n\r\n    event DoctorRegistered(string hhNumber, string doctorName, address walletAddress);\r\n\r\n    function registerDoctor(\r\n        string memory _doctorName,\r\n        string memory _hospitalName,\r\n        string memory _dateOfBirth,\r\n        string memory _gender,\r\n        string memory _email,\r\n        string memory _hhNumber,\r\n        string memory _specialization,\r\n        string memory _department,\r\n        string memory _designation,\r\n        string memory _workExperience,\r\n        string memory _password\r\n    ) external {\r\n        require(doctorAddresses[_hhNumber] == address(0), \"Doctor already registered\");\r\n\r\n        Doctor memory newDoctor = Doctor({\r\n            walletAddress: msg.sender,\r\n            doctorName: _doctorName,\r\n            hospitalName: _hospitalName,\r\n            dateOfBirth: _dateOfBirth,\r\n            gender: _gender,\r\n            email: _email,\r\n            hhNumber: _hhNumber,\r\n            specialization: _specialization,\r\n            department: _department,\r\n            designation: _designation,\r\n            workExperience: _workExperience,\r\n            password: _password\r\n        });\r\n\r\n        doctors[_hhNumber] = newDoctor;\r\n        doctorAddresses[_hhNumber] = msg.sender;\r\n        emit DoctorRegistered(_hhNumber, _doctorName, msg.sender);\r\n        allHhNumbers.push(_hhNumber); //  Ajout correct ici\r\n    }\r\n\r\n    function isRegisteredDoctor(string memory _hhNumber) external view returns (bool) {\r\n        return doctorAddresses[_hhNumber] != address(0);\r\n    }\r\n\r\n    function getDoctorDetails(string memory _hhNumber) external view returns (\r\n        address _walletAddress,\r\n        string memory _doctorName,\r\n        string memory _hospitalName,\r\n        string memory _dateOfBirth,\r\n        string memory _gender,\r\n        string memory _email,\r\n        string memory _specialization,\r\n        string memory _department,\r\n        string memory _designation,\r\n        string memory _workExperience\r\n    ) {\r\n        require(doctorAddresses[_hhNumber] != address(0), \"Doctor not registered\");\r\n        Doctor memory doctor = doctors[_hhNumber];\r\n        return (\r\n            doctor.walletAddress,\r\n            doctor.doctorName,\r\n            doctor.hospitalName,\r\n            doctor.dateOfBirth,\r\n            doctor.gender,\r\n            doctor.email,\r\n            doctor.specialization,\r\n            doctor.department,\r\n            doctor.designation,\r\n            doctor.workExperience\r\n        );\r\n    }\r\n\r\n    function validatePassword(string memory _hhNumber, string memory _password) external view returns (bool) {\r\n        require(doctorAddresses[_hhNumber] != address(0), \"Doctor not registered\");\r\n        return keccak256(abi.encodePacked(_password)) == keccak256(abi.encodePacked(doctors[_hhNumber].password));\r\n    }\r\n\r\n    function grantPermission(\r\n        string memory _patientNumber,\r\n        string memory _doctorNumber,\r\n        string memory _patientName\r\n    ) external {\r\n        PatientList memory newRecord = PatientList(_patientNumber, _patientName);\r\n        Dpermission[_doctorNumber].push(newRecord);\r\n        doctorPermissions[_patientNumber][_doctorNumber] = true;\r\n    }\r\n\r\n    function isPermissionGranted(string memory _patientNumber, string memory _doctorNumber) external view returns (bool) {\r\n        return doctorPermissions[_patientNumber][_doctorNumber];\r\n    }\r\n\r\n    function revokePermission(string memory _patientNumber, string memory _doctorNumber) public {\r\n        doctorPermissions[_patientNumber][_doctorNumber] = false;\r\n\r\n        // Remove the patient's record from the list\r\n        for (uint i = 0; i < Dpermission[_doctorNumber].length; i++) {\r\n            if (\r\n                keccak256(abi.encodePacked(Dpermission[_doctorNumber][i].patient_number)) ==\r\n                keccak256(abi.encodePacked(_patientNumber))\r\n            ) {\r\n                for (uint j = i; j < Dpermission[_doctorNumber].length - 1; j++) {\r\n                    Dpermission[_doctorNumber][j] = Dpermission[_doctorNumber][j + 1];\r\n                }\r\n                Dpermission[_doctorNumber].pop();\r\n                break;\r\n            }\r\n        }\r\n    }\r\n\r\n    function getPatientList(string memory _doctorNumber) public view returns (PatientList[] memory) {\r\n        return Dpermission[_doctorNumber];\r\n    }\r\n\r\n    function getAllHhNumbers() external view returns (string[] memory) {\r\n        return allHhNumbers;\r\n    }\r\n\r\n}*/\r\n// SPDX-License-Identifier: MIT\r\npragma solidity ^0.8.19;\r\n\r\ncontract DoctorRegistration {\r\n    struct Doctor {\r\n        address walletAddress;\r\n        string doctorName;\r\n        string hospitalName;\r\n        string dateOfBirth;\r\n        string gender;\r\n        string email;\r\n        string hhNumber;\r\n        string specialization;\r\n        string department;\r\n        string designation;\r\n        string workExperience;\r\n        string password;\r\n    }\r\n\r\n    struct PatientList {\r\n        string patient_number;\r\n        string patient_name;\r\n    }\r\n\r\n    struct RendezVous {\r\n        address patient;\r\n        uint256 debut;\r\n        uint256 fin;\r\n    }\r\n\r\n    mapping(string => address) private doctorAddresses;\r\n    mapping(string => Doctor) private doctors;\r\n    mapping(string => PatientList[]) private Dpermission;\r\n    mapping(string => mapping(string => bool)) public doctorPermissions;\r\n    mapping(string => RendezVous[]) private disponibilitesPrises;\r\n    // Nouveau mapping pour regrouper les mdecins par spcialit\r\n    mapping(string => string[]) public doctorsBySpecialization;\r\n\r\n    string[] private allHhNumbers;\r\n\r\n    event DoctorRegistered(string hhNumber, string doctorName, address walletAddress);\r\n    // Nouvel vnement pour l'ajout  une spcialit\r\n    event DoctorAddedToSpecialization(string hhNumber, string specialization);\r\n\r\n    // Fonction interne pour normaliser les chanes (minuscules)\r\n    function toLower(string memory str) internal pure returns (string memory) {\r\n        bytes memory bStr = bytes(str);\r\n        bytes memory bLower = new bytes(bStr.length);\r\n        for (uint i = 0; i < bStr.length; i++) {\r\n            if ((uint8(bStr[i]) >= 65) && (uint8(bStr[i]) <= 90)) {\r\n                bLower[i] = bytes1(uint8(bStr[i]) + 32);\r\n            } else {\r\n                bLower[i] = bStr[i];\r\n            }\r\n        }\r\n        return string(bLower);\r\n    }\r\n\r\n    function registerDoctor(\r\n        string memory _doctorName,\r\n        string memory _hospitalName,\r\n        string memory _dateOfBirth,\r\n        string memory _gender,\r\n        string memory _email,\r\n        string memory _hhNumber,\r\n        string memory _specialization,\r\n        string memory _department,\r\n        string memory _designation,\r\n        string memory _workExperience,\r\n        string memory _password\r\n    ) external {\r\n        require(doctorAddresses[_hhNumber] == address(0), \"Doctor already registered\");\r\n\r\n        // Normaliser la spcialit\r\n        string memory normalizedSpecialization = toLower(_specialization);\r\n\r\n        Doctor memory newDoctor = Doctor({\r\n            walletAddress: msg.sender,\r\n            doctorName: _doctorName,\r\n            hospitalName: _hospitalName,\r\n            dateOfBirth: _dateOfBirth,\r\n            gender: _gender,\r\n            email: _email,\r\n            hhNumber: _hhNumber,\r\n            specialization: normalizedSpecialization, // Stocker la version normalise\r\n            department: _department,\r\n            designation: _designation,\r\n            workExperience: _workExperience,\r\n            password: _password\r\n        });\r\n\r\n        doctors[_hhNumber] = newDoctor;\r\n        doctorAddresses[_hhNumber] = msg.sender;\r\n        allHhNumbers.push(_hhNumber);\r\n        // Ajouter le hhNumber  la spcialit\r\n        doctorsBySpecialization[normalizedSpecialization].push(_hhNumber);\r\n        emit DoctorRegistered(_hhNumber, _doctorName, msg.sender);\r\n        emit DoctorAddedToSpecialization(_hhNumber, normalizedSpecialization);\r\n    }\r\n\r\n    function isRegisteredDoctor(string memory _hhNumber) external view returns (bool) {\r\n        return doctorAddresses[_hhNumber] != address(0);\r\n    }\r\n\r\n    function getDoctorDetails(string memory _hhNumber) external view returns (\r\n        address _walletAddress,\r\n        string memory _doctorName,\r\n        string memory _hospitalName,\r\n        string memory _dateOfBirth,\r\n        string memory _gender,\r\n        string memory _email,\r\n        string memory _specialization,\r\n        string memory _department,\r\n        string memory _designation,\r\n        string memory _workExperience\r\n    ) {\r\n        require(doctorAddresses[_hhNumber] != address(0), \"Doctor not registered\");\r\n        Doctor memory doctor = doctors[_hhNumber];\r\n        return (\r\n            doctor.walletAddress,\r\n            doctor.doctorName,\r\n            doctor.hospitalName,\r\n            doctor.dateOfBirth,\r\n            doctor.gender,\r\n            doctor.email,\r\n            doctor.specialization,\r\n            doctor.department,\r\n            doctor.designation,\r\n            doctor.workExperience\r\n        );\r\n    }\r\n\r\n    function validatePassword(string memory _hhNumber, string memory _password) external view returns (bool) {\r\n        require(doctorAddresses[_hhNumber] != address(0), \"Doctor not registered\");\r\n        return keccak256(abi.encodePacked(_password)) == keccak256(abi.encodePacked(doctors[_hhNumber].password));\r\n    }\r\n\r\n    // Nouvelle fonction : Vrifier si une adresse est un mdecin d'une spcialit\r\n    function isDoctorInSpecialization(address doctorAddress, string memory specialization) external view returns (bool) {\r\n        string memory normalizedSpecialization = toLower(specialization);\r\n        string[] memory hhNumbers = doctorsBySpecialization[normalizedSpecialization];\r\n        for (uint i = 0; i < hhNumbers.length; i++) {\r\n            if (doctorAddresses[hhNumbers[i]] == doctorAddress) {\r\n                return true;\r\n            }\r\n        }\r\n        return false;\r\n    }\r\n\r\n    // Nouvelle fonction : Obtenir la liste des hhNumber pour une spcialit\r\n    function getDoctorsBySpecialization(string memory specialization) external view returns (string[] memory) {\r\n        return doctorsBySpecialization[toLower(specialization)];\r\n    }\r\n\r\n    function grantPermission(\r\n        string memory _patientNumber,\r\n        string memory _doctorNumber,\r\n        string memory _patientName\r\n    ) external {\r\n        PatientList memory newRecord = PatientList(_patientNumber, _patientName);\r\n        Dpermission[_doctorNumber].push(newRecord);\r\n        doctorPermissions[_patientNumber][_doctorNumber] = true;\r\n    }\r\n\r\n    function isPermissionGranted(string memory _patientNumber, string memory _doctorNumber) external view returns (bool) {\r\n        return doctorPermissions[_patientNumber][_doctorNumber];\r\n    }\r\n\r\n    function revokePermission(string memory _patientNumber, string memory _doctorNumber) public {\r\n        doctorPermissions[_patientNumber][_doctorNumber] = false;\r\n        for (uint i = 0; i < Dpermission[_doctorNumber].length; i++) {\r\n            if (\r\n                keccak256(abi.encodePacked(Dpermission[_doctorNumber][i].patient_number)) ==\r\n                keccak256(abi.encodePacked(_patientNumber))\r\n            ) {\r\n                for (uint j = i; j < Dpermission[_doctorNumber].length - 1; j++) {\r\n                    Dpermission[_doctorNumber][j] = Dpermission[_doctorNumber][j + 1];\r\n                }\r\n                Dpermission[_doctorNumber].pop();\r\n                break;\r\n            }\r\n        }\r\n    }\r\n\r\n    function getPatientList(string memory _doctorNumber) public view returns (PatientList[] memory) {\r\n        return Dpermission[_doctorNumber];\r\n    }\r\n\r\n    function getAllHhNumbers() external view returns (string[] memory) {\r\n        return allHhNumbers;\r\n    }\r\n}\r\n\r\n",
  "sourcePath": "C:\\Users\\EliteBook\\BlockHealth\\src\\contracts\\DoctorRegistration.sol",
  "compiler": {
    "name": "solc",
    "version": "0.8.19+commit.7dd6d404.Emscripten.clang"
  },
  "schemaVersion": "3.4.16",
  "updatedAt": "2025-05-16T21:34:46.563Z",
  "networkType": "ethereum",
  "devdoc": {
    "kind": "dev",
    "methods": {},
    "version": 1
  },
  "userdoc": {
    "kind": "user",
    "methods": {},
    "version": 1
  }
}