{
  "contractName": "PatientRegistration",
  "abi": [
    {
      "anonymous": false,
      "inputs": [
        {
          "indexed": false,
          "internalType": "string",
          "name": "hhNumber",
          "type": "string"
        },
        {
          "indexed": false,
          "internalType": "string",
          "name": "ipfsHash",
          "type": "string"
        },
        {
          "indexed": false,
          "internalType": "string",
          "name": "description",
          "type": "string"
        },
        {
          "indexed": false,
          "internalType": "uint256",
          "name": "timestamp",
          "type": "uint256"
        }
      ],
      "name": "MedicalRecordUploaded",
      "type": "event"
    },
    {
      "anonymous": false,
      "inputs": [
        {
          "indexed": false,
          "internalType": "string",
          "name": "hhNumber",
          "type": "string"
        },
        {
          "indexed": false,
          "internalType": "string",
          "name": "name",
          "type": "string"
        },
        {
          "indexed": false,
          "internalType": "address",
          "name": "walletAddress",
          "type": "address"
        }
      ],
      "name": "PatientRegistered",
      "type": "event"
    },
    {
      "inputs": [
        {
          "internalType": "string",
          "name": "",
          "type": "string"
        },
        {
          "internalType": "string",
          "name": "",
          "type": "string"
        }
      ],
      "name": "doctorPermissions",
      "outputs": [
        {
          "internalType": "bool",
          "name": "",
          "type": "bool"
        }
      ],
      "stateMutability": "view",
      "type": "function",
      "constant": true
    },
    {
      "inputs": [
        {
          "internalType": "string",
          "name": "",
          "type": "string"
        }
      ],
      "name": "isPatientRegistered",
      "outputs": [
        {
          "internalType": "bool",
          "name": "",
          "type": "bool"
        }
      ],
      "stateMutability": "view",
      "type": "function",
      "constant": true
    },
    {
      "inputs": [
        {
          "internalType": "string",
          "name": "",
          "type": "string"
        }
      ],
      "name": "patients",
      "outputs": [
        {
          "internalType": "address",
          "name": "walletAddress",
          "type": "address"
        },
        {
          "internalType": "string",
          "name": "name",
          "type": "string"
        },
        {
          "internalType": "string",
          "name": "dateOfBirth",
          "type": "string"
        },
        {
          "internalType": "string",
          "name": "gender",
          "type": "string"
        },
        {
          "internalType": "string",
          "name": "bloodGroup",
          "type": "string"
        },
        {
          "internalType": "string",
          "name": "homeAddress",
          "type": "string"
        },
        {
          "internalType": "string",
          "name": "email",
          "type": "string"
        },
        {
          "internalType": "string",
          "name": "hhNumber",
          "type": "string"
        },
        {
          "internalType": "string",
          "name": "password",
          "type": "string"
        }
      ],
      "stateMutability": "view",
      "type": "function",
      "constant": true
    },
    {
      "inputs": [
        {
          "internalType": "address",
          "name": "_walletAddress",
          "type": "address"
        },
        {
          "internalType": "string",
          "name": "_name",
          "type": "string"
        },
        {
          "internalType": "string",
          "name": "_dateOfBirth",
          "type": "string"
        },
        {
          "internalType": "string",
          "name": "_gender",
          "type": "string"
        },
        {
          "internalType": "string",
          "name": "_bloodGroup",
          "type": "string"
        },
        {
          "internalType": "string",
          "name": "_homeAddress",
          "type": "string"
        },
        {
          "internalType": "string",
          "name": "_email",
          "type": "string"
        },
        {
          "internalType": "string",
          "name": "_hhNumber",
          "type": "string"
        },
        {
          "internalType": "string",
          "name": "_password",
          "type": "string"
        }
      ],
      "name": "registerPatient",
      "outputs": [],
      "stateMutability": "nonpayable",
      "type": "function"
    },
    {
      "inputs": [
        {
          "internalType": "string",
          "name": "_hhNumber",
          "type": "string"
        }
      ],
      "name": "isRegisteredPatient",
      "outputs": [
        {
          "internalType": "bool",
          "name": "",
          "type": "bool"
        }
      ],
      "stateMutability": "view",
      "type": "function",
      "constant": true
    },
    {
      "inputs": [
        {
          "internalType": "string",
          "name": "_hhNumber",
          "type": "string"
        },
        {
          "internalType": "string",
          "name": "_password",
          "type": "string"
        }
      ],
      "name": "validatePassword",
      "outputs": [
        {
          "internalType": "bool",
          "name": "",
          "type": "bool"
        }
      ],
      "stateMutability": "view",
      "type": "function",
      "constant": true
    },
    {
      "inputs": [
        {
          "internalType": "string",
          "name": "_hhNumber",
          "type": "string"
        }
      ],
      "name": "getPatientDetails",
      "outputs": [
        {
          "internalType": "address",
          "name": "walletAddress",
          "type": "address"
        },
        {
          "internalType": "string",
          "name": "name",
          "type": "string"
        },
        {
          "internalType": "string",
          "name": "dateOfBirth",
          "type": "string"
        },
        {
          "internalType": "string",
          "name": "gender",
          "type": "string"
        },
        {
          "internalType": "string",
          "name": "bloodGroup",
          "type": "string"
        },
        {
          "internalType": "string",
          "name": "homeAddress",
          "type": "string"
        },
        {
          "internalType": "string",
          "name": "email",
          "type": "string"
        }
      ],
      "stateMutability": "view",
      "type": "function",
      "constant": true
    },
    {
      "inputs": [
        {
          "internalType": "string",
          "name": "_patientNumber",
          "type": "string"
        },
        {
          "internalType": "string",
          "name": "_doctorNumber",
          "type": "string"
        },
        {
          "internalType": "string",
          "name": "_patientName",
          "type": "string"
        }
      ],
      "name": "grantPermission",
      "outputs": [],
      "stateMutability": "nonpayable",
      "type": "function"
    },
    {
      "inputs": [
        {
          "internalType": "string",
          "name": "_patientNumber",
          "type": "string"
        },
        {
          "internalType": "string",
          "name": "_doctorNumber",
          "type": "string"
        }
      ],
      "name": "isPermissionGranted",
      "outputs": [
        {
          "internalType": "bool",
          "name": "",
          "type": "bool"
        }
      ],
      "stateMutability": "view",
      "type": "function",
      "constant": true
    },
    {
      "inputs": [
        {
          "internalType": "string",
          "name": "_doctorNumber",
          "type": "string"
        }
      ],
      "name": "getPatientList",
      "outputs": [
        {
          "components": [
            {
              "internalType": "string",
              "name": "patient_number",
              "type": "string"
            },
            {
              "internalType": "string",
              "name": "patient_name",
              "type": "string"
            }
          ],
          "internalType": "struct PatientRegistration.PatientList[]",
          "name": "",
          "type": "tuple[]"
        }
      ],
      "stateMutability": "view",
      "type": "function",
      "constant": true
    },
    {
      "inputs": [
        {
          "internalType": "string",
          "name": "_hhNumber",
          "type": "string"
        },
        {
          "internalType": "string",
          "name": "_ipfsHash",
          "type": "string"
        },
        {
          "internalType": "string",
          "name": "_description",
          "type": "string"
        }
      ],
      "name": "uploadMedicalRecord",
      "outputs": [],
      "stateMutability": "nonpayable",
      "type": "function"
    },
    {
      "inputs": [
        {
          "internalType": "string",
          "name": "_hhNumber",
          "type": "string"
        }
      ],
      "name": "getMedicalRecords",
      "outputs": [
        {
          "components": [
            {
              "internalType": "string",
              "name": "ipfsHash",
              "type": "string"
            },
            {
              "internalType": "string",
              "name": "description",
              "type": "string"
            },
            {
              "internalType": "uint256",
              "name": "timestamp",
              "type": "uint256"
            }
          ],
          "internalType": "struct PatientRegistration.MedicalRecord[]",
          "name": "",
          "type": "tuple[]"
        }
      ],
      "stateMutability": "view",
      "type": "function",
      "constant": true
    }
  ],
  "bytecode": "0x608060405234801561001057600080fd5b50612ab8806100206000396000f3fe608060405234801561001057600080fd5b50600436106100b45760003560e01c8063c149dafa11610071578063c149dafa146101b1578063c6009d84146101cd578063ca08b7d114610205578063d120c10c14610235578063ea977fc814610265578063f72526411461029b576100b4565b806344334733146100b95780634f10c6c2146100e957806357812a08146101195780635df67040146101355780637babdb261461015157806391c12f7614610181575b600080fd5b6100d360048036038101906100ce9190611b0f565b6102cb565b6040516100e09190611ba2565b60405180910390f35b61010360048036038101906100fe9190611bbd565b610326565b6040516101109190611ba2565b60405180910390f35b610133600480360381019061012e9190611c64565b61035c565b005b61014f600480360381019061014a9190611e0e565b6105ba565b005b61016b60048036038101906101669190611b0f565b61080e565b6040516101789190611ba2565b60405180910390f35b61019b60048036038101906101969190611bbd565b6108f1565b6040516101a8919061203a565b60405180910390f35b6101cb60048036038101906101c69190611e0e565b610a92565b005b6101e760048036038101906101e29190611bbd565b610c8e565b6040516101fc999897969594939291906120b5565b60405180910390f35b61021f600480360381019061021a9190611bbd565b611152565b60405161022c91906122ac565b60405180910390f35b61024f600480360381019061024a9190611b0f565b611368565b60405161025c9190611ba2565b60405180910390f35b61027f600480360381019061027a9190611bbd565b6113ba565b60405161029297969594939291906122ce565b60405180910390f35b6102b560048036038101906102b09190611bbd565b611981565b6040516102c29190611ba2565b60405180910390f35b600382805160208101820180518482526020830160208501208183528095505050505050818051602081018201805184825260208301602085012081835280955050505050506000915091509054906101000a900460ff1681565b6000818051602081018201805184825260208301602085012081835280955050505050506000915054906101000a900460ff1681565b60008260405161036c91906123a3565b908152602001604051809103902060009054906101000a900460ff16156103c8576040517f08c379a00000000000000000000000000000000000000000000000000000000081526004016103bf90612406565b60405180910390fd5b60006040518061012001604052808b73ffffffffffffffffffffffffffffffffffffffff1681526020018a81526020018981526020018881526020018781526020018681526020018581526020018481526020018381525090508060018460405161043391906123a3565b908152602001604051809103902060008201518160000160006101000a81548173ffffffffffffffffffffffffffffffffffffffff021916908373ffffffffffffffffffffffffffffffffffffffff160217905550602082015181600101908161049d9190612632565b5060408201518160020190816104b39190612632565b5060608201518160030190816104c99190612632565b5060808201518160040190816104df9190612632565b5060a08201518160050190816104f59190612632565b5060c082015181600601908161050b9190612632565b5060e08201518160070190816105219190612632565b506101008201518160080190816105389190612632565b50905050600160008460405161054e91906123a3565b908152602001604051809103902060006101000a81548160ff0219169083151502179055507f319ae3a95b9a410d647835a7e64d54ddf28faf35a698f0a2b63999585fa38edc838a8c6040516105a693929190612704565b60405180910390a150505050505050505050565b6003836040516105ca91906123a3565b9081526020016040518091039020826040516105e691906123a3565b908152602001604051809103902060009054906101000a900460ff1615610642576040517f08c379a0000000000000000000000000000000000000000000000000000000008152600401610639906127bb565b60405180910390fd5b6000805b60028460405161065691906123a3565b90815260200160405180910390208054905081101561071e578460405160200161068091906123a3565b604051602081830303815290604052805190602001206002856040516106a691906123a3565b908152602001604051809103902082815481106106c6576106c56127db565b5b90600052602060002090600202016000016040516020016106e7919061288d565b604051602081830303815290604052805190602001200361070b576001915061071e565b8080610716906128d3565b915050610646565b50806107b5576000604051806040016040528086815260200184815250905060028460405161074d91906123a3565b9081526020016040518091039020819080600181540180825580915050600190039060005260206000209060020201600090919091909150600082015181600001908161079a9190612632565b5060208201518160010190816107b09190612632565b505050505b60016003856040516107c791906123a3565b9081526020016040518091039020846040516107e391906123a3565b908152602001604051809103902060006101000a81548160ff02191690831515021790555050505050565b6000808360405161081f91906123a3565b908152602001604051809103902060009054906101000a900460ff1661087a576040517f08c379a000000000000000000000000000000000000000000000000000000000815260040161087190612967565b60405180910390fd5b60018360405161088a91906123a3565b90815260200160405180910390206008016040516020016108ab919061288d565b60405160208183030381529060405280519060200120826040516020016108d291906123a3565b6040516020818303038152906040528051906020012014905092915050565b606060028260405161090391906123a3565b9081526020016040518091039020805480602002602001604051908101604052809291908181526020016000905b82821015610a87578382906000526020600020906002020160405180604001604052908160008201805461096490612455565b80601f016020809104026020016040519081016040528092919081815260200182805461099090612455565b80156109dd5780601f106109b2576101008083540402835291602001916109dd565b820191906000526020600020905b8154815290600101906020018083116109c057829003601f168201915b505050505081526020016001820180546109f690612455565b80601f0160208091040260200160405190810160405280929190818152602001828054610a2290612455565b8015610a6f5780601f10610a4457610100808354040283529160200191610a6f565b820191906000526020600020905b815481529060010190602001808311610a5257829003601f168201915b50505050508152505081526020019060010190610931565b505050509050919050565b600083604051610aa291906123a3565b908152602001604051809103902060009054906101000a900460ff16610afd576040517f08c379a0000000000000000000000000000000000000000000000000000000008152600401610af490612967565b60405180910390fd5b600183604051610b0d91906123a3565b908152602001604051809103902060000160009054906101000a900473ffffffffffffffffffffffffffffffffffffffff1673ffffffffffffffffffffffffffffffffffffffff163373ffffffffffffffffffffffffffffffffffffffff1614610bac576040517f08c379a0000000000000000000000000000000000000000000000000000000008152600401610ba3906129f9565b60405180910390fd5b60006040518060600160405280848152602001838152602001428152509050600484604051610bdb91906123a3565b90815260200160405180910390208190806001815401808255809150506001900390600052602060002090600302016000909190919091506000820151816000019081610c289190612632565b506020820151816001019081610c3e9190612632565b506040820151816002015550507fabe03420ff2ac4eba94f72de2cb0ddc33198a2c47c3962d9331f86be19bb8e2d84848442604051610c809493929190612a28565b60405180910390a150505050565b6001818051602081018201805184825260208301602085012081835280955050505050506000915090508060000160009054906101000a900473ffffffffffffffffffffffffffffffffffffffff1690806001018054610ced90612455565b80601f0160208091040260200160405190810160405280929190818152602001828054610d1990612455565b8015610d665780601f10610d3b57610100808354040283529160200191610d66565b820191906000526020600020905b815481529060010190602001808311610d4957829003601f168201915b505050505090806002018054610d7b90612455565b80601f0160208091040260200160405190810160405280929190818152602001828054610da790612455565b8015610df45780601f10610dc957610100808354040283529160200191610df4565b820191906000526020600020905b815481529060010190602001808311610dd757829003601f168201915b505050505090806003018054610e0990612455565b80601f0160208091040260200160405190810160405280929190818152602001828054610e3590612455565b8015610e825780601f10610e5757610100808354040283529160200191610e82565b820191906000526020600020905b815481529060010190602001808311610e6557829003601f168201915b505050505090806004018054610e9790612455565b80601f0160208091040260200160405190810160405280929190818152602001828054610ec390612455565b8015610f105780601f10610ee557610100808354040283529160200191610f10565b820191906000526020600020905b815481529060010190602001808311610ef357829003601f168201915b505050505090806005018054610f2590612455565b80601f0160208091040260200160405190810160405280929190818152602001828054610f5190612455565b8015610f9e5780601f10610f7357610100808354040283529160200191610f9e565b820191906000526020600020905b815481529060010190602001808311610f8157829003601f168201915b505050505090806006018054610fb390612455565b80601f0160208091040260200160405190810160405280929190818152602001828054610fdf90612455565b801561102c5780601f106110015761010080835404028352916020019161102c565b820191906000526020600020905b81548152906001019060200180831161100f57829003601f168201915b50505050509080600701805461104190612455565b80601f016020809104026020016040519081016040528092919081815260200182805461106d90612455565b80156110ba5780601f1061108f576101008083540402835291602001916110ba565b820191906000526020600020905b81548152906001019060200180831161109d57829003601f168201915b5050505050908060080180546110cf90612455565b80601f01602080910402602001604051908101604052809291908181526020018280546110fb90612455565b80156111485780601f1061111d57610100808354040283529160200191611148565b820191906000526020600020905b81548152906001019060200180831161112b57829003601f168201915b5050505050905089565b606060008260405161116491906123a3565b908152602001604051809103902060009054906101000a900460ff166111bf576040517f08c379a00000000000000000000000000000000000000000000000000000000081526004016111b690612967565b60405180910390fd5b6004826040516111cf91906123a3565b9081526020016040518091039020805480602002602001604051908101604052809291908181526020016000905b8282101561135d578382906000526020600020906003020160405180606001604052908160008201805461123090612455565b80601f016020809104026020016040519081016040528092919081815260200182805461125c90612455565b80156112a95780601f1061127e576101008083540402835291602001916112a9565b820191906000526020600020905b81548152906001019060200180831161128c57829003601f168201915b505050505081526020016001820180546112c290612455565b80601f01602080910402602001604051908101604052809291908181526020018280546112ee90612455565b801561133b5780601f106113105761010080835404028352916020019161133b565b820191906000526020600020905b81548152906001019060200180831161131e57829003601f168201915b50505050508152602001600282015481525050815260200190600101906111fd565b505050509050919050565b600060038360405161137a91906123a3565b90815260200160405180910390208260405161139691906123a3565b908152602001604051809103902060009054906101000a900460ff16905092915050565b60006060806060806060806000886040516113d591906123a3565b908152602001604051809103902060009054906101000a900460ff16611430576040517f08c379a000000000000000000000000000000000000000000000000000000000815260040161142790612967565b60405180910390fd5b600060018960405161144291906123a3565b9081526020016040518091039020604051806101200160405290816000820160009054906101000a900473ffffffffffffffffffffffffffffffffffffffff1673ffffffffffffffffffffffffffffffffffffffff1673ffffffffffffffffffffffffffffffffffffffff1681526020016001820180546114c290612455565b80601f01602080910402602001604051908101604052809291908181526020018280546114ee90612455565b801561153b5780601f106115105761010080835404028352916020019161153b565b820191906000526020600020905b81548152906001019060200180831161151e57829003601f168201915b5050505050815260200160028201805461155490612455565b80601f016020809104026020016040519081016040528092919081815260200182805461158090612455565b80156115cd5780601f106115a2576101008083540402835291602001916115cd565b820191906000526020600020905b8154815290600101906020018083116115b057829003601f168201915b505050505081526020016003820180546115e690612455565b80601f016020809104026020016040519081016040528092919081815260200182805461161290612455565b801561165f5780601f106116345761010080835404028352916020019161165f565b820191906000526020600020905b81548152906001019060200180831161164257829003601f168201915b5050505050815260200160048201805461167890612455565b80601f01602080910402602001604051908101604052809291908181526020018280546116a490612455565b80156116f15780601f106116c6576101008083540402835291602001916116f1565b820191906000526020600020905b8154815290600101906020018083116116d457829003601f168201915b5050505050815260200160058201805461170a90612455565b80601f016020809104026020016040519081016040528092919081815260200182805461173690612455565b80156117835780601f1061175857610100808354040283529160200191611783565b820191906000526020600020905b81548152906001019060200180831161176657829003601f168201915b5050505050815260200160068201805461179c90612455565b80601f01602080910402602001604051908101604052809291908181526020018280546117c890612455565b80156118155780601f106117ea57610100808354040283529160200191611815565b820191906000526020600020905b8154815290600101906020018083116117f857829003601f168201915b5050505050815260200160078201805461182e90612455565b80601f016020809104026020016040519081016040528092919081815260200182805461185a90612455565b80156118a75780601f1061187c576101008083540402835291602001916118a7565b820191906000526020600020905b81548152906001019060200180831161188a57829003601f168201915b505050505081526020016008820180546118c090612455565b80601f01602080910402602001604051908101604052809291908181526020018280546118ec90612455565b80156119395780601f1061190e57610100808354040283529160200191611939565b820191906000526020600020905b81548152906001019060200180831161191c57829003601f168201915b5050505050815250509050806000015181602001518260400151836060015184608001518560a001518660c00151975097509750975097509750975050919395979092949650565b6000808260405161199291906123a3565b908152602001604051809103902060009054906101000a900460ff169050919050565b6000604051905090565b600080fd5b600080fd5b600080fd5b600080fd5b6000601f19601f8301169050919050565b7f4e487b7100000000000000000000000000000000000000000000000000000000600052604160045260246000fd5b611a1c826119d3565b810181811067ffffffffffffffff82111715611a3b57611a3a6119e4565b5b80604052505050565b6000611a4e6119b5565b9050611a5a8282611a13565b919050565b600067ffffffffffffffff821115611a7a57611a796119e4565b5b611a83826119d3565b9050602081019050919050565b82818337600083830152505050565b6000611ab2611aad84611a5f565b611a44565b905082815260208101848484011115611ace57611acd6119ce565b5b611ad9848285611a90565b509392505050565b600082601f830112611af657611af56119c9565b5b8135611b06848260208601611a9f565b91505092915050565b60008060408385031215611b2657611b256119bf565b5b600083013567ffffffffffffffff811115611b4457611b436119c4565b5b611b5085828601611ae1565b925050602083013567ffffffffffffffff811115611b7157611b706119c4565b5b611b7d85828601611ae1565b9150509250929050565b60008115159050919050565b611b9c81611b87565b82525050565b6000602082019050611bb76000830184611b93565b92915050565b600060208284031215611bd357611bd26119bf565b5b600082013567ffffffffffffffff811115611bf157611bf06119c4565b5b611bfd84828501611ae1565b91505092915050565b600073ffffffffffffffffffffffffffffffffffffffff82169050919050565b6000611c3182611c06565b9050919050565b611c4181611c26565b8114611c4c57600080fd5b50565b600081359050611c5e81611c38565b92915050565b60008060008060008060008060006101208a8c031215611c8757611c866119bf565b5b6000611c958c828d01611c4f565b99505060208a013567ffffffffffffffff811115611cb657611cb56119c4565b5b611cc28c828d01611ae1565b98505060408a013567ffffffffffffffff811115611ce357611ce26119c4565b5b611cef8c828d01611ae1565b97505060608a013567ffffffffffffffff811115611d1057611d0f6119c4565b5b611d1c8c828d01611ae1565b96505060808a013567ffffffffffffffff811115611d3d57611d3c6119c4565b5b611d498c828d01611ae1565b95505060a08a013567ffffffffffffffff811115611d6a57611d696119c4565b5b611d768c828d01611ae1565b94505060c08a013567ffffffffffffffff811115611d9757611d966119c4565b5b611da38c828d01611ae1565b93505060e08a013567ffffffffffffffff811115611dc457611dc36119c4565b5b611dd08c828d01611ae1565b9250506101008a013567ffffffffffffffff811115611df257611df16119c4565b5b611dfe8c828d01611ae1565b9150509295985092959850929598565b600080600060608486031215611e2757611e266119bf565b5b600084013567ffffffffffffffff811115611e4557611e446119c4565b5b611e5186828701611ae1565b935050602084013567ffffffffffffffff811115611e7257611e716119c4565b5b611e7e86828701611ae1565b925050604084013567ffffffffffffffff811115611e9f57611e9e6119c4565b5b611eab86828701611ae1565b9150509250925092565b600081519050919050565b600082825260208201905092915050565b6000819050602082019050919050565b600081519050919050565b600082825260208201905092915050565b60005b83811015611f1b578082015181840152602081019050611f00565b60008484015250505050565b6000611f3282611ee1565b611f3c8185611eec565b9350611f4c818560208601611efd565b611f55816119d3565b840191505092915050565b60006040830160008301518482036000860152611f7d8282611f27565b91505060208301518482036020860152611f978282611f27565b9150508091505092915050565b6000611fb08383611f60565b905092915050565b6000602082019050919050565b6000611fd082611eb5565b611fda8185611ec0565b935083602082028501611fec85611ed1565b8060005b8581101561202857848403895281516120098582611fa4565b945061201483611fb8565b925060208a01995050600181019050611ff0565b50829750879550505050505092915050565b600060208201905081810360008301526120548184611fc5565b905092915050565b61206581611c26565b82525050565b600082825260208201905092915050565b600061208782611ee1565b612091818561206b565b93506120a1818560208601611efd565b6120aa816119d3565b840191505092915050565b6000610120820190506120cb600083018c61205c565b81810360208301526120dd818b61207c565b905081810360408301526120f1818a61207c565b90508181036060830152612105818961207c565b90508181036080830152612119818861207c565b905081810360a083015261212d818761207c565b905081810360c0830152612141818661207c565b905081810360e0830152612155818561207c565b905081810361010083015261216a818461207c565b90509a9950505050505050505050565b600081519050919050565b600082825260208201905092915050565b6000819050602082019050919050565b6000819050919050565b6121b9816121a6565b82525050565b600060608301600083015184820360008601526121dc8282611f27565b915050602083015184820360208601526121f68282611f27565b915050604083015161220b60408601826121b0565b508091505092915050565b600061222283836121bf565b905092915050565b6000602082019050919050565b60006122428261217a565b61224c8185612185565b93508360208202850161225e85612196565b8060005b8581101561229a578484038952815161227b8582612216565b94506122868361222a565b925060208a01995050600181019050612262565b50829750879550505050505092915050565b600060208201905081810360008301526122c68184612237565b905092915050565b600060e0820190506122e3600083018a61205c565b81810360208301526122f5818961207c565b90508181036040830152612309818861207c565b9050818103606083015261231d818761207c565b90508181036080830152612331818661207c565b905081810360a0830152612345818561207c565b905081810360c0830152612359818461207c565b905098975050505050505050565b600081905092915050565b600061237d82611ee1565b6123878185612367565b9350612397818560208601611efd565b80840191505092915050565b60006123af8284612372565b915081905092915050565b7f50617469656e742064616a656120657869737465200000000000000000000000600082015250565b60006123f060158361206b565b91506123fb826123ba565b602082019050919050565b6000602082019050818103600083015261241f816123e3565b9050919050565b7f4e487b7100000000000000000000000000000000000000000000000000000000600052602260045260246000fd5b6000600282049050600182168061246d57607f821691505b6020821081036124805761247f612426565b5b50919050565b60008190508160005260206000209050919050565b60006020601f8301049050919050565b600082821b905092915050565b6000600883026124e87fffffffffffffffffffffffffffffffffffffffffffffffffffffffffffffffff826124ab565b6124f286836124ab565b95508019841693508086168417925050509392505050565b6000819050919050565b600061252f61252a612525846121a6565b61250a565b6121a6565b9050919050565b6000819050919050565b61254983612514565b61255d61255582612536565b8484546124b8565b825550505050565b600090565b612572612565565b61257d818484612540565b505050565b5b818110156125a15761259660008261256a565b600181019050612583565b5050565b601f8211156125e6576125b781612486565b6125c08461249b565b810160208510156125cf578190505b6125e36125db8561249b565b830182612582565b50505b505050565b600082821c905092915050565b6000612609600019846008026125eb565b1980831691505092915050565b600061262283836125f8565b9150826002028217905092915050565b61263b82611ee1565b67ffffffffffffffff811115612654576126536119e4565b5b61265e8254612455565b6126698282856125a5565b600060209050601f83116001811461269c576000841561268a578287015190505b6126948582612616565b8655506126fc565b601f1984166126aa86612486565b60005b828110156126d2578489015182556001820191506020850194506020810190506126ad565b868310156126ef57848901516126eb601f8916826125f8565b8355505b6001600288020188555050505b505050505050565b6000606082019050818103600083015261271e818661207c565b90508181036020830152612732818561207c565b9050612741604083018461205c565b949350505050565b7f566965772041636365737320616c726561647920676976656e20746f2074686560008201527f20446f63746f7221000000000000000000000000000000000000000000000000602082015250565b60006127a560288361206b565b91506127b082612749565b604082019050919050565b600060208201905081810360008301526127d481612798565b9050919050565b7f4e487b7100000000000000000000000000000000000000000000000000000000600052603260045260246000fd5b6000815461281781612455565b6128218186612367565b9450600182166000811461283c576001811461285157612884565b60ff1983168652811515820286019350612884565b61285a85612486565b60005b8381101561287c5781548189015260018201915060208101905061285d565b838801955050505b50505092915050565b6000612899828461280a565b915081905092915050565b7f4e487b7100000000000000000000000000000000000000000000000000000000600052601160045260246000fd5b60006128de826121a6565b91507fffffffffffffffffffffffffffffffffffffffffffffffffffffffffffffffff82036129105761290f6128a4565b5b600182019050919050565b7f50617469656e74206e6f74207265676973746572656400000000000000000000600082015250565b600061295160168361206b565b915061295c8261291b565b602082019050919050565b6000602082019050818103600083015261298081612944565b9050919050565b7f4f6e6c79207468652070617469656e742063616e2075706c6f6164207468656960008201527f72207265636f7264730000000000000000000000000000000000000000000000602082015250565b60006129e360298361206b565b91506129ee82612987565b604082019050919050565b60006020820190508181036000830152612a12816129d6565b9050919050565b612a22816121a6565b82525050565b60006080820190508181036000830152612a42818761207c565b90508181036020830152612a56818661207c565b90508181036040830152612a6a818561207c565b9050612a796060830184612a19565b9594505050505056fea2646970667358221220f49a2c31c3445e7a164a1b037a6455cb47c79a6c805d0688c5ff55534ac1987c64736f6c63430008130033",
  "immutableReferences": {},
  "source": "// SPDX-License-Identifier: MIT\r\npragma solidity ^0.8.19;\r\n\r\ncontract PatientRegistration {\r\n    struct Patient {\r\n        address walletAddress;\r\n        string name;\r\n        string dateOfBirth;\r\n        string gender;\r\n        string bloodGroup;\r\n        string homeAddress;\r\n        string email;\r\n        string hhNumber;\r\n        string password;\r\n    }\r\n\r\n    struct PatientList{\r\n        string patient_number;\r\n        string patient_name;\r\n    }\r\n\r\n      struct MedicalRecord {\r\n        string ipfsHash; // hash IPFS du fichier\r\n        string description;\r\n        uint256 timestamp;\r\n    }\r\n\r\n    mapping(string => bool) public isPatientRegistered;\r\n    mapping(string => Patient) public patients;\r\n    mapping(string => PatientList[]) private Dpermission;\r\n    mapping(string => mapping(string => bool)) public doctorPermissions;\r\n    mapping(string => MedicalRecord[]) private patientRecords;\r\n\r\n    event PatientRegistered(string hhNumber, string name, address walletAddress);\r\n    event MedicalRecordUploaded(string hhNumber, string ipfsHash, string description, uint256 timestamp);\r\n\r\n    function registerPatient(\r\n        address _walletAddress,\r\n        string memory _name,\r\n        string memory _dateOfBirth,\r\n        string memory _gender,\r\n        string memory _bloodGroup,\r\n        string memory _homeAddress,\r\n        string memory _email,\r\n        string memory _hhNumber,\r\n        string memory _password\r\n\r\n    ) external {\r\n        require(!isPatientRegistered[_hhNumber], \"Patient dajea existe \");\r\n\r\n        Patient memory newPatient = Patient({\r\n            walletAddress: _walletAddress,\r\n            name: _name,\r\n            dateOfBirth: _dateOfBirth,\r\n            gender: _gender,\r\n            bloodGroup: _bloodGroup,\r\n            homeAddress: _homeAddress,\r\n            email: _email,    \r\n            hhNumber: _hhNumber,        \r\n            password: _password \r\n        });\r\n\r\n        patients[_hhNumber] = newPatient;\r\n        isPatientRegistered[_hhNumber] = true;\r\n        emit PatientRegistered(_hhNumber, _name, _walletAddress);\r\n    }\r\n\r\n    function isRegisteredPatient(string memory _hhNumber) external view returns (bool) {\r\n        return isPatientRegistered[_hhNumber];\r\n    }\r\n    \r\n    // Add a function to validate patient's password\r\n    function validatePassword(string memory _hhNumber, string memory _password) external view returns (bool) {\r\n        require(isPatientRegistered[_hhNumber], \"Patient not registered\");\r\n        return keccak256(abi.encodePacked(_password)) == keccak256(abi.encodePacked(patients[_hhNumber].password));\r\n    }\r\n\r\n    function getPatientDetails(string memory _hhNumber) external view returns (\r\n    address walletAddress,\r\n    string memory name,\r\n    string memory dateOfBirth,\r\n    string memory gender,\r\n    string memory bloodGroup,\r\n    string memory homeAddress,\r\n    string memory email\r\n    ) {\r\n        require(isPatientRegistered[_hhNumber], \"Patient not registered\");\r\n        Patient memory patient = patients[_hhNumber];\r\n        return (patient.walletAddress, patient.name, patient.dateOfBirth, patient.gender, patient.bloodGroup, patient.homeAddress, patient.email);\r\n    }\r\n\r\n    function grantPermission(\r\n        string memory _patientNumber,\r\n        string memory _doctorNumber,\r\n        string memory _patientName\r\n    ) external {\r\n        require(!doctorPermissions[_patientNumber][_doctorNumber], \"View Access already given to the Doctor!\");\r\n\r\n        // Check if the patient number already exists in the list\r\n        bool exists = false;\r\n        for (uint i = 0; i < Dpermission[_doctorNumber].length; i++) {\r\n            if (keccak256(abi.encodePacked(Dpermission[_doctorNumber][i].patient_number)) == keccak256(abi.encodePacked(_patientNumber))) {\r\n                exists = true;\r\n                break;\r\n            }\r\n        }\r\n\r\n        if (!exists) {\r\n            PatientList memory newRecord = PatientList(\r\n                _patientNumber,\r\n                _patientName\r\n            );\r\n            Dpermission[_doctorNumber].push(newRecord);\r\n        }\r\n        doctorPermissions[_patientNumber][_doctorNumber] = true;\r\n    }\r\n\r\n    function isPermissionGranted(string memory _patientNumber,string memory _doctorNumber) external view returns (bool) {\r\n        return doctorPermissions[_patientNumber][_doctorNumber];\r\n    }\r\n\r\n    function getPatientList(string memory _doctorNumber) public view returns (PatientList[] memory) {\r\n        return Dpermission[_doctorNumber];\r\n    }\r\n        //  Upload medical record (IPFS hash)\r\n    function uploadMedicalRecord(string memory _hhNumber, string memory _ipfsHash, string memory _description) external {\r\n        require(isPatientRegistered[_hhNumber], \"Patient not registered\");\r\n        require(\r\n            msg.sender == patients[_hhNumber].walletAddress,\r\n            \"Only the patient can upload their records\"\r\n        );\r\n\r\n        MedicalRecord memory newRecord = MedicalRecord({\r\n            ipfsHash: _ipfsHash,\r\n            description: _description,\r\n            timestamp: block.timestamp\r\n        });\r\n\r\n        patientRecords[_hhNumber].push(newRecord);\r\n\r\n        emit MedicalRecordUploaded(_hhNumber, _ipfsHash, _description, block.timestamp);\r\n    }\r\n\r\n    //  Get all medical records of patient\r\n    function getMedicalRecords(string memory _hhNumber) external view returns (MedicalRecord[] memory) {\r\n        require(isPatientRegistered[_hhNumber], \"Patient not registered\");\r\n        return patientRecords[_hhNumber];\r\n    }\r\n}",
  "sourcePath": "C:\\Users\\EliteBook\\BlockHealth\\src\\contracts\\PatientRegistration.sol",
  "compiler": {
    "name": "solc",
    "version": "0.8.19+commit.7dd6d404.Emscripten.clang"
  },
  "schemaVersion": "3.4.16",
  "updatedAt": "2025-05-01T20:19:41.899Z",
  "networkType": "ethereum",
  "devdoc": {
    "kind": "dev",
    "methods": {},
    "version": 1
  },
  "userdoc": {
    "kind": "user",
    "methods": {},
    "version": 1
  }
}