{
  "contractName": "PatientRegistration",
  "abi": [
    {
      "anonymous": false,
      "inputs": [
        {
          "indexed": false,
          "internalType": "string",
          "name": "hhNumber",
          "type": "string"
        },
        {
          "indexed": false,
          "internalType": "string",
          "name": "ipfsHash",
          "type": "string"
        },
        {
          "indexed": false,
          "internalType": "string",
          "name": "description",
          "type": "string"
        },
        {
          "indexed": false,
          "internalType": "uint256",
          "name": "timestamp",
          "type": "uint256"
        }
      ],
      "name": "MedicalRecordUploaded",
      "type": "event"
    },
    {
      "anonymous": false,
      "inputs": [
        {
          "indexed": false,
          "internalType": "string",
          "name": "hhNumber",
          "type": "string"
        },
        {
          "indexed": false,
          "internalType": "string",
          "name": "name",
          "type": "string"
        },
        {
          "indexed": false,
          "internalType": "address",
          "name": "walletAddress",
          "type": "address"
        }
      ],
      "name": "PatientRegistered",
      "type": "event"
    },
    {
      "inputs": [
        {
          "internalType": "string",
          "name": "",
          "type": "string"
        },
        {
          "internalType": "string",
          "name": "",
          "type": "string"
        }
      ],
      "name": "doctorPermissions",
      "outputs": [
        {
          "internalType": "bool",
          "name": "",
          "type": "bool"
        }
      ],
      "stateMutability": "view",
      "type": "function",
      "constant": true
    },
    {
      "inputs": [
        {
          "internalType": "string",
          "name": "",
          "type": "string"
        }
      ],
      "name": "isPatientRegistered",
      "outputs": [
        {
          "internalType": "bool",
          "name": "",
          "type": "bool"
        }
      ],
      "stateMutability": "view",
      "type": "function",
      "constant": true
    },
    {
      "inputs": [
        {
          "internalType": "string",
          "name": "",
          "type": "string"
        }
      ],
      "name": "patients",
      "outputs": [
        {
          "internalType": "address",
          "name": "walletAddress",
          "type": "address"
        },
        {
          "internalType": "string",
          "name": "name",
          "type": "string"
        },
        {
          "internalType": "string",
          "name": "dateOfBirth",
          "type": "string"
        },
        {
          "internalType": "string",
          "name": "gender",
          "type": "string"
        },
        {
          "internalType": "string",
          "name": "bloodGroup",
          "type": "string"
        },
        {
          "internalType": "string",
          "name": "homeAddress",
          "type": "string"
        },
        {
          "internalType": "string",
          "name": "email",
          "type": "string"
        },
        {
          "internalType": "string",
          "name": "hhNumber",
          "type": "string"
        },
        {
          "internalType": "string",
          "name": "password",
          "type": "string"
        }
      ],
      "stateMutability": "view",
      "type": "function",
      "constant": true
    },
    {
      "inputs": [
        {
          "internalType": "address",
          "name": "_walletAddress",
          "type": "address"
        },
        {
          "internalType": "string",
          "name": "_name",
          "type": "string"
        },
        {
          "internalType": "string",
          "name": "_dateOfBirth",
          "type": "string"
        },
        {
          "internalType": "string",
          "name": "_gender",
          "type": "string"
        },
        {
          "internalType": "string",
          "name": "_bloodGroup",
          "type": "string"
        },
        {
          "internalType": "string",
          "name": "_homeAddress",
          "type": "string"
        },
        {
          "internalType": "string",
          "name": "_email",
          "type": "string"
        },
        {
          "internalType": "string",
          "name": "_hhNumber",
          "type": "string"
        },
        {
          "internalType": "string",
          "name": "_password",
          "type": "string"
        }
      ],
      "name": "registerPatient",
      "outputs": [],
      "stateMutability": "nonpayable",
      "type": "function"
    },
    {
      "inputs": [
        {
          "internalType": "string",
          "name": "_hhNumber",
          "type": "string"
        }
      ],
      "name": "isRegisteredPatient",
      "outputs": [
        {
          "internalType": "bool",
          "name": "",
          "type": "bool"
        }
      ],
      "stateMutability": "view",
      "type": "function",
      "constant": true
    },
    {
      "inputs": [
        {
          "internalType": "string",
          "name": "_hhNumber",
          "type": "string"
        },
        {
          "internalType": "string",
          "name": "_password",
          "type": "string"
        }
      ],
      "name": "validatePassword",
      "outputs": [
        {
          "internalType": "bool",
          "name": "",
          "type": "bool"
        }
      ],
      "stateMutability": "view",
      "type": "function",
      "constant": true
    },
    {
      "inputs": [
        {
          "internalType": "string",
          "name": "_hhNumber",
          "type": "string"
        }
      ],
      "name": "getPatientDetails",
      "outputs": [
        {
          "internalType": "address",
          "name": "walletAddress",
          "type": "address"
        },
        {
          "internalType": "string",
          "name": "name",
          "type": "string"
        },
        {
          "internalType": "string",
          "name": "dateOfBirth",
          "type": "string"
        },
        {
          "internalType": "string",
          "name": "gender",
          "type": "string"
        },
        {
          "internalType": "string",
          "name": "bloodGroup",
          "type": "string"
        },
        {
          "internalType": "string",
          "name": "homeAddress",
          "type": "string"
        },
        {
          "internalType": "string",
          "name": "email",
          "type": "string"
        }
      ],
      "stateMutability": "view",
      "type": "function",
      "constant": true
    },
    {
      "inputs": [
        {
          "internalType": "string",
          "name": "_patientNumber",
          "type": "string"
        },
        {
          "internalType": "string",
          "name": "_doctorNumber",
          "type": "string"
        },
        {
          "internalType": "string",
          "name": "_patientName",
          "type": "string"
        }
      ],
      "name": "grantPermission",
      "outputs": [],
      "stateMutability": "nonpayable",
      "type": "function"
    },
    {
      "inputs": [
        {
          "internalType": "string",
          "name": "_patientNumber",
          "type": "string"
        },
        {
          "internalType": "string",
          "name": "_doctorNumber",
          "type": "string"
        }
      ],
      "name": "isPermissionGranted",
      "outputs": [
        {
          "internalType": "bool",
          "name": "",
          "type": "bool"
        }
      ],
      "stateMutability": "view",
      "type": "function",
      "constant": true
    },
    {
      "inputs": [
        {
          "internalType": "string",
          "name": "_doctorNumber",
          "type": "string"
        }
      ],
      "name": "getPatientList",
      "outputs": [
        {
          "components": [
            {
              "internalType": "string",
              "name": "patient_number",
              "type": "string"
            },
            {
              "internalType": "string",
              "name": "patient_name",
              "type": "string"
            }
          ],
          "internalType": "struct PatientRegistration.PatientList[]",
          "name": "",
          "type": "tuple[]"
        }
      ],
      "stateMutability": "view",
      "type": "function",
      "constant": true
    },
    {
      "inputs": [
        {
          "internalType": "string",
          "name": "_hhNumber",
          "type": "string"
        },
        {
          "internalType": "string",
          "name": "_ipfsHash",
          "type": "string"
        },
        {
          "internalType": "string",
          "name": "_description",
          "type": "string"
        }
      ],
      "name": "uploadMedicalRecord",
      "outputs": [],
      "stateMutability": "nonpayable",
      "type": "function"
    },
    {
      "inputs": [
        {
          "internalType": "string",
          "name": "_hhNumber",
          "type": "string"
        }
      ],
      "name": "getMedicalRecords",
      "outputs": [
        {
          "components": [
            {
              "internalType": "string",
              "name": "ipfsHash",
              "type": "string"
            },
            {
              "internalType": "string",
              "name": "description",
              "type": "string"
            },
            {
              "internalType": "uint256",
              "name": "timestamp",
              "type": "uint256"
            }
          ],
          "internalType": "struct PatientRegistration.MedicalRecord[]",
          "name": "",
          "type": "tuple[]"
        }
      ],
      "stateMutability": "view",
      "type": "function",
      "constant": true
    },
    {
      "inputs": [
        {
          "internalType": "string",
          "name": "_doctorNumber",
          "type": "string"
        },
        {
          "internalType": "string",
          "name": "_patientNumber",
          "type": "string"
        }
      ],
      "name": "revokeAccess",
      "outputs": [],
      "stateMutability": "nonpayable",
      "type": "function"
    },
    {
      "inputs": [
        {
          "internalType": "string",
          "name": "_doctorNumber",
          "type": "string"
        },
        {
          "internalType": "string",
          "name": "_patientNumber",
          "type": "string"
        }
      ],
      "name": "restoreAccess",
      "outputs": [],
      "stateMutability": "nonpayable",
      "type": "function"
    },
    {
      "inputs": [
        {
          "internalType": "string",
          "name": "_doctorNumber",
          "type": "string"
        }
      ],
      "name": "getRevokedPatients",
      "outputs": [
        {
          "components": [
            {
              "internalType": "string",
              "name": "patient_number",
              "type": "string"
            },
            {
              "internalType": "string",
              "name": "patient_name",
              "type": "string"
            }
          ],
          "internalType": "struct PatientRegistration.PatientList[]",
          "name": "",
          "type": "tuple[]"
        }
      ],
      "stateMutability": "view",
      "type": "function",
      "constant": true
    }
  ],
  "bytecode": "0x608060405234801561001057600080fd5b506133aa806100206000396000f3fe608060405234801561001057600080fd5b50600436106100f55760003560e01c806391c12f7611610097578063ca08b7d111610066578063ca08b7d1146102ae578063d120c10c146102de578063ea977fc81461030e578063f725264114610344576100f5565b806391c12f761461020e578063a207a1211461023e578063c149dafa1461025a578063c6009d8414610276576100f5565b806357812a08116100d357806357812a08146101765780635df67040146101925780635ef5f0d8146101ae5780637babdb26146101de576100f5565b8063241f3144146100fa57806344334733146101165780634f10c6c214610146575b600080fd5b610114600480360381019061010f91906122a0565b610374565b005b610130600480360381019061012b91906122a0565b6105e9565b60405161013d9190612333565b60405180910390f35b610160600480360381019061015b919061234e565b610644565b60405161016d9190612333565b60405180910390f35b610190600480360381019061018b91906123f5565b61067a565b005b6101ac60048036038101906101a7919061259f565b6108d8565b005b6101c860048036038101906101c3919061234e565b610b2c565b6040516101d591906127cb565b60405180910390f35b6101f860048036038101906101f391906122a0565b610ccd565b6040516102059190612333565b60405180910390f35b6102286004803603810190610223919061234e565b610db0565b60405161023591906127cb565b60405180910390f35b610258600480360381019061025391906122a0565b610f51565b005b610274600480360381019061026f919061259f565b6111c6565b005b610290600480360381019061028b919061234e565b6113c2565b6040516102a599989796959493929190612846565b60405180910390f35b6102c860048036038101906102c3919061234e565b611886565b6040516102d59190612a3d565b60405180910390f35b6102f860048036038101906102f391906122a0565b611a9c565b6040516103059190612333565b60405180910390f35b6103286004803603810190610323919061234e565b611aee565b60405161033b9796959493929190612a5f565b60405180910390f35b61035e6004803603810190610359919061234e565b6120b5565b60405161036b9190612333565b60405180910390f35b60006002836040516103869190612b34565b9081526020016040518091039020905060005b81805490508110156105e357826040516020016103b69190612b34565b604051602081830303815290604052805190602001208282815481106103df576103de612b4b565b5b90600052602060002090600202016000016040516020016104009190612c72565b60405160208183030381529060405280519060200120036105d05760058460405161042b9190612b34565b908152602001604051809103902082828154811061044c5761044b612b4b565b5b90600052602060002090600202019080600181540180825580915050600190039060005260206000209060020201600090919091909150600082018160000190816104979190612e36565b50600182018160010190816104ac9190612e36565b50505081600183805490506104c19190612f4d565b815481106104d2576104d1612b4b565b5b90600052602060002090600202018282815481106104f3576104f2612b4b565b5b9060005260206000209060020201600082018160000190816105159190612e36565b506001820181600101908161052a9190612e36565b509050508180548061053f5761053e612f81565b5b60019003818190600052602060002090600202016000808201600061056491906120e9565b60018201600061057491906120e9565b50509055600060038460405161058a9190612b34565b9081526020016040518091039020856040516105a69190612b34565b908152602001604051809103902060006101000a81548160ff0219169083151502179055506105e3565b80806105db90612fb0565b915050610399565b50505050565b600382805160208101820180518482526020830160208501208183528095505050505050818051602081018201805184825260208301602085012081835280955050505050506000915091509054906101000a900460ff1681565b6000818051602081018201805184825260208301602085012081835280955050505050506000915054906101000a900460ff1681565b60008260405161068a9190612b34565b908152602001604051809103902060009054906101000a900460ff16156106e6576040517f08c379a00000000000000000000000000000000000000000000000000000000081526004016106dd90613044565b60405180910390fd5b60006040518061012001604052808b73ffffffffffffffffffffffffffffffffffffffff1681526020018a8152602001898152602001888152602001878152602001868152602001858152602001848152602001838152509050806001846040516107519190612b34565b908152602001604051809103902060008201518160000160006101000a81548173ffffffffffffffffffffffffffffffffffffffff021916908373ffffffffffffffffffffffffffffffffffffffff16021790555060208201518160010190816107bb9190613064565b5060408201518160020190816107d19190613064565b5060608201518160030190816107e79190613064565b5060808201518160040190816107fd9190613064565b5060a08201518160050190816108139190613064565b5060c08201518160060190816108299190613064565b5060e082015181600701908161083f9190613064565b506101008201518160080190816108569190613064565b50905050600160008460405161086c9190612b34565b908152602001604051809103902060006101000a81548160ff0219169083151502179055507f319ae3a95b9a410d647835a7e64d54ddf28faf35a698f0a2b63999585fa38edc838a8c6040516108c493929190613136565b60405180910390a150505050505050505050565b6003836040516108e89190612b34565b9081526020016040518091039020826040516109049190612b34565b908152602001604051809103902060009054906101000a900460ff1615610960576040517f08c379a0000000000000000000000000000000000000000000000000000000008152600401610957906131ed565b60405180910390fd5b6000805b6002846040516109749190612b34565b908152602001604051809103902080549050811015610a3c578460405160200161099e9190612b34565b604051602081830303815290604052805190602001206002856040516109c49190612b34565b908152602001604051809103902082815481106109e4576109e3612b4b565b5b9060005260206000209060020201600001604051602001610a059190612c72565b6040516020818303038152906040528051906020012003610a295760019150610a3c565b8080610a3490612fb0565b915050610964565b5080610ad35760006040518060400160405280868152602001848152509050600284604051610a6b9190612b34565b90815260200160405180910390208190806001815401808255809150506001900390600052602060002090600202016000909190919091506000820151816000019081610ab89190613064565b506020820151816001019081610ace9190613064565b505050505b6001600385604051610ae59190612b34565b908152602001604051809103902084604051610b019190612b34565b908152602001604051809103902060006101000a81548160ff02191690831515021790555050505050565b6060600582604051610b3e9190612b34565b9081526020016040518091039020805480602002602001604051908101604052809291908181526020016000905b82821015610cc25783829060005260206000209060020201604051806040016040529081600082018054610b9f90612ba9565b80601f0160208091040260200160405190810160405280929190818152602001828054610bcb90612ba9565b8015610c185780601f10610bed57610100808354040283529160200191610c18565b820191906000526020600020905b815481529060010190602001808311610bfb57829003601f168201915b50505050508152602001600182018054610c3190612ba9565b80601f0160208091040260200160405190810160405280929190818152602001828054610c5d90612ba9565b8015610caa5780601f10610c7f57610100808354040283529160200191610caa565b820191906000526020600020905b815481529060010190602001808311610c8d57829003601f168201915b50505050508152505081526020019060010190610b6c565b505050509050919050565b60008083604051610cde9190612b34565b908152602001604051809103902060009054906101000a900460ff16610d39576040517f08c379a0000000000000000000000000000000000000000000000000000000008152600401610d3090613259565b60405180910390fd5b600183604051610d499190612b34565b9081526020016040518091039020600801604051602001610d6a9190612c72565b6040516020818303038152906040528051906020012082604051602001610d919190612b34565b6040516020818303038152906040528051906020012014905092915050565b6060600282604051610dc29190612b34565b9081526020016040518091039020805480602002602001604051908101604052809291908181526020016000905b82821015610f465783829060005260206000209060020201604051806040016040529081600082018054610e2390612ba9565b80601f0160208091040260200160405190810160405280929190818152602001828054610e4f90612ba9565b8015610e9c5780601f10610e7157610100808354040283529160200191610e9c565b820191906000526020600020905b815481529060010190602001808311610e7f57829003601f168201915b50505050508152602001600182018054610eb590612ba9565b80601f0160208091040260200160405190810160405280929190818152602001828054610ee190612ba9565b8015610f2e5780601f10610f0357610100808354040283529160200191610f2e565b820191906000526020600020905b815481529060010190602001808311610f1157829003601f168201915b50505050508152505081526020019060010190610df0565b505050509050919050565b6000600583604051610f639190612b34565b9081526020016040518091039020905060005b81805490508110156111c05782604051602001610f939190612b34565b60405160208183030381529060405280519060200120828281548110610fbc57610fbb612b4b565b5b9060005260206000209060020201600001604051602001610fdd9190612c72565b60405160208183030381529060405280519060200120036111ad576002846040516110089190612b34565b908152602001604051809103902082828154811061102957611028612b4b565b5b90600052602060002090600202019080600181540180825580915050600190039060005260206000209060020201600090919091909150600082018160000190816110749190612e36565b50600182018160010190816110899190612e36565b505050816001838054905061109e9190612f4d565b815481106110af576110ae612b4b565b5b90600052602060002090600202018282815481106110d0576110cf612b4b565b5b9060005260206000209060020201600082018160000190816110f29190612e36565b50600182018160010190816111079190612e36565b509050508180548061111c5761111b612f81565b5b60019003818190600052602060002090600202016000808201600061114191906120e9565b60018201600061115191906120e9565b5050905560016003846040516111679190612b34565b9081526020016040518091039020856040516111839190612b34565b908152602001604051809103902060006101000a81548160ff0219169083151502179055506111c0565b80806111b890612fb0565b915050610f76565b50505050565b6000836040516111d69190612b34565b908152602001604051809103902060009054906101000a900460ff16611231576040517f08c379a000000000000000000000000000000000000000000000000000000000815260040161122890613259565b60405180910390fd5b6001836040516112419190612b34565b908152602001604051809103902060000160009054906101000a900473ffffffffffffffffffffffffffffffffffffffff1673ffffffffffffffffffffffffffffffffffffffff163373ffffffffffffffffffffffffffffffffffffffff16146112e0576040517f08c379a00000000000000000000000000000000000000000000000000000000081526004016112d7906132eb565b60405180910390fd5b6000604051806060016040528084815260200183815260200142815250905060048460405161130f9190612b34565b9081526020016040518091039020819080600181540180825580915050600190039060005260206000209060030201600090919091909150600082015181600001908161135c9190613064565b5060208201518160010190816113729190613064565b506040820151816002015550507fabe03420ff2ac4eba94f72de2cb0ddc33198a2c47c3962d9331f86be19bb8e2d848484426040516113b4949392919061331a565b60405180910390a150505050565b6001818051602081018201805184825260208301602085012081835280955050505050506000915090508060000160009054906101000a900473ffffffffffffffffffffffffffffffffffffffff169080600101805461142190612ba9565b80601f016020809104026020016040519081016040528092919081815260200182805461144d90612ba9565b801561149a5780601f1061146f5761010080835404028352916020019161149a565b820191906000526020600020905b81548152906001019060200180831161147d57829003601f168201915b5050505050908060020180546114af90612ba9565b80601f01602080910402602001604051908101604052809291908181526020018280546114db90612ba9565b80156115285780601f106114fd57610100808354040283529160200191611528565b820191906000526020600020905b81548152906001019060200180831161150b57829003601f168201915b50505050509080600301805461153d90612ba9565b80601f016020809104026020016040519081016040528092919081815260200182805461156990612ba9565b80156115b65780601f1061158b576101008083540402835291602001916115b6565b820191906000526020600020905b81548152906001019060200180831161159957829003601f168201915b5050505050908060040180546115cb90612ba9565b80601f01602080910402602001604051908101604052809291908181526020018280546115f790612ba9565b80156116445780601f1061161957610100808354040283529160200191611644565b820191906000526020600020905b81548152906001019060200180831161162757829003601f168201915b50505050509080600501805461165990612ba9565b80601f016020809104026020016040519081016040528092919081815260200182805461168590612ba9565b80156116d25780601f106116a7576101008083540402835291602001916116d2565b820191906000526020600020905b8154815290600101906020018083116116b557829003601f168201915b5050505050908060060180546116e790612ba9565b80601f016020809104026020016040519081016040528092919081815260200182805461171390612ba9565b80156117605780601f1061173557610100808354040283529160200191611760565b820191906000526020600020905b81548152906001019060200180831161174357829003601f168201915b50505050509080600701805461177590612ba9565b80601f01602080910402602001604051908101604052809291908181526020018280546117a190612ba9565b80156117ee5780601f106117c3576101008083540402835291602001916117ee565b820191906000526020600020905b8154815290600101906020018083116117d157829003601f168201915b50505050509080600801805461180390612ba9565b80601f016020809104026020016040519081016040528092919081815260200182805461182f90612ba9565b801561187c5780601f106118515761010080835404028352916020019161187c565b820191906000526020600020905b81548152906001019060200180831161185f57829003601f168201915b5050505050905089565b60606000826040516118989190612b34565b908152602001604051809103902060009054906101000a900460ff166118f3576040517f08c379a00000000000000000000000000000000000000000000000000000000081526004016118ea90613259565b60405180910390fd5b6004826040516119039190612b34565b9081526020016040518091039020805480602002602001604051908101604052809291908181526020016000905b82821015611a91578382906000526020600020906003020160405180606001604052908160008201805461196490612ba9565b80601f016020809104026020016040519081016040528092919081815260200182805461199090612ba9565b80156119dd5780601f106119b2576101008083540402835291602001916119dd565b820191906000526020600020905b8154815290600101906020018083116119c057829003601f168201915b505050505081526020016001820180546119f690612ba9565b80601f0160208091040260200160405190810160405280929190818152602001828054611a2290612ba9565b8015611a6f5780601f10611a4457610100808354040283529160200191611a6f565b820191906000526020600020905b815481529060010190602001808311611a5257829003601f168201915b5050505050815260200160028201548152505081526020019060010190611931565b505050509050919050565b6000600383604051611aae9190612b34565b908152602001604051809103902082604051611aca9190612b34565b908152602001604051809103902060009054906101000a900460ff16905092915050565b6000606080606080606080600088604051611b099190612b34565b908152602001604051809103902060009054906101000a900460ff16611b64576040517f08c379a0000000000000000000000000000000000000000000000000000000008152600401611b5b90613259565b60405180910390fd5b6000600189604051611b769190612b34565b9081526020016040518091039020604051806101200160405290816000820160009054906101000a900473ffffffffffffffffffffffffffffffffffffffff1673ffffffffffffffffffffffffffffffffffffffff1673ffffffffffffffffffffffffffffffffffffffff168152602001600182018054611bf690612ba9565b80601f0160208091040260200160405190810160405280929190818152602001828054611c2290612ba9565b8015611c6f5780601f10611c4457610100808354040283529160200191611c6f565b820191906000526020600020905b815481529060010190602001808311611c5257829003601f168201915b50505050508152602001600282018054611c8890612ba9565b80601f0160208091040260200160405190810160405280929190818152602001828054611cb490612ba9565b8015611d015780601f10611cd657610100808354040283529160200191611d01565b820191906000526020600020905b815481529060010190602001808311611ce457829003601f168201915b50505050508152602001600382018054611d1a90612ba9565b80601f0160208091040260200160405190810160405280929190818152602001828054611d4690612ba9565b8015611d935780601f10611d6857610100808354040283529160200191611d93565b820191906000526020600020905b815481529060010190602001808311611d7657829003601f168201915b50505050508152602001600482018054611dac90612ba9565b80601f0160208091040260200160405190810160405280929190818152602001828054611dd890612ba9565b8015611e255780601f10611dfa57610100808354040283529160200191611e25565b820191906000526020600020905b815481529060010190602001808311611e0857829003601f168201915b50505050508152602001600582018054611e3e90612ba9565b80601f0160208091040260200160405190810160405280929190818152602001828054611e6a90612ba9565b8015611eb75780601f10611e8c57610100808354040283529160200191611eb7565b820191906000526020600020905b815481529060010190602001808311611e9a57829003601f168201915b50505050508152602001600682018054611ed090612ba9565b80601f0160208091040260200160405190810160405280929190818152602001828054611efc90612ba9565b8015611f495780601f10611f1e57610100808354040283529160200191611f49565b820191906000526020600020905b815481529060010190602001808311611f2c57829003601f168201915b50505050508152602001600782018054611f6290612ba9565b80601f0160208091040260200160405190810160405280929190818152602001828054611f8e90612ba9565b8015611fdb5780601f10611fb057610100808354040283529160200191611fdb565b820191906000526020600020905b815481529060010190602001808311611fbe57829003601f168201915b50505050508152602001600882018054611ff490612ba9565b80601f016020809104026020016040519081016040528092919081815260200182805461202090612ba9565b801561206d5780601f106120425761010080835404028352916020019161206d565b820191906000526020600020905b81548152906001019060200180831161205057829003601f168201915b5050505050815250509050806000015181602001518260400151836060015184608001518560a001518660c00151975097509750975097509750975050919395979092949650565b600080826040516120c69190612b34565b908152602001604051809103902060009054906101000a900460ff169050919050565b5080546120f590612ba9565b6000825580601f106121075750612126565b601f0160209004906000526020600020908101906121259190612129565b5b50565b5b8082111561214257600081600090555060010161212a565b5090565b6000604051905090565b600080fd5b600080fd5b600080fd5b600080fd5b6000601f19601f8301169050919050565b7f4e487b7100000000000000000000000000000000000000000000000000000000600052604160045260246000fd5b6121ad82612164565b810181811067ffffffffffffffff821117156121cc576121cb612175565b5b80604052505050565b60006121df612146565b90506121eb82826121a4565b919050565b600067ffffffffffffffff82111561220b5761220a612175565b5b61221482612164565b9050602081019050919050565b82818337600083830152505050565b600061224361223e846121f0565b6121d5565b90508281526020810184848401111561225f5761225e61215f565b5b61226a848285612221565b509392505050565b600082601f8301126122875761228661215a565b5b8135612297848260208601612230565b91505092915050565b600080604083850312156122b7576122b6612150565b5b600083013567ffffffffffffffff8111156122d5576122d4612155565b5b6122e185828601612272565b925050602083013567ffffffffffffffff81111561230257612301612155565b5b61230e85828601612272565b9150509250929050565b60008115159050919050565b61232d81612318565b82525050565b60006020820190506123486000830184612324565b92915050565b60006020828403121561236457612363612150565b5b600082013567ffffffffffffffff81111561238257612381612155565b5b61238e84828501612272565b91505092915050565b600073ffffffffffffffffffffffffffffffffffffffff82169050919050565b60006123c282612397565b9050919050565b6123d2816123b7565b81146123dd57600080fd5b50565b6000813590506123ef816123c9565b92915050565b60008060008060008060008060006101208a8c03121561241857612417612150565b5b60006124268c828d016123e0565b99505060208a013567ffffffffffffffff81111561244757612446612155565b5b6124538c828d01612272565b98505060408a013567ffffffffffffffff81111561247457612473612155565b5b6124808c828d01612272565b97505060608a013567ffffffffffffffff8111156124a1576124a0612155565b5b6124ad8c828d01612272565b96505060808a013567ffffffffffffffff8111156124ce576124cd612155565b5b6124da8c828d01612272565b95505060a08a013567ffffffffffffffff8111156124fb576124fa612155565b5b6125078c828d01612272565b94505060c08a013567ffffffffffffffff81111561252857612527612155565b5b6125348c828d01612272565b93505060e08a013567ffffffffffffffff81111561255557612554612155565b5b6125618c828d01612272565b9250506101008a013567ffffffffffffffff81111561258357612582612155565b5b61258f8c828d01612272565b9150509295985092959850929598565b6000806000606084860312156125b8576125b7612150565b5b600084013567ffffffffffffffff8111156125d6576125d5612155565b5b6125e286828701612272565b935050602084013567ffffffffffffffff81111561260357612602612155565b5b61260f86828701612272565b925050604084013567ffffffffffffffff8111156126305761262f612155565b5b61263c86828701612272565b9150509250925092565b600081519050919050565b600082825260208201905092915050565b6000819050602082019050919050565b600081519050919050565b600082825260208201905092915050565b60005b838110156126ac578082015181840152602081019050612691565b60008484015250505050565b60006126c382612672565b6126cd818561267d565b93506126dd81856020860161268e565b6126e681612164565b840191505092915050565b6000604083016000830151848203600086015261270e82826126b8565b9150506020830151848203602086015261272882826126b8565b9150508091505092915050565b600061274183836126f1565b905092915050565b6000602082019050919050565b600061276182612646565b61276b8185612651565b93508360208202850161277d85612662565b8060005b858110156127b9578484038952815161279a8582612735565b94506127a583612749565b925060208a01995050600181019050612781565b50829750879550505050505092915050565b600060208201905081810360008301526127e58184612756565b905092915050565b6127f6816123b7565b82525050565b600082825260208201905092915050565b600061281882612672565b61282281856127fc565b935061283281856020860161268e565b61283b81612164565b840191505092915050565b60006101208201905061285c600083018c6127ed565b818103602083015261286e818b61280d565b90508181036040830152612882818a61280d565b90508181036060830152612896818961280d565b905081810360808301526128aa818861280d565b905081810360a08301526128be818761280d565b905081810360c08301526128d2818661280d565b905081810360e08301526128e6818561280d565b90508181036101008301526128fb818461280d565b90509a9950505050505050505050565b600081519050919050565b600082825260208201905092915050565b6000819050602082019050919050565b6000819050919050565b61294a81612937565b82525050565b6000606083016000830151848203600086015261296d82826126b8565b9150506020830151848203602086015261298782826126b8565b915050604083015161299c6040860182612941565b508091505092915050565b60006129b38383612950565b905092915050565b6000602082019050919050565b60006129d38261290b565b6129dd8185612916565b9350836020820285016129ef85612927565b8060005b85811015612a2b5784840389528151612a0c85826129a7565b9450612a17836129bb565b925060208a019950506001810190506129f3565b50829750879550505050505092915050565b60006020820190508181036000830152612a5781846129c8565b905092915050565b600060e082019050612a74600083018a6127ed565b8181036020830152612a86818961280d565b90508181036040830152612a9a818861280d565b90508181036060830152612aae818761280d565b90508181036080830152612ac2818661280d565b905081810360a0830152612ad6818561280d565b905081810360c0830152612aea818461280d565b905098975050505050505050565b600081905092915050565b6000612b0e82612672565b612b188185612af8565b9350612b2881856020860161268e565b80840191505092915050565b6000612b408284612b03565b915081905092915050565b7f4e487b7100000000000000000000000000000000000000000000000000000000600052603260045260246000fd5b7f4e487b7100000000000000000000000000000000000000000000000000000000600052602260045260246000fd5b60006002820490506001821680612bc157607f821691505b602082108103612bd457612bd3612b7a565b5b50919050565b60008190508160005260206000209050919050565b60008154612bfc81612ba9565b612c068186612af8565b94506001821660008114612c215760018114612c3657612c69565b60ff1983168652811515820286019350612c69565b612c3f85612bda565b60005b83811015612c6157815481890152600182019150602081019050612c42565b838801955050505b50505092915050565b6000612c7e8284612bef565b915081905092915050565b600081549050612c9881612ba9565b9050919050565b60006020601f8301049050919050565b600082821b905092915050565b600060088302612cec7fffffffffffffffffffffffffffffffffffffffffffffffffffffffffffffffff82612caf565b612cf68683612caf565b95508019841693508086168417925050509392505050565b6000819050919050565b6000612d33612d2e612d2984612937565b612d0e565b612937565b9050919050565b6000819050919050565b612d4d83612d18565b612d61612d5982612d3a565b848454612cbc565b825550505050565b600090565b612d76612d69565b612d81818484612d44565b505050565b5b81811015612da557612d9a600082612d6e565b600181019050612d87565b5050565b601f821115612dea57612dbb81612bda565b612dc484612c9f565b81016020851015612dd3578190505b612de7612ddf85612c9f565b830182612d86565b50505b505050565b600082821c905092915050565b6000612e0d60001984600802612def565b1980831691505092915050565b6000612e268383612dfc565b9150826002028217905092915050565b818103612e44575050612f1c565b612e4d82612c89565b67ffffffffffffffff811115612e6657612e65612175565b5b612e708254612ba9565b612e7b828285612da9565b6000601f831160018114612eaa5760008415612e98578287015490505b612ea28582612e1a565b865550612f15565b601f198416612eb887612bda565b9650612ec386612bda565b60005b82811015612eeb57848901548255600182019150600185019450602081019050612ec6565b86831015612f085784890154612f04601f891682612dfc565b8355505b6001600288020188555050505b5050505050505b565b7f4e487b7100000000000000000000000000000000000000000000000000000000600052601160045260246000fd5b6000612f5882612937565b9150612f6383612937565b9250828203905081811115612f7b57612f7a612f1e565b5b92915050565b7f4e487b7100000000000000000000000000000000000000000000000000000000600052603160045260246000fd5b6000612fbb82612937565b91507fffffffffffffffffffffffffffffffffffffffffffffffffffffffffffffffff8203612fed57612fec612f1e565b5b600182019050919050565b7f50617469656e742064616a656120657869737465200000000000000000000000600082015250565b600061302e6015836127fc565b915061303982612ff8565b602082019050919050565b6000602082019050818103600083015261305d81613021565b9050919050565b61306d82612672565b67ffffffffffffffff81111561308657613085612175565b5b6130908254612ba9565b61309b828285612da9565b600060209050601f8311600181146130ce57600084156130bc578287015190505b6130c68582612e1a565b86555061312e565b601f1984166130dc86612bda565b60005b82811015613104578489015182556001820191506020850194506020810190506130df565b86831015613121578489015161311d601f891682612dfc565b8355505b6001600288020188555050505b505050505050565b60006060820190508181036000830152613150818661280d565b90508181036020830152613164818561280d565b905061317360408301846127ed565b949350505050565b7f566965772041636365737320616c726561647920676976656e20746f2074686560008201527f20446f63746f7221000000000000000000000000000000000000000000000000602082015250565b60006131d76028836127fc565b91506131e28261317b565b604082019050919050565b60006020820190508181036000830152613206816131ca565b9050919050565b7f50617469656e74206e6f74207265676973746572656400000000000000000000600082015250565b60006132436016836127fc565b915061324e8261320d565b602082019050919050565b6000602082019050818103600083015261327281613236565b9050919050565b7f4f6e6c79207468652070617469656e742063616e2075706c6f6164207468656960008201527f72207265636f7264730000000000000000000000000000000000000000000000602082015250565b60006132d56029836127fc565b91506132e082613279565b604082019050919050565b60006020820190508181036000830152613304816132c8565b9050919050565b61331481612937565b82525050565b60006080820190508181036000830152613334818761280d565b90508181036020830152613348818661280d565b9050818103604083015261335c818561280d565b905061336b606083018461330b565b9594505050505056fea2646970667358221220affd51148b3f91c4d180e50bcc359b986d97524a13467e9ed81b4961ffa986c164736f6c63430008130033",
  "immutableReferences": {},
  "source": "// SPDX-License-Identifier: MIT\r\npragma solidity ^0.8.19;\r\n\r\ncontract PatientRegistration {\r\n    struct Patient {\r\n        address walletAddress;\r\n        string name;\r\n        string dateOfBirth;\r\n        string gender;\r\n        string bloodGroup;\r\n        string homeAddress;\r\n        string email;\r\n        string hhNumber;\r\n        string password;\r\n    }\r\n\r\n    struct PatientList{\r\n        string patient_number;\r\n        string patient_name;\r\n    }\r\n\r\n      struct MedicalRecord {\r\n        string ipfsHash; // hash IPFS du fichier\r\n        string description;\r\n        uint256 timestamp;\r\n    }\r\n\r\n    mapping(string => bool) public isPatientRegistered;\r\n    mapping(string => Patient) public patients;\r\n    mapping(string => PatientList[]) private Dpermission;\r\n    mapping(string => mapping(string => bool)) public doctorPermissions;\r\n    mapping(string => MedicalRecord[]) private patientRecords;\r\n\r\n    event PatientRegistered(string hhNumber, string name, address walletAddress);\r\n    event MedicalRecordUploaded(string hhNumber, string ipfsHash, string description, uint256 timestamp);\r\n\r\n    function registerPatient(\r\n        address _walletAddress,\r\n        string memory _name,\r\n        string memory _dateOfBirth,\r\n        string memory _gender,\r\n        string memory _bloodGroup,\r\n        string memory _homeAddress,\r\n        string memory _email,\r\n        string memory _hhNumber,\r\n        string memory _password\r\n\r\n    ) external {\r\n        require(!isPatientRegistered[_hhNumber], \"Patient dajea existe \");\r\n\r\n        Patient memory newPatient = Patient({\r\n            walletAddress: _walletAddress,\r\n            name: _name,\r\n            dateOfBirth: _dateOfBirth,\r\n            gender: _gender,\r\n            bloodGroup: _bloodGroup,\r\n            homeAddress: _homeAddress,\r\n            email: _email,    \r\n            hhNumber: _hhNumber,        \r\n            password: _password \r\n        });\r\n\r\n        patients[_hhNumber] = newPatient;\r\n        isPatientRegistered[_hhNumber] = true;\r\n        emit PatientRegistered(_hhNumber, _name, _walletAddress);\r\n    }\r\n\r\n    function isRegisteredPatient(string memory _hhNumber) external view returns (bool) {\r\n        return isPatientRegistered[_hhNumber];\r\n    }\r\n    \r\n    // Add a function to validate patient's password\r\n    function validatePassword(string memory _hhNumber, string memory _password) external view returns (bool) {\r\n        require(isPatientRegistered[_hhNumber], \"Patient not registered\");\r\n        return keccak256(abi.encodePacked(_password)) == keccak256(abi.encodePacked(patients[_hhNumber].password));\r\n    }\r\n\r\n    function getPatientDetails(string memory _hhNumber) external view returns (\r\n    address walletAddress,\r\n    string memory name,\r\n    string memory dateOfBirth,\r\n    string memory gender,\r\n    string memory bloodGroup,\r\n    string memory homeAddress,\r\n    string memory email\r\n    ) {\r\n        require(isPatientRegistered[_hhNumber], \"Patient not registered\");\r\n        Patient memory patient = patients[_hhNumber];\r\n        return (patient.walletAddress, patient.name, patient.dateOfBirth, patient.gender, patient.bloodGroup, patient.homeAddress, patient.email);\r\n    }\r\n\r\n    function grantPermission(\r\n        string memory _patientNumber,\r\n        string memory _doctorNumber,\r\n        string memory _patientName\r\n    ) external {\r\n        require(!doctorPermissions[_patientNumber][_doctorNumber], \"View Access already given to the Doctor!\");\r\n\r\n        // Check if the patient number already exists in the list\r\n        bool exists = false;\r\n        for (uint i = 0; i < Dpermission[_doctorNumber].length; i++) {\r\n            if (keccak256(abi.encodePacked(Dpermission[_doctorNumber][i].patient_number)) == keccak256(abi.encodePacked(_patientNumber))) {\r\n                exists = true;\r\n                break;\r\n            }\r\n        }\r\n\r\n        if (!exists) {\r\n            PatientList memory newRecord = PatientList(\r\n                _patientNumber,\r\n                _patientName\r\n            );\r\n            Dpermission[_doctorNumber].push(newRecord);\r\n        }\r\n        doctorPermissions[_patientNumber][_doctorNumber] = true;\r\n    }\r\n\r\n    function isPermissionGranted(string memory _patientNumber,string memory _doctorNumber) external view returns (bool) {\r\n        return doctorPermissions[_patientNumber][_doctorNumber];\r\n    }\r\n\r\n    function getPatientList(string memory _doctorNumber) public view returns (PatientList[] memory) {\r\n        return Dpermission[_doctorNumber];\r\n    }\r\n        //  Upload medical record (IPFS hash)\r\n    function uploadMedicalRecord(string memory _hhNumber, string memory _ipfsHash, string memory _description) external {\r\n        require(isPatientRegistered[_hhNumber], \"Patient not registered\");\r\n        require(\r\n            msg.sender == patients[_hhNumber].walletAddress,\r\n            \"Only the patient can upload their records\"\r\n        );\r\n\r\n        MedicalRecord memory newRecord = MedicalRecord({\r\n            ipfsHash: _ipfsHash,\r\n            description: _description,\r\n            timestamp: block.timestamp\r\n        });\r\n\r\n        patientRecords[_hhNumber].push(newRecord);\r\n\r\n        emit MedicalRecordUploaded(_hhNumber, _ipfsHash, _description, block.timestamp);\r\n    }\r\n\r\n    //  Get all medical records of patient\r\n    function getMedicalRecords(string memory _hhNumber) external view returns (MedicalRecord[] memory) {\r\n        require(isPatientRegistered[_hhNumber], \"Patient not registered\");\r\n        return patientRecords[_hhNumber];\r\n    }\r\n    // Liste des patients rvoqus pour chaque mdecin\r\nmapping(string => PatientList[]) private revokedPatients;\r\n\r\n//  Supprimer un patient de la liste d'accs du mdecin\r\nfunction revokeAccess(string memory _doctorNumber, string memory _patientNumber) public {\r\n    PatientList[] storage list = Dpermission[_doctorNumber];\r\n    for (uint i = 0; i < list.length; i++) {\r\n        if (keccak256(abi.encodePacked(list[i].patient_number)) == keccak256(abi.encodePacked(_patientNumber))) {\r\n            // Ajouter  la liste rvoque\r\n            revokedPatients[_doctorNumber].push(list[i]);\r\n\r\n            // Supprimer de la liste active\r\n            list[i] = list[list.length - 1];\r\n            list.pop();\r\n\r\n            // Supprimer l'autorisation\r\n            doctorPermissions[_patientNumber][_doctorNumber] = false;\r\n            break;\r\n        }\r\n    }\r\n}\r\n\r\n//  Rcuprer un patient rvoqu (restaurer)\r\nfunction restoreAccess(string memory _doctorNumber, string memory _patientNumber) public {\r\n    PatientList[] storage revoked = revokedPatients[_doctorNumber];\r\n    for (uint i = 0; i < revoked.length; i++) {\r\n        if (keccak256(abi.encodePacked(revoked[i].patient_number)) == keccak256(abi.encodePacked(_patientNumber))) {\r\n            // Remettre dans la liste active\r\n            Dpermission[_doctorNumber].push(revoked[i]);\r\n\r\n            // Supprimer de la liste rvoque\r\n            revoked[i] = revoked[revoked.length - 1];\r\n            revoked.pop();\r\n\r\n            // Rtablir l'autorisation\r\n            doctorPermissions[_patientNumber][_doctorNumber] = true;\r\n            break;\r\n        }\r\n    }\r\n}\r\n\r\n//  Afficher la liste des patients rvoqus\r\nfunction getRevokedPatients(string memory _doctorNumber) public view returns (PatientList[] memory) {\r\n    return revokedPatients[_doctorNumber];\r\n}\r\n\r\n}",
  "sourcePath": "C:\\Users\\EliteBook\\BlockHealth\\src\\contracts\\PatientRegistration.sol",
  "compiler": {
    "name": "solc",
    "version": "0.8.19+commit.7dd6d404.Emscripten.clang"
  },
  "schemaVersion": "3.4.16",
  "updatedAt": "2025-05-16T21:34:47.158Z",
  "networkType": "ethereum",
  "devdoc": {
    "kind": "dev",
    "methods": {},
    "version": 1
  },
  "userdoc": {
    "kind": "user",
    "methods": {},
    "version": 1
  }
}